:020000040000FA
:10000000F80B0020A106000009070000D15E0000E7
:10001000F15E0000115F0000515F0000315F0000E1
:10002000000000000000000000000000392E000069
:1000300015070000000000001B070000210700005A
:10004000000000000000000000000000AD370000CC
:100050000000000027070000000000000000000072
:100060002D07000033070000390700003F0700009C
:1000700000000000450700004B070000510700008A
:10008000570700005D0700000000000000000000AE
:100090006307000069070000000000000000000086
:1000A0006F0700000000000000000000750700005E
:1000B0007B07000081070000870700008D07000014
:1000C00093070000990700009F070000A5070000A4
:1000D000AB07000000000000B107000000000000B6
:1000E000B707000000000000BD070000000000008E
:1000F000C307000000000000000000000000000036
:1001000000000000C907000000000000000000001F
:1001100000000000000000000000000000000000DF
:1001200000000000CF0700000000000000000000F9
:1001300000000000000000000000000000000000BF
:100140000F07000000015F5F02000000FE0B0000CF
:100150001D2F0000800600000000000000000000CD
:100160000000000000000000000000000100FFC3CC
:10017000000000C4401200200000000001015F5F89
:10018000030100001F010000B9040000000000008E
:10019000000000000100000001000000000000005D
:1001A000000000000000000000000000000000004F
:1001B00000000000700000007C6300008000000070
:1001C000000F0000010000004102000001015F5F1C
:1001D000040100001F0100003506000000000000BF
:1001E000000000000000000001000000000000000E
:1001F00000000000000000000000000000000000FF
:1002000000000000876300004000000005070000B8
:080210000100000021050000BF
:1002200038B50025054C29462046D4F80024C4F8EA
:10023000045405F0F6FEC4F8005438BD200C00202C
:100240002DE9F04F04680546A5B0002C40F00E8162
:100250002022214604A805F0E4FE14AF2022214606
:100260000CA805F0DEFE40222146384605F0D9FEF6
:10027000EA6905F11C039846B2B10424EA6A05F163
:100280002C03EAB10426ECB96FF08304204625B0B4
:10029000BDE8F08F002CF1D053F8041D2246013C3C
:1002A0000029F7D01446E9E70324F5E7002EEAD049
:1002B00053F8041D3246013E0029F7D01646E2E706
:1002C0000326F5E740233A460021686805F0E6FE7C
:1002D0004028D9D1CDE904700127DFF898A10DF1AC
:1002E000100905F1100BBC422DD10CAF3C4600208B
:1002F000604A4146D2F8003408EB8608884540D170
:1003000008B1C2F800340023CDE90233059BA96887
:10031000402BC2F80414049A40F09980138D180AF7
:1003200003285AD0012800F081801268831ECDE98D
:100330000221092B00F28E80DFE803F0404F545A6F
:1003400060666C727D835BF8043F1A1D21D8DAF871
:100350000004D91C21F00301C0F58062914218D835
:10036000014400EB0A02CAF8001468683946019299
:1003700005F094FE019AC9F80C00013749F8082FDE
:10038000B1E751F804EF1EF1040F07D908B1C2F824
:100390000034FFF745FF6FF08C0477E70EF1030C94
:1003A0002CF0030CC3F58069CC4504F10804EDD8AA
:1003B000D01844E9020E634401209FE702AA0CA969
:1003C00004A800F09CF804464FF00008464507F1E9
:1003D000080742D1FFF724FF58E70CA904A800F052
:1003E0007CF8F0E702AA0CA904A800F079F8EAE783
:1003F00002AA0CA904A800F06DF8E4E702AA0CA96F
:1004000004A800F070F8DEE702AA0CA904A800F026
:100410006DF8D8E702AA0CA904A800F06AF8D2E7A0
:1004200002AA0CA904A800F067F8CCE70CA904A85C
:1004300000F068F8C7E702AA0CA904A800F06AF85F
:10044000C1E702AA0CA904A800F067F8BBE76FF0A7
:100450008004B9E76FF08504B6E7414657E9022307
:10046000686805F030FE08F10108AFE76FF0850419
:100470000CE700BF200C002008B52822002102480C
:1004800005F0CFFD002008BD2810002010B5044C59
:100490000F222046034905F09FFD204610BD00BFF6
:1004A000501000203806000008B5024803F054FD43
:1004B000002008BD0D05000008B5FFF7DDFF40B9BD
:1004C000FFF7E4FFFFF7F0FF18B9BDE8084003F0BD
:1004D00085BD08BD6FF0850070476FF085007047DF
:1004E0006FF0850070476FF0850070476FF08500F2
:1004F00070476FF0850070476FF0850070476FF0B0
:1005000085007047D1E9000103F02CBD0FB4002035
:1005100004B070476FF0850070476FF0850070473A
:10052000F0B503680546B3F57D7FA7B007D040F26C
:10053000F532934207D06FF0850027B0F0BD01F08F
:1005400075FB0020F9E700243C22214607A8CDE9ED
:100550000244CDE90444069405F063FD3C222146A3
:1005600017A8169405F05DFDEA69019405F11C03D6
:1005700002B30426EA6A05F12C033AB30424731E7D
:10058000012B52D8012C50D80423002168680DEBB0
:10059000030205F083FD04281AD06FF08000CCE739
:1005A000002EE7D053F8041D3246013E0029F7D053
:1005B0001646DFE70326F5E7002CE0D053F8041DCC
:1005C0002246013C0029F7D01446D8E70324F5E77A
:1005D000022E16D16E69402E29D806AF33463A4610
:1005E0000121686805F05AFD8642D6D1CDE9027630
:1005F00002A944B92246019801F08FFF0446204623
:100600009BE70021F5E72B6A402BC6D816AACDE957
:100610000423019804AA01F080FFDDE904230446C5
:100620000021686805F04FFDE9E7012085E76FF0DC
:10063000890082E7002070474D62656420544C5366
:1006400020332E362E350000000000000000000090
:10065000000000000000000000000000000000009A
:10066000407C0000801000204D000000407C000015
:10067000200C002000000000407C0000000C002046
:1006800000000000B4110020A4050000200C002090
:1006900018010000000C00200800000002F070BEED
:1006A00008B572B60C4A0D4B9A600D4B83F309885E
:1006B0000C4B83F30A8883F30B880B4B04A1D1E91D
:1006C0000001C3E9000100F0C3F803F0EBFB00BF39
:1006D000A5EDF5FEA5EDF5FE0000000000ED00E043
:1006E000F80B002000040020F80B0020EFF3088036
:1006F000EFF309812DE9F00F6B46724600F0A6F981
:1007000008B0FFF7CBFFFEE708B5FFF7EFFF08B52E
:10071000FFF7ECFF08B5FFF7E9FF08B5FFF7E6FFC5
:1007200008B5FFF7E3FF08B5FFF7E0FF08B5FFF7EF
:10073000DDFF08B5FFF7DAFF08B5FFF7D7FF08B50B
:10074000FFF7D4FF08B5FFF7D1FF08B5FFF7CEFFDD
:1007500008B5FFF7CBFF08B5FFF7C8FF08B5FFF7EF
:10076000C5FF08B5FFF7C2FF08B5FFF7BFFF08B523
:10077000FFF7BCFF08B5FFF7B9FF08B5FFF7B6FFF5
:1007800008B5FFF7B3FF08B5FFF7B0FF08B5FFF7EF
:10079000ADFF08B5FFF7AAFF08B5FFF7A7FF08B53B
:1007A000FFF7A4FF08B5FFF7A1FF08B5FFF79EFF0D
:1007B00008B5FFF79BFF08B5FFF798FF08B5FFF7EF
:1007C00095FF08B5FFF792FF08B5FFF78FFF08B553
:1007D000FFF78CFF08B5EFF31083012B0C4A07D10C
:1007E000126ABFF34F8F511C4A424A41104608BD5E
:1007F00001F0A2FA00B172B6126ABFF34F8F531C18
:100800005A425A4101F098FA0028EFD062B6EDE75B
:100810000080FF0008B5EFF31083012B0B4A06D1CF
:10082000D269BFF34F8F02F00102104608BD01F0FC
:1008300083FA00B172B6D269BFF34F8F02F00102A2
:1008400001F07AFA0028F0D062B6EEE70080FF00EF
:10085000734A10B5D2F8D03043F00203C2F8D0305A
:1008600001F06AFA30B14FF050230022C3F814218E
:10087000C3F8182101F073FA28B10122694BC3F8BB
:10088000382AC3F878254FF47F02D2F83031BFF30D
:100890004F8FD2F83421BFF34F8FBFF34F8FC3F385
:1008A0000B03092B05D1012A1EBF01225D4BC3F8A2
:1008B000782501F054FA18B10E225B4BC3F8E42EF0
:1008C00001F03AFA30B10022564BC3F80C2701224E
:1008D000C3F810270022D30003F57F03D3F80013D9
:1008E000BFF34F8F013108D0D3F800130132D3F892
:1008F0000433B2F5807F0B60EDD1EFF31084FFF786
:1009000089FF00284DD0BFF34F8F484BD3F8002408
:10091000012AFBD1C3F80425D3F80024012AFBD116
:10092000012C03D001F008FA00B172B6FFF772FF94
:1009300058B13F4AD36923F00103D361BFF34F8F0E
:100940003A4AD2F80034012BFBD1FFF743FF68B1DC
:10095000374A136A23F0FF0343F020031362BFF307
:100960004F8F324AD2F80034012BFBD1012C03D037
:1009700001F0E2F900B162B600222C4BC3F8042565
:10098000D3F80024012AFBD1BFF34F8F2449294B10
:10099000CA6802F4E0621343CB60BFF34F8F00BF1D
:1009A000FDE7FFF717FF0028ADD11D4AD2F88C30C4
:1009B00043F44063C2F88C304FF47F03D3F8302106
:1009C000BFF34F8FD3F83431BFF34F8FBFF34F8F47
:1009D000C2F30B02092A16D1013B022B02D8164A98
:1009E000D35C83B1124815490368104A8B420CBF8F
:1009F0005A230023C2F8103EC36A8B420CBF5A230D
:100A00000023C2F8003E064AD2F8883043F470034F
:100A1000C2F88830BFF34F8FBFF36F8F10BD00BF98
:100A200000ED00E00040005000A003500090035093
:100A30000080FF000400FA05F0370000FA50FA5079
:100A40007C22014905F0C8BAC018002038B51D46FF
:100A5000AA4BAB4C5B68C3F308032360EFF303833B
:100A600063655306C4E90120E1603ED502F00C0243
:100A70000C2A08BF0846014620612022A14805F043
:100A8000ABFA25B1202229469F4805F0A5FA9B4BD9
:100A90009A6AA265D96AE165986B206602F4004003
:100AA0006066586BA06602F08000E0669A62D962C8
:100AB000D3F8E4202267D3F8E810616702F0400120
:100AC000A167C3F8E42000F0A1F90E218F4801F0DE
:100AD0005CF92268D31E042B00F2FB80DFE813F0E0
:100AE00011001700F000F300F600EFF3948398076D
:100AF00004D5110702D5EFF38980BCE7EFF38880B6
:100B0000B9E70C21824801F040F9002504E01221E8
:100B1000804801F03AF901252A217F4801F035F992
:100B2000626816217D4801F05FFD18217C4801F0C4
:100B30002CF963685A064BBF0E21122179487A4876
:100B400001F023F963681B074BBF1021112177487F
:100B5000774801F01AF9626D0E21764801F044FDE4
:100B6000A2680E21744801F03FFD0E21E26873482F
:100B700001F03AFDEFF388820E21714801F034FD57
:100B8000EFF389820E216F4801F02EFD19212269B1
:100B90006D4801F029FD1DB152216C4801F0F5F8B6
:100BA0000F2162696A4801F01FFD0F21A26969489F
:100BB00001F01AFD0F21E269674801F015FD0F21D0
:100BC000226A664801F010FD0F21626A644801F054
:100BD0000BFD0F21A26A634801F006FD0F21E26AB6
:100BE000614801F001FD226B0F21604801F0FCFC1F
:100BF00023215F4801F0C9F80F21626B5D4801F0C5
:100C0000F3FC0F21A26B5C4801F0EEFC0F21E26BBC
:100C10005A4801F0E9FC0F21226C594801F0E4FC2C
:100C20000F21626C574801F0DFFC0F21A26C56487F
:100C300001F0DAFC0F21E26C544801F0D5FC0F21E1
:100C4000226D534801F0D0FC0C21A26D514801F0F7
:100C5000CBFC0C2194F859204F4801F0C5FC636E81
:100C6000002B41D00B21226E4C4801F0BDFC0C2121
:100C700094F858204A4801F0B7FCE36E002B38D0B6
:100C80000C21A26E474801F0AFFC0C21B4F85A20A9
:100C9000454801F0A9FC0C21E26D444801F0A4FC98
:100CA0000C21226F424801F09FFCA36F002B00F043
:100CB0009180626F0B21BDE838403E4801F094BC42
:100CC0000B213D4825E70D213C4822E70E213C48F9
:100CD00019E70F2A95BF142125213A483A4888BFC1
:100CE000103A01F081FC16E71721384801F04DF861
:100CF000BDE71721364801F048F8C6E700ED00E0EF
:100D0000C0180020D4180020F4180020F337000089
:100D1000013800000D3800007E380000A8380000BF
:100D2000BE380000D6380000E4380000F638000075
:100D3000063900001739000025390000333900005A
:100D4000413900004F3900005D390000763900005C
:100D5000C8390000D7390000E6390000F539000035
:100D6000043A0000133A0000223A0000313A000031
:100D7000403A0000633A0000723A0000813A0000F5
:100D8000903A00009F3A0000AE3A0000BD3A0000E1
:100D9000CC3A0000DB3A0000E73A0000F33A0000EA
:100DA000153B0000213B0000443B0000503B00008D
:100DB0005C3B0000683B00001F3800002A38000040
:100DC000373800004538000059380000FE3A00006E
:100DD0002D3B00001621BDE83840014800F0D5BF8A
:100DE000733B000037B5084C6369984748B9E56A1A
:100DF000A847C307FCD4236A019303B0BDE8304081
:100E00001847002003B030BD8C3B000010B50B4CE0
:100E10000020A368984780B902202369984760B9E9
:100E20004FF4E1310120A46AA04730B90121152017
:100E3000A04710B90122024B1A7010BD8C3B000074
:100E40004028002010B5064C00202369984708B1BF
:100E5000043004D1E368984708B9024B187010BDFC
:100E60008C3B000040280020064B82B0186800230D
:100E700082B262F30F03000C60F31F43184602B006
:100E8000704700BFCC3B0000014BD86D704700BFDE
:100E900084100020014B186E704700BF84100020A2
:100EA000C3B2012B10B509D0A3F11502012A00F23B
:100EB000AE80002900F09880002010BD4DF6C023C0
:100EC000994270D028D8B1F5615F6FD011D8B1F5D3
:100ED000965F6DD008D8B1F5966F6BD0B1F5166FEF
:100EE0006BD06FF00700E8E7B1F5165FF9D1514B11
:100EF00033E047F61223994262D007D8B1F5964FF6
:100F000061D0B1F5E14FECD14B4B26E0B1F5164F76
:100F1000E7D14FF41D0320E0484B994255D011D83A
:100F2000B1F5E13F54D007D8B1F5614F53D0B1F5D9
:100F3000963FD6D1424B10E0B1F5613FD1D14FF091
:100F40006C730AE0B1F5612F48D03E4B994248D00E
:100F5000B1F5E12FC5D14FF0E86310F4E06F59D13E
:100F600010F4404103D0B1F5804F56D1102110F458
:100F7000405403D0B4F5805F52D10E2410F44032B7
:100F800003D0B2F5403F4ED101222F4880F8921095
:100F900000F16401C0F88C3080F8902080F8914016
:100FA00001F066F888E74FF46503D6E7274BD4E7EE
:100FB000274BD2E74FF49E23CFE74FF41D23CCE716
:100FC0004FF40003C9E7234BC7E74FF08063C4E742
:100FD0004FF0EB73C1E74FF46B03BEE74FF0706364
:100FE000BBE74FF08053B8E71748162B18BF0146F0
:100FF0004FF0FF330ABF00F1640141F8643F83669C
:1010000001F036F810F1100F10D0C01755E76FF04F
:10101000030052E76FF008004FE76FF00A004CE75B
:101020006FF0090049E76FF00B0046E76FF0010031
:1010300043E700BF0050270000C0750090D00300B8
:1010400000903A0140420F008410002000F03A0066
:1010500000B0130000A04E0073B506461B480C46B6
:1010600001F042F8194D18B94FF0FF3002B070BDD1
:1010700022463146284601F00AF910F1100F02D13C
:101080006FF00100F2E70028EEDB0321284600F0B4
:101090007FFB10F1100FF3D00028E5DB0023019354
:1010A000284601A901F09FF910F1100FF8D078300F
:1010B000DAD0019B9C42D7D801220448114601F0A6
:1010C00090F90028D0DB00202C66CFE784100020A8
:1010D000F0B51B4E054691B030460C4601F004F8C1
:1010E00018B94FF0FF3011B0F0BD05F06043B3F117
:1010F000005F20D1002322462946304600F0FAFF47
:1011000010F1100F19D00028EBDBF46511E0A71BDC
:10111000402F28BF4027A9193A46684604F05CFFD3
:1011200039466846FFF7D4FF0028DCD14036B44288
:10113000EDD80020D7E70026F9E76FF00100D2E7ED
:101140008410002010B5104C204600F0C5FA002194
:10115000206800F053FC226842F30732002A11DBBA
:10116000012153099B0003F1604303F56143D3F868
:10117000800202F01F0201FA02F20243C3F8802249
:10118000D3F88032002010BD8410002010B5174C19
:101190000021206800F024FC226842F30732002A74
:1011A00012DB012053099B0003F1604303F5614307
:1011B000D3F8801202F01F0200FA02F221EA0202C2
:1011C000C3F88022D3F880320948D4E9151200F020
:1011D000F2FD01460022643800F0ECF90028AABFB5
:1011E00000206FF00100C4E9170010BD841000203A
:1011F000E81000207FB500250C46C0F808511646BF
:10120000D0F80821D0F8002222F02002C0F80022F5
:10121000104AC0F8082300F01FFEA560256104F104
:101220004C03D3E8EF1F21F47F0121F47041C3E8A0
:10123000E21F002AF5D110222946684604F0F1FE8B
:10124000042368468DF800300196D4E900139847CE
:1012500004B070BD10020A00044B054A1B68B3FBC2
:10126000F2F35843034B43F001031847801000206A
:1012700040420F00D03B000000F01F03400909D19D
:10128000074A02EB8303D3F80012064A0A40C3F868
:10129000002270470022803352F82330FFDE00BF67
:1012A00000258450F0F8FCFF430904D10123034AD0
:1012B00083409360704700239B60FFDE00258450CD
:1012C00000F01F0340090BD1084A02EB8302D2F859
:1012D0000012074B0B4043F00303C2F80032704783
:1012E0000022803352F82330FFDE00BF00258450F7
:1012F000F0F8FCFF2DE9F84391F8303005460C4634
:101300000F6813BB066D46F000730365781C04D0AC
:101310003846FFF7C9FFFFF7D3FF6068411C01D0D3
:10132000FFF7AAFF94F82C30012B0ED1E06846F0AD
:101330002066421C2E6501D0FFF79EFFA068431C6B
:1013400003D0FFF7B1FFFFF7BBFF94F82FC0BCF14C
:10135000000F03D12B6D43F080732B6594F82C00A4
:1013600094F82D1094F82EE0A26A2B680143E668E9
:10137000D4E90198C3F824254EEA0102C3F86C258C
:10138000BCF1000F09D10128C3F80C75C3F81495FE
:1013900004BFC3F80885C3F810654FF47F02D2F884
:1013A0003031BFF34F8FD2F83421BFF34F8FBFF3EB
:1013B0004F8FC3F30B03092B1BD12B68D3F8682580
:1013C00003F26457012A08BFDA60D3F86425012AC2
:1013D0000FD1082149F64046C3F800155A603B6812
:1013E0009BBB2B68D3F88024C3F880240022C3F869
:1013F000002500212B6894F83220C3F81011D3F88F
:101400001001C3F82011D3F82001C3F82411D3F838
:101410002401C3F84411D3F84401C3F85811D3F898
:10142000581143F307335201002BD2B213DB0C499E
:10143000C81880F800230122580903F01F0302FA9C
:1014400003F341F82030BDE8F8830120FFF704FFE3
:10145000013EC4D1C5E7034903F00F03CA54F2E7C4
:1014600000E100E014ED00E000F01F0340090BD1A3
:10147000084A02EB8302D2F80012074B0B4043F0FC
:101480000203C2F8003270470022803352F8233042
:10149000FFDE00BF00258450F0F8FCFFF8B50546DC
:1014A0002B6D046803F48223B3F5805FD4F8000247
:1014B00005D009B100232B626FF07600F8BDD4F897
:1014C0000463C4F8086309B9830647D4D4F800322A
:1014D00023F02003C4F800324FF4A11305F15007A4
:1014E000D7E8EF1F1943C7E8E01F0028F8D112B969
:1014F000AB68002B59D12E4BC4F80833012363602D
:10150000D4F84431002BFBD00023C4F84C31D4F87C
:101510004C21C4F81031D4F81021C4F84431D4F867
:1015200044212A6D12F400421BD12A62204600F0A9
:1015300093FC0023EB606B61D7E8EF3F23F47F035C
:1015400023F47043C7E8E23F002AF5D126F42026B1
:1015500026F404760020C4F80463AFE74FF4803328
:10156000BCE7C4F84C31D4F84C21EA69C4F83425FE
:101570000522C4F83825C4F81031D4F810310123FD
:10158000E362D4F81031002BFBD00022C4F8102104
:10159000D4F81031D4F84C310BB1D4F83C352B626F
:1015A000C4F84C21D4F84C31C0E701236360D1E783
:1015B00010020A002DE9F74304460E4694F84C1039
:1015C00091460430002970D1502204F02AFD33697D
:1015D00063607369E363B36903B1013B2364336AF6
:1015E000042B81BFF369E3610023236296F8313055
:1015F000B9F1000F2FD083F001084FEA08281BB182
:10160000236D43F0010323650123256884F84C30E2
:10161000D5F84C21C4F80890FAB931462046FFF7B6
:1016200069FE0822002325688DF80730C5F80025DB
:101630000DF10702C5F84425C5F8483501230A26EF
:10164000AB60EB60D5F8583193BB0120FFF704FE87
:10165000013EF7D122E0C846D1E708226427C5F849
:1016600000256B60D5F84431EBB9D5F82431D3B9F6
:101670000A20FFF7F1FD013FF4D10023C5F84C31FA
:10168000D5F84C21C5F81031D5F81021C5F84431F2
:10169000D5F84421C5F80035002FBED16FF08B007E
:1016A00003B0BDE8F0830127E7E76FF07700F7E7C5
:1016B0000020C5F820018145D5F82031054B08BF31
:1016C0000346226848EA0303C5F80005C2F804335C
:1016D000E6E700BF10020A0003682B4A2DE9F0413B
:1016E000C3F8082343F30733002B04460DDB012125
:1016F0005A0903F01F03994002F12003234A42F8DC
:101700002310BFF34F8FBFF36F8F01222046114686
:10171000FFF7C4FE0121204600F074FD256D23680B
:10172000E901D3F80C05D3F81485D3F80865D3F88C
:10173000107509D54FF0FF32C3F80C25C3F81425F6
:10174000C3F80825C3F81025AA0115D5431C01D0FC
:10175000FFF78AFEB8F1FF3F02D04046FFF784FE54
:10176000290109D57A1C02D03846FFF77DFE731C8B
:1017700002D03046FFF778FE002384F84C30236512
:10178000A360BDE8F08100BF10034A0000E100E063
:10179000F8B50646044656F8505B071DD6E8EF3FFD
:1017A00043F48052C6E8E02F0028F7D1DA0468D469
:1017B0004B0702D5E369002B66D0354BC5F80833DB
:1017C0000823C5F800350023C5F81031D5F81021DD
:1017D000C5F84C31D5F84C21C5F844310A03D5F889
:1017E00044318B0303F4804302F400524903134352
:1017F00001F400410B43D6E8EF2F1A43C6E8E12F6E
:101800000029F8D1E368C3B9A3687BB9236DD80474
:1018100035D5D6E8EF3F23F47F0323F47043C6E8C1
:10182000E23F002AF5D16FF00B00F8BD03213846E6
:1018300000F0EDFAE368002BE8D0D5F8043359073F
:1018400010D5A36873B1236D1A030BD5D6E8EF3F0B
:1018500023F40023C6E8E23F002AF7D106213846E8
:1018600000F0D5FA236DDB0409D5D5F84C310BB95E
:1018700001232B60A36813B1054BC5F80433002086
:10188000D3E76FF00F00D0E74FF0FF30CDE700BF98
:1018900010020A0072B6024A1368013313607047DF
:1018A0003C190020034A1368013B136003B962B678
:1018B000704700BF3C1900200722024BC3F80423E5
:1018C000704700BF00300050084BD3F80801D3F830
:1018D0000021003818BF012080000AB140F001004B
:1018E000D3F804310BB140F00200704700300050D3
:1018F0000022074BC3F80021D3F80011C3F80421DC
:10190000D3F80411C3F80821D3F80831704700BF99
:101910000030005000231720094A03F5C07101333D
:10192000202B42F82100F8D100231720044A03F5A8
:10193000E0710133202B42F82100F8D1704700BF3D
:101940000030005010B59DF80840C00B43EA042356
:10195000064CC90B43EA0213884200D910BDC2B23B
:1019600002F5C07244F822300130F5E70030005033
:1019700010B59DF8084000F1604043EA042301F1EE
:101980006041074C400B490B43EA0213884200D9DF
:1019900010BDC2B202F5E07244F822300130F5E722
:1019A00000300050C0F30E03C3F50043B3FA83F3D5
:1019B000C3F11B03064AC0F3C730DBB240F48070AA
:1019C00043F48073C2F80005C2F80435704700BFC5
:1019D000003000504303014818447047FF1FF81FB0
:1019E000054BC0F30730090241F0300100F50070EB
:1019F00043F82010704700BF00300050044BC0F384
:101A00000730090200F5007043F82010704700BF4E
:101A100000300050003A18BF0122003918BF0121E0
:101A200003688900074841EA4201186359605A680F
:101A300042F001025A60BFF34F8FBFF36F8F002057
:101A4000704700BF04AAFF0010B5FFF73DFF114C1F
:101A500016212060104800F098F92368D90703D5B3
:101A600012210E4800F091F923685A0708D5152174
:101A70000B4800F08AF90F2162680A4800F0B4FDB3
:101A800023689B0705D5BDE810401421064800F0E7
:101A90007CB910BD741F0020D63B0000EC3B000059
:101AA000FE3B0000133C0000223C00000C220149D8
:101AB00004F092BA741F002010B501F05CFE0446D9
:101AC00090B902F0F7FA044680B90A4A2E21D36889
:101AD000094823F008031B041B0C43F0BF6343F4C5
:101AE0000033D36000F051F9204610BD45F2235475
:101AF000FAE700BF00ED00E0363C0000024B186042
:101B0000024B002019607047841F0020801F0020B6
:101B10001FB5374C426923685A6282699A62C2696A
:101B2000DA62026A1A63426A5A63826A9A63C26A12
:101B3000DA63026B1A64426B5A60826B9A60C26B02
:101B4000DA60026C1A61426C5A61826C9A61C26CF2
:101B5000DA61026D1A62826D5A65C26D9A65026F12
:101B6000DA65026E1A66826E5A66426F9A66EFF303
:101B700088825A64EFF389829A644268DA64EFF3E8
:101B800094821A65026801A81A67FFF78FFF23681D
:101B9000019ADA6601221A70164B1C686408640008
:101BA0002046214622462346B7EE000AF7EE000AF9
:101BB000B7EE001AF7EE001AB7EE002AF7EE002A89
:101BC000B7EE003AF7EE003AB7EE004AF7EE004AF9
:101BD000B7EE005AF7EE005AB7EE006AF7EE006A69
:101BE000B7EE007AF7EE007A04F0DDFA04B010BD2B
:101BF000841F0020801F002000B5A1B001A8FEF7BF
:101C00001FFF029B63B15B060AD4019B23F0020312
:101C1000052B05D1044B1B6813B101A8FFF778FF12
:101C200021B05DF804FB00BF801F0020BFF34F8F81
:101C30000549064BCA6802F4E0621343CB60BFF368
:101C40004F8F00BFFDE700BF00ED00E00400FA0584
:101C5000F8B543680C2B01D00220F8BD4B68042B6B
:101C6000FAD14FF0FF3304680D6821682B6000291A
:101C7000F2D0A268002AEFD00623012001F0CDFCAB
:101C80000028E9D16168274B99420AD9A268264801
:101C90008B1883420ED8206804F09EF9002028603B
:101CA000DBE7224B9942D7D9A268093388189842BA
:101CB000D2D8F0E71E488142CED91E488342CBD805
:101CC0000A43930701D00320C7E72268891AA36853
:101CD0008E18002BE2D0EFF3108700F05CFCB8B157
:101CE000012F0BD1366800F056FC08B1BFF34F8FBF
:101CF000A36842F8046B043BA360E8E772B6366859
:101D000000F049FC0028F3D0BFF34F8F62B6EFE735
:101D1000366800F040FC0028EAD0BFF34F8F012F57
:101D2000E6D0F3E7FF01FF002C02FF002F01FF00C8
:101D30000781FF000084FF004FF47F03D3F83001D8
:101D4000BFF34F8FD3F83431BFF34F8FBFF34F8FB3
:101D5000C0F30B00A0F109035842584170474FF4FB
:101D60007F02D2F83031BFF34F8FD2F83401BFF386
:101D70004F8FBFF34F8FC3F30B03092B03D1431EC8
:101D800058425841704700207047FFF72BB8012098
:101D900070476FF003007047002070476FF003003A
:101DA000704700207047022814BF6FF00300002026
:101DB0007047FFF78DB970B540F2FF1501EB820255
:101DC000914200D170BD51F8044BC4F30803240EB6
:101DD000AB4208BF4FF0FF33032CF1D8DFE804F02B
:101DE000020406080360EBE74360E9E78360E7E786
:101DF000C360E5E70346D0F8580130B931B9D3F8EC
:101E00002001003818BF012070470120704730B50D
:101E100004460D4685B010220021684604F001F901
:101E2000D4E9001368468DF80050984705B030BDDE
:101E30007FB504460E46154600211022684604F080
:101E4000F0F8012368468DF80030CDE90165D4E94A
:101E50000013984704B070BD10B50446FFF71AFD93
:101E6000D4F8583133B1D4F8043313F4800308BFE5
:101E7000C4F80035BDE81040FFF714BDD0F8583164
:101E800033B1CB6CC3F30032DB0458BFC0F800257C
:101E900070472DE9F74F866804460D463EB113F0B2
:101EA000020604D0C36B002B00F095800126276D3D
:101EB00017F0100740F08F804FF00109AB18019325
:101EC000019BAB4200F0898005F060439B46E26BCA
:101ED000D4F8008082B9BBF1005F40F08780924661
:101EE000FFF7D8FC216D404601F00101FFF782FFAA
:101EF00028B9FFF7D7FCEAE74FF0010AF0E7A26C38
:101F0000AB46002ABCBFD8F84C25A264BAF1000F3A
:101F100007D0D4E90F1228788854D4E90F2102EBB6
:101F2000010BBBF1000F03D0C8F844B5C8F84895C1
:101F30000023C8F82031D8F82011C8F85831D8F853
:101F40005811C8F85031D8F850110821C8F80015B8
:101F5000BEB14FF48002C8F80423C8F80890FFF718
:101F6000A1FCA368002B3FD1236D1B073CD5503447
:101F7000D4E8EF3F23F00803C4E8E23F002A2AD068
:101F8000F6E7C8F80890FFF78DFC216D01F001011C
:101F90004046FFF72FFF0246D8F84C05D8F84435E5
:101FA0005AB99B45F4D004F1040AD1B1FFF772FC91
:101FB00051464046FFF762FFD1E79B4504F1040A12
:101FC000F3D10028F1D1FFF765FC51464046FFF7F9
:101FD00055FFFFF767FC4FF0FF37384603B0BDE809
:101FE000F08FC8F80C90E1E7013569E76FF015074D
:101FF000F3E770B5CE6C0D4606F001010446FFF71D
:10200000F9FE38B94FF4800346F00406EE64C4F8D4
:10201000043370BDD5E90A365AB1296CEA6B761AD9
:10202000964228BF164619443246A86B03F0D4FFE7
:10203000AB6B4FF0FF326A641BB1C4F84435C4F88F
:1020400048650023C4F82031D4F82021C4F8583161
:10205000D4F85821C4F85031D4F850310823C4F8CA
:1020600000354FF48003C4F804330123A360D0E7A4
:1020700037B590F84C3004463BB3036B4BBB02685A
:10208000C2F8003583680BB10B6943602046FFF747
:1020900031F90822002324688DF80730C4F80025A0
:1020A0000DF10702C4F84425C4F8483501230A2578
:1020B000A360E360D4F8583173B90120FFF7CCF87E
:1020C000013DF7D16FF08B0001E06FF0760003B0B7
:1020D00030BD6FF00F00FAE70020C4F82001D4F8FB
:1020E0002031C4F80005F2E790F84C00003818BF22
:1020F000012070472DE9F04704460D4698461646E4
:10210000D0F80090002A68D087685FB953B9076B90
:10211000002F65D10263FFF7BCFE05462763284602
:10212000BDE8F08718F0030F07D043463246294632
:102130002046BDE8F047FFF7ACBE05F06043B3F1C1
:10214000005F07D0E36B13B118F0040F14D06FF0E9
:102150000C05E4E7236DDB0702D518F0040F42D12C
:10216000FFF798FB226B9AB9C4E90B564846211D2C
:10217000FFF73FFF002527E0FFF78CFB236B3BB900
:10218000236D012243F00203C4E90B562365EDE7FA
:10219000A36BE3B918F0040F19D0E36A03F06043AE
:1021A000B3F1005F16D1236DC4E90D5643F010035F
:1021B00023650A24D9F85031C3B90120FFF74CF840
:1021C000013CF7D16FF08B05FFF76CFBA7E76FF0D1
:1021D0000F05F9E74FF0FF35F6E76FF006059EE7CC
:1021E0006FF00F059BE74FF0FF3598E70023C9F824
:1021F0005031D9F85031002DBCD0C9F84455C9F838
:102200004865B7E7F8B50468036BD4F8046305467E
:10221000C4F8086323B96FF07600C4F80463F8BD0E
:1022200000F15003D3E8EF0F40F00800C3E8E20FDD
:10223000002AF7D10123E36001B3296D01EA030706
:1022400039462046FFF7D6FD0028FAD0FFF722FBDB
:10225000C7B9D4F820314BB10123E360D4F8583129
:10226000002BFBD02046291DFFF708FEFFF71AFBC5
:102270000023C4F82031D4F820212B630020C4F8B7
:102280000463CCE7D4F85831002BEBD1EEE72DE90D
:10229000F84F0568036DD5F804A313F480280446AD
:1022A0000F461646C5F808A340F0928001F0604240
:1022B000B2F1005F40F08F80C26852B18268002A9C
:1022C00075D1D5F81021002A71D0C5F81081D5F844
:1022D0001031226AC4E90376002A47D09642E169A8
:1022E00033D84FF0000932463846C4E9039903F069
:1022F00073FE226AE069921B2262811903F036FEA6
:10230000A368BBB1236D04F1040B990417D55034B5
:10231000D4E8EF3F43F48023C4E8E23F002AF7D13A
:10232000324639465846FFF783FD4A465946284605
:10233000FEF760FF4046C5F804A3BDE8F88F3246BB
:1023400039465846FFF774FDF4E7384603F044FE7B
:10235000236AA3620023236204F15003D3E8EF1F32
:1023600041F40021C3E8E21F002AF7D1A16A2369E2
:10237000E2685B1A0A44C5F83425C5F83835236D80
:10238000DA04D7D55034D4E8EF3F23F48023C4E8EF
:10239000E23F002AF7D101232B60D5F84431002B0E
:1023A000C8D00023C5F84431D5F84431C2E762698A
:1023B000A2B95B04C4E90576C5F83475C5F838657B
:1023C000B8D5D5F8003243F02003C5F80032B1E7A4
:1023D0006FF07608AEE76FF00C08ABE76FF00F0810
:1023E000A8E7FFF75BB88368A3B90368D3F80025B3
:1023F000082A06D011B1D3F83C350B606FF0770096
:102400007047D3F8102142B111B1D3F83C350B60BD
:10241000002070474FF0FF3070476FF00F0070479B
:10242000C0037047C00300F5FF407F3070470020B5
:1024300070471F2070474FF40040704700F57F4001
:10244000C03040037047402070475F2070474FF412
:10245000005070474B6830B513F01F052DD102684E
:102460000C681068C0F30720844226D2506855607B
:1024700094600C7C23F01F0304F001041C438B7C4C
:10248000DB0003F018031C434B7C5B0003F00603E6
:102490002343D3608B68013B23F01F04CB685B00B0
:1024A00003F00E03234343F0010313615060BFF3B5
:1024B0004F8FBFF36F8F284630BD0120FCE70368C4
:1024C00000205A68C9B258609960D86018615A6093
:1024D000704770B50546002403681E68C6F30726DA
:1024E000B44201D1002070BD21462846FFF7E7FF26
:1024F0000134F5E70020704708B5FFF77DFB72B6A1
:1025000020BFFDE7034610B10020187070474AF263
:10251000C53070470020704770470346012B0846BE
:1025200070B5114607D0042B09D0002B31D1BDE87E
:102530007040FFF78DBBBDE8704000F03FB84368C6
:10254000082B01D0022070BD5468042CFAD14FF042
:10255000FF3305681668296833600029F2D06B687C
:10256000002BEFD026237422012001F056F800281A
:10257000E8D1224623230120696801F04EF8044681
:102580000028DFD1D5E90001FFF7B8FA3060204616
:10259000D9E70320D7E74FF47F03D3F83001BFF327
:1025A0004F8FD3F83431BFF34F8FBFF34F8FC0F34A
:1025B0000B00A0F1090358425841704743680C2BA7
:1025C00001D0022070474B68042BFAD10B6801211F
:1025D0000268196011680131F3D102219068196015
:1025E0000028EED11860704730B50C46154685B00E
:1025F00038B139B1FFF7C9FB041E03DA204605B034
:1026000030BD044640F60D23ADF80E3009230B49CA
:1026100001A805F00F028A5C2D091A54013B012B19
:10262000F7D147F630030C21ADF80430FFF7ADFBCE
:102630000028B4BF04462418E0E700BF643C000053
:1026400007B5214B83F30A88204801F07FF848B191
:1026500000F096FE00F028FC00F0E6F8002003B041
:102660005DF804FBFFF728FA0028F1D12321184870
:10267000FFF78BFBFFF73EFF0028E9D10DF10700C4
:10268000FFF740FF0028E3D19DF807301BB1FFF7AB
:1026900041FF0028DCD1FFF73FFF00F019FC352196
:1026A0000C48FFF772FB01221A210B48FFF79CFF31
:1026B00017210A48FFF769FB18210948FFF765FB56
:1026C00000F0FAFDC6E700BF00040020401900201A
:1026D000743C0000973C0000CC3C0000E63C00004D
:1026E000FD3C000030B5094C0246616800230846F5
:1026F00040B105686D68954205D11BB18268606084
:102700009A60816030BD03468068F1E7C4190020FB
:1027100038B504462AB10B689B68DB0512D500204A
:1027200038BD0B4B1D680DB900F02AFE00222B6846
:10273000996934338A4203D053F8040FA04204D17C
:102740009142ECD16FF0FC00EAE70132F2E700BF02
:10275000CC19002070B504460E46154600213022E3
:102760000C3003F05EFC064B20461B68A6606360DD
:10277000656100F0F1FE00232061236070BD00BFA1
:10278000CC190020034B186810B1006800B14068F4
:10279000704700BFCC190020064B10B51C680CB95F
:1027A00000F0EEFD23689B6813F4406F14BF012016
:1027B000002010BDCC1900202DE9F04107469046BD
:1027C0000C4621B96FF080042046BDE8F0814B0033
:1027D000F8D5144B01F01F0253F82250002DF1D010
:1027E0002B685E68FFF7D8FF294602463046FFF7A0
:1027F0008FFF88B9C4F30721284600F0C3FD0446C3
:102800000028DFD100F0B5FE064640B14246294619
:10281000FFF7A0FF3E60D7E76FF08104D4E76FF0C9
:102820008204D1E7441900202DE9F04100F0A0FE18
:102830000023144E144F73607B6000F0F1FADFF850
:102840004C80304600F024F80446A0B1394680237D
:10285000424600F0ADF80546204600F0C9FD20686C
:10286000211D00F08BFB08B100F08AFD29462046AF
:1028700000F082FAE5E7FEF7E5FABDE8F04100F086
:1028800091BA00BFD0190020C419002044190020BB
:10289000F8B5054608B900F073FD404E346814F1F0
:1028A000310F78D83E4B196804F130038B4272D255
:1028B000E369A26903EB83030E321344226A02EB3D
:1028C00042021344626AC2EBC20213449B00E31843
:1028D00001D2994201D200F053FD2368314A1B0C0A
:1028E0001B04934201D000F04BFD2388B3F5817F98
:1028F00001D300F045FD6368002B01DA00F040FDD4
:10290000D4E90A239A4201DD00F03AFDA36813F4EA
:10291000406F22D1244A176807F120031360234A2D
:102920001268934201D900F02BFDE369A26903EB21
:1029300083030E321344226A3C6002EB42021344CA
:10294000626AC2EBC2021344326802EB83026B6814
:102950003260FB616F603846F8BDA26A002A04DA73
:10296000E36A002B01DA9A4201DD00F009FD6F688D
:10297000002FCFD03B689A6812F4406F09D0E16A0B
:102980009A6A914205DBA26ADB6A9A4201DC00F096
:10299000F7FCFF69ECE70027DDE700BF241100200A
:1029A000203D000000005F5F201100201C3D000062
:1029B0002DE9F74F0F4690460646009300B109B93E
:1029C00000F0DEFCD6F800A0DAF818200AF138038F
:1029D00003EB820BDAF81C40204B1D6854B10C222B
:1029E00002FB04541C601E4B1B689C4201D900F082
:1029F000C7FC2C4625464FF00009DAF81C204A4552
:102A000000D91CB9002003B0BDE8F08F142303FBEC
:102A100009B20023C5E900269268AB60930516D57C
:102A2000B8F1000F02D0009B802B03D0019200F080
:102A3000A7FC019A12F0E00FD0B202D158F8202082
:102A40001AB1019000F09CFC019848F820507A6877
:102A500009F10109AA607D600C35CEE71C11002048
:102A6000183D00002DE9F04F93B000935E4B0746F0
:102A7000D3F800B00BB2002B0D461646C1F3026925
:102A8000C1F3024A04DA6FF0800013B0BDE8F08FA2
:102A90008B42C36001D10020F7E709EB0A03042B46
:102AA000F1D8CC0F64014FEAC90831464246DBF841
:102AB000040044F0020300F0B0FD01460028E2D11A
:102AC000202202A803F0ADFA4246314602A84FEA9E
:102AD000CA0603F081FA32460099DBF8040044F09C
:102AE000060300F09AFD80460028CCD10146202242
:102AF0000AA803F096FA324600990AA802AE03F03B
:102B00006BFA334608F10108C14514D91A46C44688
:102B10000DE0D2F808E0D16818687144884203D209
:102B2000596808448645AED30CF1010C0832CC45F7
:102B3000EFD10833E6E715F0006F18BF202410220C
:102B4000002107F11C0003F06CFA07F118081022AD
:102B5000002107F12C0003F064FA08EB890944F026
:102B60000203C84512D1202C27D1002D02DBC5F36A
:102B7000C0456C0107F128050AAE05EB8A0A44F04E
:102B8000060455451BD1009BFB6784E77268DBF8A0
:102B9000040056F8081B019300F03FFD00287FF465
:102BA00072AF56F8042C019B48F8042F56F8082CF5
:102BB000C8F83000C8F82020D3E70024DAE77268AC
:102BC000234656F8081BDBF8040000F026FD002819
:102BD0007FF459AF56F8043C45F8043F56F8083CDA
:102BE00028642B63CDE700BFCC1900202DE9F0410C
:102BF0001F461A4B0D461646D3F8008000F0D4FB52
:102C0000044608B900F0BCFBE368002B01DA00F0D1
:102C1000B7FB032D01D900F0B3FB04EB8504E56994
:102C2000E36CED1A16D006233A463146D8F8040074
:102C300000F0F3FC08B100F0A3FBBD4228BF3D4605
:102C4000E36CE16B2A461944304603F0C5F9E36CA6
:102C50002B44E3642846BDE8F08100BFCC19002076
:102C60002DE9F0411D461A4B0F461646D3F8008059
:102C700000F09AFB044608B900F082FBE368002BE1
:102C800001DA00F07DFB032F01D900F079FB04EBA2
:102C90008704E36AE26E9B1AAB4201D200F070FB3C
:102CA00002232A463146D8F8040000F0B6FC08B1E9
:102CB00000F066FBE36EE06D2A463146184403F0EF
:102CC0008BF9E36E00202B44E366BDE8F08100BF82
:102CD000CC1900202DE9F04105464FF001080E4EB9
:102CE0000E4B37685C681CB928463760BDE8F08138
:102CF0002268936813F400700CD16369012B09D02A
:102D0000D368346023B19847002801DA00F038FB1B
:102D1000C4F81480E469E6E7CC190020D01900203B
:102D200070B50446D0B18368C3B11A68B2B15D68AA
:102D3000A5B10C4BA86168691D6020B92B68DB68E0
:102D40004BB901236B61A36804F10C001B68BDE85B
:102D500070401B69184798470028F2DA6FF080002E
:102D600070BD00BFCC1900204268024B08461A60B3
:102D7000704700BFCC1900200022036810B5C0E9DD
:102D800005229A68044612F4406F07D0120503D555
:102D9000D3E90A0100F034F8014B1C6010BD00BFFC
:102DA000CC19002038B5124B1B681C68A36813F4BB
:102DB000406F01D100F0E4FA00F0A0F9226B236922
:102DC0000C49134423F00703A3F1080543E902115A
:102DD00085F30988073222F0070282F30B88BFF3DC
:102DE0006F8F054BE268054900F0F6FC002038BD06
:102DF000CC190020A5EDF5FEF80B0020D52C000025
:102E0000014BC3E900017047D8190020034BD3E9F7
:102E100000308342C8BF0020704700BFD81900208F
:102E200008B500F05FF9034B986000F061F980F39A
:102E3000888808BD00ED02E0EFF308807146EFF3EB
:102E40000982EFF30B830CB406B400F055FA864602
:102E5000009900F0080001F00801401A02DC14DBC0
:102E600004B070472DED108A1EF020031CBF2DE921
:102E7000F00FBDF1080D0B4C254626462746A0460F
:102E8000A146A246A34630B4704704B030BC1EF041
:102E900020031CBF1DF1080DBDE8F00FBDEC108A2A
:102EA00004B07047A5EDF5FE084BDA6882F07F426A
:102EB00082F47F0242F48042DA6000221A765A7667
:102EC000DA76DA77602283F82220704700ED00E09E
:102ED000114BD3F8882042F47002C3F88820BFF366
:102EE0004F8FBFF36F8FD3F88C2042F44062C3F84A
:102EF0008C20D3F8342242F08042C3F83422D3F835
:102F0000342242F03C42C3F834224FF0E022D3682E
:102F100043F42003D360704700ED00E0009A164BA5
:102F20009A4227D101229043014641EC100B41EC1B
:102F3000110B41EC120B41EC130B41EC140B41EC67
:102F4000150B41EC160B41EC170BEFF3148222F03A
:102F5000040282F31488BFF36F8F024603460446CF
:102F60000546064607468046814682468346844695
:102F700086460447FEE70000A5EDF5FE2DE9F04189
:102F8000044618B943F6DA30BDE8F0810029F9D0DB
:102F90008368002513F4406F14BF01230023134FEF
:102FA00043F00203DFF848800B6000F13806236A23
:102FB000AB4201D80020E7E71421A369E26906EBE0
:102FC000830301FB02330C226A43991889680907BD
:102FD00009D59B58BB4201D04345D3D1186810B1E5
:102FE0000121FEF7FDFC0135E1E700BF34110020AF
:102FF0002C11002070B5324C86B03248FFF769FAC8
:10300000236801255A1C01932F4B2260DA681B6943
:103010004FF44076039300232A4801A902920495B5
:10302000ADF814608DF81630FFF714FA18B143F6B6
:10303000DA3006B070BD23688DF816005A1C019373
:10304000224B20480293224B01A9CDE9033522608F
:10305000ADF81460FFF7FEF90028E8D123688DF879
:1030600016005A1C01931B4B164802931A4B01A9D8
:10307000CDE903352260ADF81460FFF7EBF90028C5
:10308000D5D123688DF816005A1C0193134B0D48B7
:103090000293134B01A903930223049340F20113FB
:1030A0002260ADF81430FFF7D5F904460028BED1F0
:1030B0002A4629460348FEF7ADFC2046B9E700BF83
:1030C000E019002028110020243D0000003E0000EF
:1030D000A06300006006000060060000000C0020F5
:1030E000200C0020014B1868704700BF243D0000F1
:1030F000014B1B6818687047243D0000014B1B689A
:1031000058687047243D000008B5FEF79DFCFEF7A7
:10311000EFFB0A4B5A68103AD3B2120609D40121C8
:103120005A0903F01F03994002F16003044A42F870
:103130002310BDE8084000F023B900BF00ED00E017
:1031400000E100E00020034BD8765A6A42F4702276
:103150005A62704700ED00E00349044BCA68002042
:1031600092B21343CB60704700ED00E00800FA050F
:10317000064BD3F8D02022F00102C3F8D020D3F8B8
:10318000D02042F00202C3F8D020704700ED00E0EA
:1031900037B50124FEF7BEFB164D2246052347F640
:1031A000FF7100200094FEF7CDFB224607234FF06D
:1031B000005011490094FEF7DBFBD5E9010107231C
:1031C00000220094FEF7BEFB072300220B490C48A7
:1031D0000094FEF7CDFB2969E8680139FEF7E2FBB0
:1031E000D5E90501062300220094FEF7ABFB002081
:1031F00003B030BD243D0000FF7F0020FFFF03200F
:103200000080002038B50024124D002155F8040B31
:103210000134FEF7F3FB1D2CF7D1002001220E4BE9
:10322000C3F88004C3F88424C3F8C004C3F8C424DA
:103230004FF47F03D3F83021BFF34F8FD3F83431ED
:10324000BFF34F8FBFF34F8F40F20112034BC3F810
:10325000402538BD403D0000003000500090035034
:1032600000224FF0FF300D4B02F1A0010132102A75
:1032700043F82100F8D1D3F88022002022F0080280
:10328000C3F88022D3F88022D3F8802222F48072FF
:10329000C3F88022D3F88032704700BF00E100E01D
:1032A00008B5FEF709FB0822024BC3F880211A601B
:1032B000002008BD00E100E00122014B1A607047C8
:1032C000E419002010B50446094B2289186861688A
:1032D0000623406800F0A1F928B9064B1B68012BB2
:1032E00001D1FFF74FFA6FF08603236010BD00BFD6
:1032F000CC190020E419002001F00C0370B50C2B50
:103300000CBF154605464A060C461ED58B0658BF0F
:103310002835AB6913F8026C84F00803C3F3C003CB
:10332000C6F38012934201D000F02AF816F0A00FE5
:103330001CD176B1032E15D032461C210D48FFF763
:1033400053F96FF083032B600AE000F019F8202690
:10335000E2E7FFF769FA04460146074800F036FA4B
:10336000204670BD2846FFF7ADFFF9E732461F2122
:103370000248E4E7B43D0000F80B0020D03D000017
:10338000FFF7BAB803689A68DB6812F4806F05D15A
:103390008B422CBF00206FF0FA0070478B420CBFAD
:1033A00000206FF0FA00704710B500F0D8F804461E
:1033B00000F0E6F850B9FFF7E5F9A3685B681B6811
:1033C0005B68834218BF0024204610BD0024FBE741
:1033D00038B5054648B1FFF719FDB5EBD07F044677
:1033E00001D0FFF7CDFF204638BDFFF7CBF9F4E75A
:1033F00070478230012808B506D8FFF7CDF918B913
:10340000BDE80840FFF7BCBF08BDF8B505460E464D
:10341000FFF7CAFF044608B9FFF7B2FFA7680FB964
:10342000FFF7AEFFE368991C4BD05A1C26D1002E43
:1034300044D016F1820F19D1022301252360EFF346
:10344000108772B631462046FFF78EFC064687F39A
:1034500010882368022B1CBF0023236025B10023A2
:103460002046236000F08EF83046F8BD16F1830F39
:10347000E2D0FFF785FF00250026E0E7002BF8DB10
:10348000002304F1280252F8041F19B1E16F106CF7
:10349000194448600833202BF5D13B689D6815F42A
:1034A000007502D002230125236016F1810FC6D1D9
:1034B0006369002BC3DBFFF763FFC0E72E460025DF
:1034C000F3E70125D8E708B5FFF716F86FF083009A
:1034D00008BD2DE9F3410E46174698460546FFF70D
:1034E0005BF9FFF775FF2946024601A8FFF764F96B
:1034F000044660B943463A4631460198FFF7B2FAAE
:10350000044640B16B0002D5019800F03BF820461C
:1035100002B0BDE8F0810198FFF702FC0122019B97
:1035200004461A60F3E740F20110704770B5054693
:10353000FFF732F906462846FFF7D4F8044608B9E3
:10354000002070BD014632462846FFF7E1F800280A
:10355000F6D12368D868F4E74FF480507047B0F58F
:10356000805F03D1EFF30B808038704700207047F5
:103570007047EFF30B8000F1800383F30B887047F3
:1035800000207047EFF30B83803B83F30B88704779
:1035900080EA0000E1EE100A00EE100A00EE900A48
:1035A00001EE100A01EE900A02EE100A02EE900AF5
:1035B00003EE100A03EE900A04EE100A04EE900ADD
:1035C00005EE100A05EE900A06EE100A06EE900AC5
:1035D00007EE100A07EE900A08EE100A08EE900AAD
:1035E00009EE100A09EE900A0AEE100A0AEE900A95
:1035F0000BEE100A0BEE900A0CEE100A0CEE900A7D
:103600000DEE100A0DEE900A0EEE100A0EEE900A64
:103610000FEE100A0FEE900A70472DE9F0410F46A9
:103620001546002A5BD0002900F08D8003F00602C9
:10363000062A57D09A0740F1868008249B0648BF87
:1036400044F01204860758BF44F00404C00709D5AB
:10365000EFF39483D9074CBF44F0040424F004042E
:1036600044F0120422462946384602F09DFBB0BBC6
:1036700047E800F205EB0708110E120208F1FF36C9
:1036800046E800F34FEA13605AD51B0258D588422A
:1036900056D047E800F546E800F6FEF7C8FE2D0EC6
:1036A00085424FEA166628D3FEF7C3FE864224D829
:1036B0002846FEF7B7FE2246C7F10101014438460D
:1036C00002F072FBE0B30135AE420DD83046FEF792
:1036D000A7FE2246A8EB000102F066FB80B30020A3
:1036E000BDE8F0810124A9E72846FEF799FE0746C8
:1036F000FEF7A1FE22460146E1E7FEF7A4FE854261
:103700001ED3FEF7A2FE86421AD82846FEF762F9BB
:103710002246C7F101010144384602F045FB78B169
:103720000135AE4203D83046FEF788FED1E7284681
:10373000FEF784FE0746FEF78AFE22460146EBE7C7
:103740006FF07F00CCE74CF2DA20C9E710B50446F1
:10375000FFF70EFDFFF71CFD10B143F6DA3010BD88
:10376000FFF750FD0028F8D1FFF744FC0028F4D102
:1037700002232360F3E708B5FFF7E4FC10B143F63A
:10378000DA3008BDFFF7E8FC0028F8D100F01CF89B
:103790000028F4D162B6FDF739FBFFF761FD002880
:1037A000EDD1FFF77DFD0028EBD0E8E7EFF30880CF
:1037B000EFF309812DE9F00F6B467246FDF746F9EC
:1037C00008B0FFF7A1FCFEE70020704704460D4655
:1037D000FFF7DEFEA546284783F3088896460222B7
:1037E000EFF31483134383F31488BFF36F8F0847F9
:1037F000000001464154414C204552524F523A205C
:1038000000486172644661756C740D0A004D656D07
:103810004D616E616765206661756C740D0A0042CA
:1038200075734661756C740D0A0055736167654662
:1038300061756C740D0A0053656375726546617538
:103840006C740D0A00526573657276656420457864
:1038500063657074696F6E2000506C6174666F727E
:103860006D2065787465726E616C20696E74657226
:103870007275707420284952516E293A20004865AB
:10388000726520697320736F6D6520636F6E746558
:10389000787420666F72207468652065786365703F
:1038A00074696F6E3A0D0A00202020204558435F4E
:1038B00052455455524E20284C52293A200020207F
:1038C0002020457863657074696F6E2063616D6553
:1038D0002066726F6D0020736563757265204657B0
:1038E00020696E00206E6F6E2D73656375726520A2
:1038F000465720696E0020746872656164206D6FA0
:1039000064652E0D0A002068616E646C6572206D1E
:103910006F64652E0D0A0020202020785053523A03
:103920002020202000202020204D53503A2020200D
:10393000202000202020205053503A2020202020FA
:1039400000202020204D53505F4E533A202000206D
:103950002020205053505F4E533A2020002020203A
:1039600020457863657074696F6E206672616D655D
:103970002061743A200020202020202020284E6F33
:103980007465207468617420746865206578636567
:103990007074696F6E206672616D65206D6179204B
:1039A000626520636F7272757074656420666F72F1
:1039B00020746869732074797065206F6620657261
:1039C000726F722E290D0A00202020202020202036
:1039D00052303A2020200020202020202020205279
:1039E000313A202020002020202020202020523288
:1039F0003A20202000202020202020202052333A6E
:103A00002020200020202020202020205231323A67
:103A100020200020202020202020204C523A20204E
:103A20002000202020202020202050433A20202049
:103A3000002020202020202020785053523A2000BF
:103A40002020202043616C6C65652073617665647D
:103A50002072656769737465722073746174653A66
:103A60000D0A00202020202020202052343A20203F
:103A70002000202020202020202052353A20202005
:103A800000202020202020202052363A2020200014
:103A9000202020202020202052373A2020200020E3
:103AA0002020202020202052383A202020002020D2
:103AB00020202020202052393A20202000202020C1
:103AC00020202020205231303A20200020202020A9
:103AD000202020205231313A202000202020204375
:103AE0004653523A20200020202020424653523A8A
:103AF00020200020202020424641523A2000202051
:103B00002020424641523A20204E6F742056616C6C
:103B100069640D0A00202020204D4D4653523A2062
:103B200000202020204D4D4641523A2000202020E8
:103B3000204D4D4641523A204E6F742056616C69BB
:103B4000640D0A0020202020554653523A202000C0
:103B500020202020484653523A20200020202020B8
:103B6000534653523A2020002020202053464152F1
:103B70003A200020202020534641523A204E6F74B4
:103B80002056616C69640D0A00000000690E000097
:103B90008F1D00008D11000045110000A71D0000C1
:103BA000B31D000059100000931D0000890E000095
:103BB000950E0000A10E0000991D00009D1D000043
:103BC000A31D0000190000001800000104020202F9
:103BD0000338FDD87047506C6174666F726D204574
:103BE0007863657074696F6E3A0D0A002020535037
:103BF000552E52414D4143434552520D0A0020205B
:103C00005350552E50455249504841434345525216
:103C10000D0A002054617267657420616464723A11
:103C2000200020205350552E464C415348414343D9
:103C30004552520D0A00416C6C2070696E73206809
:103C4000617665206265656E20636F6E6669677573
:103C5000726564206173206E6F6E2D73656375727B
:103C6000650D0A0030313233343536373839414248
:103C7000434445461B5B313B33346D426F6F74697F
:103C80006E672054462D4D2076322E322E322A2A4F
:103C90001B5B306D0D0A001B5B313B33346D5B5396
:103CA0006563205468726561645D20536563757255
:103CB0006520696D61676520696E697469616C6909
:103CC0007A696E67211B5B306D0D0A0054462D4DDD
:103CD0002069736F6C6174696F6E206C6576656CBA
:103CE0002069733A200054462D4D20466C6F617454
:103CF000204142493A20486172640D0A004C617AC1
:103D00007920737461636B696E6720656E61626CA4
:103D100065640D0A000000002C120020141200201F
:103D2000180200000080000000800000FF7F0F00EC
:103D3000007C00000080000000800F00FF9F0F004B
:103D400000400050005000500090005000A0005073
:103D500000B0005000E0005000F0005000000150A2
:103D600000100150004001500050015000700150FF
:103D70000080015000B0015000C0015000D001503F
:103D800000E0015000F0015000000250001002500D
:103D900000200250003002500040025000600250EB
:103DA0000080025000A00250009003500025845073
:103DB00000A00350556E6B6E6F776E2053504D20F0
:103DC000535643207265717565737465643A2000BB
:103DD000556E6B6E6F776E20535643206E756D6215
:0F3DE0006572207265717565737465643A2000B1
:103E0000009A074B9A4208D110B502F02DF902F042
:103E10002FF806BC96460C46744702F069F900007C
:103E2000A5EDF5FE009A074B9A4208D110B502F0B5
:103E300027F902F01DF806BC96460C46744702F0BE
:103E400057F90000A5EDF5FE0CB4029A084B9A4212
:103E50000CD14FF0004319430CBC10B500F04CF8E6
:103E600002F006F806BC96460C46744702F040F98C
:103E7000A5EDF5FE009A044B9A4202D10349086869
:103E8000744702F035F90000A5EDF5FE046200006C
:103E9000009A034B9A4200D1744702F029F90000BE
:103EA000A5EDF5FE38B5104C104DAC420BD3104CBF
:103EB000104DAC420FD301F04FFFBDE83840002158
:103EC0000846FEF7BDBBA268D4E90010920002F0DC
:103ED00083F80C34E9E76268002154F8080B92007B
:103EE00002F09FF8E5E700BF6006000084060000CE
:103EF000840600009C0600002DE9F84304460D46A8
:103F000016461F46EFF30583C3F308030BB1FFF713
:103F100037FADFF834903B46204632462946D9F836
:103F20000080FFF7D6FAD9F800300446984506D04D
:103F30009B6901461869BDE8F843FFF766BAFFF7C9
:103F400058FA2046BDE8F883CC190020014B1B68C5
:103F5000184700BF40110020014B18600020704737
:103F60003C110020074B0A465978022906D11978DE
:103F7000072903D10146181D02F0F4B86FF088003C
:103F8000704700BFE819002010B5124C237859077C
:103F900044BF23F00403237023789A0705D500F06B
:103FA00063F8237823F002032370637813B10A487F
:103FB00002F0E9F8002304210748637000F06EF86E
:103FC0002378DB0705D502F0CAF8237823F0010334
:103FD000237010BDE8190020EC19002038B51C4DE5
:103FE0006A782B78022A01D1072B12D0D80713D573
:103FF0002B78990707D400F02FF82B78044643F06C
:1040000002032B7088B96A782B788AB12B785A070B
:1040100019D50024204638BD02F09FF82B780446BD
:1040200043F001032B700028E2D0FFF7ADFFF1E76A
:10403000DB07EBD5074802F093F8022304466B70C8
:104040000028F2D1E2E743F004032B70E1E700BF60
:10405000E8190020EC1900200122024B002083F80F
:1040600080257047F01900202DE9F0410A4C002509
:1040700026464FF0010803272046C4F82080277702
:10408000013502F04DF8202D04F12C04F4D1002369
:1040900086F88035BDE8F081F019002010B50A4699
:1040A000044619B1024B00211B68984710BD00BFA0
:1040B0004411002010B50C4C236813B10B4B1B6846
:1040C0002BB900F089FC30B90122084B1A6001239A
:1040D0002360002010BD0138062801D9044810BD16
:1040E000044B53F8200010BD8C1F0020881F0020B7
:1040F000FE8FFFFF08620000144B2DE9F0430028FB
:1041000014BF04461C46124F236883B0BB4219D02B
:1041100016460D4620464FF4147104F1040900F0D0
:1041200047F804F58E78484600F0CEF8404600F097
:1041300019FA2B464A4640460649009600F034FBE1
:1041400008B92760002003B0BDE8F083901F00206D
:10415000A5BCC95A4D43000070B50D4C1D46002842
:1041600014BF064626460B4B306882B098420DD1EC
:1041700006F58E70002633460096144600F03EFB8E
:10418000002818BF34462C6002B070BD0248FBE71F
:10419000901F0020A5BCC95AE88FFFFF38B131B18C
:1041A000002201440346013081421A70FAD170475F
:1041B00038B131B1002201440346013088421A70FF
:1041C000FAD170472DE9F043202B1D46064688465C
:1041D00091468BB026D8DBB202AF8DF80480B04692
:1041E00058F8041B8DF8053021B9404601F038F924
:1041F000044640B9012302224046336001A901F080
:1042000043F9044638B138462021FFF7D1FF204654
:104210000BB0BDE8F0832A464946404601F034F928
:104220000446F0E702AF1946104600233A4601F073
:10423000B1FA04460028E6D12023B9461D46CCE752
:104240002DE9F041D0F8F830A6B0002BD8BF02AE6F
:1042500031DD05460027D0F80C4102AEA4F101087B
:104260009022D5F8FC403146D0F8000101AB01970F
:10427000B8FA88F8A0474FEA5818044620B9019BBD
:1042800053B9B8F1000F16D030469021FFF790FFD8
:10429000204626B0BDE8F081014632462846FFF7A9
:1042A00091FF58B9D5F80431019A1344C5F8043187
:1042B000B8F1000FE8D16FF03C04E5E70446204672
:1042C00026B0BDE8F08100BF70B500250446142279
:1042D00004F588762946C0F8F850FC3001F0A1FEBC
:1042E00008222946304601F09CFE144B30461B68DC
:1042F0009847204640F8045B01F098F8104B304690
:104300001B689847C8B9D4F8F830AB420FDC03EB10
:10431000830204EB82022021C2F800010120C2E9DD
:10432000421008490133C2F8FC10C4F8F830064BBB
:104330003046BDE870401B68184770BD641100200E
:1043400060110020315300005C1100202DE9F0477E
:10435000202A88B07AD83F4B00F5887904461B683C
:1043600048461746884698470546F8B940F2011670
:10437000D4F8F830002B65D02046FFF761FF0546E2
:1043800038B9D4F8F830002B14DC013EF2D16FF0CC
:104390003B056E4620213046FFF70AFF2E4B48466C
:1043A0001B689847002818BF6FF01D05284608B005
:1043B000BDE8F087D4E94132934203D3D4F80C210D
:1043C000012A02D0013ED7D1E1E71F2BFAD96E4670
:1043D00001462022304604F1040A01F022FE314653
:1043E000504601F07BF805460028D3D1504601F035
:1043F00031F8504601F01AF82946504601F030F8DD
:1044000005460028C6D150462022314601F03CF82E
:1044100005460028BED1034632462021304601F031
:10442000B9F905460028B5D1D4F8F8303A46002B42
:10443000C8BF002340463146C8BFC4F8043101F06C
:10444000CBFDA7E76FF03F056E46A3E76FF03B0596
:10445000ACE700BF601100205C11002070B590B087
:1044600000287AD03E4C0D46402236210646204692
:1044700001F0D7FD40225C21A01801F0D2FD2B1DD8
:10448000A34203D904F144039D4252D32B6822680E
:10449000534023602B68226C534023646B6862682E
:1044A000534063606B68626C53406364AB68A2689E
:1044B0005340A360AB68A26C5340A364EB68E2680E
:1044C0005340E360EB68E26C5340E3642B6922697C
:1044D00053402361226D2B695340236562696B69E8
:1044E000534063616B69626D53406365AB69A26958
:1044F0005340A361AB69A26D5340A365EB69E269C8
:104500005340E361EB69E26D5340E36500213046BF
:1045100000F0A6FF044628B940223046104900F0BA
:10452000B3FF044640216846FFF742FE204610B024
:1045300070BD631E04F13F01013D1F3415F8010FEA
:1045400013F8012F42401A7011F8012F2878A34266
:1045500082EA00020A70F1D1D8E76FF07304E5E750
:10456000E021002010B54FF49A720021044601F0BA
:1045700058FD42F21072044BC4F8202104F59670E5
:104580001B68BDE810401847641100202DE9F04F6A
:1045900004468846914695B0002900F0A780002A7D
:1045A0000CBF0126022600238DF80C30002C00F0F1
:1045B0009F80DFF844A104AF0AF1400B00212046A0
:1045C00000F04EFF034648B1384620210193FFF723
:1045D000EFFD019B184615B0BDE8F08F4022514613
:1045E000204600F051FF03460028EDD104F1F40508
:1045F00020222946204600F047FF03460028E3D149
:104600000122204603A900F03FFF03460028DBD12A
:10461000022E62D020460CA900F060FF034600285D
:10462000D2D10146204600F01BFF03460028CBD123
:1046300040225946204600F027FF03460028C3D1F8
:10464000202220460CA900F01FFF03460028BBD102
:104650003946204600F042FF03460028B4D13946CF
:104660002046FFF7FBFE03460028ADD12022294655
:10467000204600F009FF03460028A5D120460CA9DA
:1046800000F02CFF034600289ED10146204600F092
:10469000E7FE0346002897D140225946204600F005
:1046A000F3FE034600288FD1202220460CA900F0FB
:1046B000EBFE0346002887D12946204600F00EFF76
:1046C0000346002880D19DF80C200132D2B2B242BC
:1046D0008DF80C20FFF472AF76E74A46414620463B
:1046E00000F0D2FE0346002894D06DE701265AE779
:1046F0006FF0730304AF67E7E02100202DE9F0417C
:104700000446884615461F46D0F81801E0B013B19C
:1047100000EB40004008B5F5807F3ED82844B0F556
:10472000C07F3AD84FF4C0720021684601F079FC8E
:104730006946D4F82431D4F81821D4F828019847D0
:1047400070BBD4F8186157B1D4E9493072080DEB49
:104750000601984720BBD4F8183106EB5306B8F190
:10476000000F00D08DB9324669462046FFF70EFF94
:10477000054610B90123C4F8143131466846FFF7E5
:1047800017FD284660B0BDE8F0810DEB06004146FC
:104790002A462E4401F020FCE5E76FF00405F0E71F
:1047A0006FF00805EDE700BF2DE9F047044604F17E
:1047B000F4050F4691461E46DDF8208000F036FED7
:1047C00029462046FFF74AFE08B1BDE8F087284693
:1047D0002022012101F025FCD4F81831C4F82471FD
:1047E000C4F8289113B92023C4F818314246314641
:1047F0002046BDE8F0470123FFF780BFB2F5806F88
:1048000000F295802DE9F04F89B09A46129BB3F5DE
:10481000807F00F29080D0F82431164604460F467F
:104820004BB3D0F81C31012B05D0D0F81421D0F8AF
:1048300020319A421FDD514600232046129AFFF78D
:104840005DFF014698B900231293002E5ED0DFF879
:10485000EC9009F1400B0021204600F001FE202ED3
:104860003546014628BF202504F1F40890B10846DA
:1048700009B0BDE8F08FBAF1000FE6D0129B002B13
:10488000E1D051461A462046FFF780FE0146002837
:10489000DBD0ECE749464022204600F0F5FD01461A
:1048A0000028E4D141462022204600F0EDFD0146DB
:1048B0000028DCD16946204600F010FE01460028A1
:1048C000D5D1204600F0CCFD01460028CFD1594675
:1048D0004022204600F0D8FD01460028C7D1694695
:1048E0002022204600F0D0FD01460028BFD14146DD
:1048F000204600F0F3FD01460028B8D138462A468C
:10490000414601F069FB761B2F44A4D15146204655
:10491000129AFFF73BFE01460028A8D10846D4F8BA
:1049200014310133C4F8143109B0BDE8F08F6FF0D1
:104930000201084670476FF0040198E7E02100206B
:10494000002130B58DB0282202A8019101F069FB49
:1049500002A800F047FF044610B120460DB030BD5C
:10496000174D4FF0FF31286800F042F9044620B19E
:10497000144800F0D3F9012C18D0002000F068F999
:10498000D0B9114A02A901A800F0C4FC04460120D4
:1049900000F05EF960B9286800F032F90028DCD038
:1049A0000A4800F0BBF920460DB030BD0524F2E7FF
:1049B000074800F0B3F9EEE7064800F0AFF9E0E78A
:1049C0004811002024620000602200207C62000068
:1049D0005C6200003C62000030B583B000F05CF81F
:1049E00028B100F0ABF80324204603B030BD00F03E
:1049F00077F8D8B900F02CF9E0B9224CD4F828396E
:104A00001B0EF02B0AD1D4F8242A1F4B9A4231D026
:104A100000F044F8072400F091F8E5E7062400F0E0
:104A20003DF800F08BF8204603B030BD042420464A
:104A300003B030BD00F032F800F080F8FFF780FFDF
:104A4000044698B9114D2B68002BCDD10246014682
:104A5000FFF752FB50B968220D4901ABFFF77CFB11
:104A600020B920460B4B2B6003B030BD05242046F7
:104A700003B030BD012000F0EBF80028DAD1C4F813
:104A80000C0ADBE7001084500000E02080240020A6
:104A9000842400205AEA5A5A0020704700207047A8
:104AA000430504D54FF0FF32034BC3F80821024BF6
:104AB000C3F8080A704700BF00108450014BC3F8C8
:104AC000040A70470010845008B100F06BB84FF42E
:104AD0007500704708B100F04FB84FF4750070478B
:104AE00010B5114800F070F800B110BD0F4800F08B
:104AF0006BF80028F9D10E4C204600F065F800282C
:104B0000F3D10C4B0C481C6000F05EF80146002805
:104B1000EBD100F02DF8044608B1204610BD00F09E
:104B200079F82046FAE700BF581100205411002000
:104B300050110020481100204C11002008B50848F1
:104B400000F04CF8074800F049F8074800F046F834
:104B5000064800F043F8BDE8084000F00BB800BF7D
:104B60005811002054110020501100204C11002039
:104B700000207047704700BF024610B4084CD4F8BC
:104B8000003A1342FBD021B1D4F804310B60C4F8D1
:104B90000831034B0020C3F8082A5DF8044B704726
:104BA00000108450044AD2F8003A1842FBD0C2F8F0
:104BB000080A0020704700BF0010845001F0D6B9E9
:104BC0000A46002101F02DBA08B5034B02681B68A4
:104BD00010689847002008BD8411002008B5034BD9
:104BE00002685B6810689847002008BD84110020A7
:104BF000024B02689B681068184700BF84110020B0
:104C000008B5034B0268DB6810689847002008BDB0
:104C10008411002070B5094C094D2069AB68984794
:104C200018B1084B08485B6898470021074AEB68B1
:104C300011602069BDE87040184700BF7011002066
:104C4000841100206811002094620000EC240020F0
:104C5000F8B51A4D1A4E0446B26828699047E8B96B
:104C6000184F3B684CB1A3B1012B19D0013B3B60FD
:104C70002869F36898470020F8BD43B90121124A1A
:104C8000C2F800151149D1F81029002AFBD10133CF
:104C90003B60F368286998470020F8BD0C48F8BDD0
:104CA0000A4AD2F81039002BFBD1074A6FF07E4038
:104CB000C2F80035FFF702FF3B68D7E7701100200C
:104CC00084110020EC240020000084500010845047
:104CD000E98FFFFF014B1B68184700BF84110020BC
:104CE000014B9B68184700BF84110020014BDB6813
:104CF000184700BF84110020BFF34F8F0549064BB2
:104D0000CA6802F4E0621343CB60BFF34F8F00BF69
:104D1000FDE700BF00ED00E00400FA0530B44FF0FD
:104D2000FE320025074B084C08494968C3F80024A7
:104D3000C3F80424C3F80824C3F80C24C4F80055AD
:104D400030BC0847001084500000845068110020D7
:104D500010B5044650B1636813F0685F05D0064A89
:104D6000934202D000236260236010BD034B0448CD
:104D70005B689847EFE700BF2C5F5CA968110020D3
:104D8000B4620000C8B143680D4A934213D013F0D7
:104D9000685F0ED0012350E8002F194640E8001C40
:104DA0009CF0000FF7D1012AF5D0BFF35F8F0020F0
:104DB000704704487047044870476FF4E0407047FC
:104DC0002C5F5CA9E98FFFFFEA8FFFFF034680B1EC
:104DD000426809498A420AD012F0685F05D0BFF3E1
:104DE0005F8F002210461A607047044870470448DD
:104DF00070476FF4E04070472C5F5CA9E98FFFFFBC
:104E0000EA8FFFFF10B5044620B10023034A236058
:104E1000626010BD0248FFF781FFF6E73A00003AF2
:104E2000DC6200002DE9F047002878D00C4600290C
:104E300075D01D46002B72D007461AB101220023FF
:104E40002A6003602B68002B64D02946204600F0BE
:104E5000B7FD804600285FD12146286800F096FD06
:104E60008046002858D12B68082B6CD0042B6DD0BD
:104E7000A3F10209B9FA89F94FEA59190121354E0E
:104E8000C6F8C411C6F84011C6F8C411636AC6F862
:104E90003031D6F830219342F6D14FF0000A4FF06E
:104EA000FF30C6F82CA1FFF7FBFD6FF01B03504647
:104EB000C6F80031FFF702FEC6F80C91D6F8040AD6
:104EC00040F48060FFF7FAFD0A23C6F83831089BEA
:104ED000012B29D02369204AA2FB03231B09626A04
:104EE000404602FB03F303EB43031A4ADB039B092F
:104EF000C2F8D8310123C2F82C313B682A6823F06C
:104F00007F4343EA02633B602A6843EA02233B6033
:104F1000BDE8F087DFF844804046BDE8F087DFF861
:104F200040804046BDE8F0874FF47F03D3F80C2C57
:104F3000013206D0D3F80C3C074AA2FB03231B091D
:104F4000CDE71623CBE74FF0030997E74FF00209AF
:104F500094E700BF00108450ABAAAAAA310CF1005C
:104F6000350CF10058B34B1EB3F5047F27D230B592
:104F70004FF0000ECD00744671464B0901F01F0C36
:104F800050F82330BCF11F0F23FA0CF306D003F0C6
:104F9000010319B901211C468E46EEE79C4201F13E
:104FA000010106D01C464FF0010EA942E5D10020B8
:104FB00030BD0EF1010E9645F7D1024830BD0148D3
:104FC000704700BF360CF100C0B32DE9F0434C1E12
:104FD000B4F5047F1DD2E3B1DAB100252E46A84610
:104FE0002C46CF0003F1FF394FEA541C04F01F0E8A
:104FF00050F82C10BEF11F0F21FA0EFC0CD00CF053
:10500000010C4CB90126E04634463546ECE79642A1
:1050100016D90C48BDE8F083AB420BD0C44508BF9D
:105020000136A945F3D001350134BC42DCD1002062
:10503000BDE8F0830125E0462E46F5E701487047BC
:105040001D46F1E7370CF1002DE9F04F91B0834692
:10505000DDE91B460D46002E6ED10F691C60002352
:105060001A990B60002A00F02F819D4B6A6AD3F8D1
:105070003811D3F830319A4269D10A2967D19BF8A7
:105080000330089304F10803079304230593954B19
:10509000934CA3FB07239B0803EB4303A7EB4303BA
:1050A000039306971A9B069E1E60002E00F0EA806E
:1050B00000F096FC00230993BBF1000F00F0D580AF
:1050C00098464FF0010ADDF81C90002D00F0CD80CD
:1050D000089B002B3DD0284608A900F071FC002851
:1050E00039D0814B984220D0089B082B00F0E480F7
:1050F00000225B000893294608AB58460092FFF750
:1051000091FE7A4B984200F0D38070B9DBF8002012
:10511000130A03F47F03134323F07F43CBF80030DB
:10512000059B013B0593BDD10020039000F058FC86
:10513000039811B0BDE8F08F4FF47F01D1F80C0C4B
:1051400001300CBF4FF40477D1F80C7C86E7684837
:10515000EBE76648C5E72946089800F017FC0028E9
:10516000BFD1089B082B00F0A980042B00F0A98078
:10517000A3F10203B3FA83F35B090493C4F8C4A157
:10518000C4F840A1C4F8C4A16B6AC4F83031D4F8A3
:1051900030219342F6D100234FF0FF30C4F82C3178
:1051A000FFF77EFC002318466FF01B03C4F80031A4
:1051B000FFF784FC049B4B4FC4F80C31D4F8040A6D
:1051C00040F48060FFF77AFC0A23C4F838312B6979
:1051D00009A8A7FB03236A6A1B0902FB03F303EB7D
:1051E0004303DB039B09C4F8D831C4F82CA1DBF8D6
:1051F0000030089923F07F420B0243EA0163134316
:10520000CBF8003000F0B2FB099B03F01A03034314
:105210007FF46AAFA7FB0637D4F81431B8EB970FC9
:105220000A93D4F818310B93D4F81C310C93D4F8AA
:1052300020310D93D4F824310E93D4F828310F93F4
:1052400001D1039B9BB9484618220AA9183EFFF7D3
:10525000B5FC09F1180908F101089EB100F0C0FB86
:1052600000230993002D7FF433AF224839E74846E5
:105270001A46F61A0AA9994408F10108FFF79EFC9C
:10528000002EEBD1069F079E6A6939463046FFF72C
:1052900069FEAA6940B94FF4806339463046FFF78A
:1052A00093FE00283FF440AF00231A9A136018E7DA
:1052B0002B6A002B3FF439AF0F4836E703230493E2
:1052C0005CE70223049359E70122294658460096D9
:1052D00008ABFFF7A7FD00283FF4D4AE25E700BFD9
:1052E00000108450ABAAAAAA020CF100310CF10004
:1052F000300CF100350CF100320CF10030B4DDE976
:10530000023402940024049DCDE9035430BCFFF71D
:105310009BBE00BF30B51546012487B005AB009396
:105320000022CDE9015404ABFFF78EFE07B030BD7B
:10533000F0B587B0002966D01E46002B63D0144616
:10534000002A60D0314F0D4638684FF0FF31FFF72B
:105350004FFC00284DD10020FFF77AFC002844D1F3
:105360002B4800F03FFAD8B101204FF0FF35FFF78E
:105370006FFC002835D14FF408712648FEF70EFF68
:1053800004212548FEF70AFF21482821FEF706FFE1
:105390003868FFF735FC00282FD1284607B0F0BD4C
:1053A0001C4A0346029205AA019204AA03900092A5
:1053B000174902461848FFF7A1FF03460028D3D13A
:1053C00028461D46059B22469C4228BF1A46049942
:1053D00032600831FFF7F2FB0120FFF739FC0028AB
:1053E000C9D00E48FFF79AFCC5E70D48FFF796FCB9
:1053F000B6E70C48FFF792FCADE70B48FFF78EFCD1
:10540000284607B0F0BD4FF0FF35C6E74811002031
:10541000042500202C250020002500205C620000CF
:105420003C620000246200000063000010B50446E6
:1054300028B12046BDE81040F421FFF7C1BB044865
:10544000FFF76CFC2046BDE81040F421FFF7B8BB25
:105450001863000010B1F421FEF7A0BE704700BF32
:1054600008B521B1012908D06FF0360008BD01212F
:1054700000F058F80028F7D108BD022100F052F8DA
:105480000028F9D0F0E700BF30B505468818B0F520
:10549000801F0B461446A1B001D8802A0CD9B3F561
:1054A000801F17D922461946284600F07DF8044689
:1054B00084B9204621B030BD6846FFF77FFB224605
:1054C0006946284600F070F8802104466846FFF7D8
:1054D00077FBEDE76FF03604EBE700BF70B5E8B19E
:1054E0000E46D9B1044600F031F80546B0B923683C
:1054F000012B0BD0022B01D0284670BD1C22304658
:1055000004F10801FFF75AFB284670BD20223046FF
:1055100004F10801FFF752FB284670BD6FF0360515
:10552000EAE700BF78B138B50D46F0210446FFF731
:1055300047FB402320462560E36500F091FA0038E0
:1055400018BF012038BD0120704700BFF0B5056EBF
:10555000A5B0044604AEE5B9002301270193304607
:105560006760294602AA009300F046FA10B10120B4
:1055700025B0F0BD2A46204602A900F099FA00287D
:10558000F5D1204600F0AAFB0028F0D1206625B016
:10559000F0BD802D2A46304628BF802204F16401E8
:1055A000FFF70CFB256ED7E7002800F0AE802DE951
:1055B000F04F1446A5B0002A3DD00F46002949D02F
:1055C000B2F5803F0546006E20D34FF6FF7805F117
:1055D000640AEB6D1A1AB2FBF3F103FB1122002AE5
:1055E00065D18342B9464FF6FF7672D0B6FBF3FB26
:1055F00003FB0BFBBBF1000F30D1002E45D1A4F50E
:105600007F44FF3CB4F5803F4744E2D2EA6D161A6E
:10561000B6FBF2F302FB1366A64228BF2646002E15
:1056200075D1824200F08D80B4FBF2F602FB06F6E3
:105630002EB9002C79D1002025B0BDE8F08F0023D1
:1056400031463846CDE9003302AA00F0D5F90028EA
:1056500000F09580012025B0BDE8F08F0023594669
:105660004846CDE9003302AA00F0C6F90028F1D17E
:105670005A46284602A900F01BFA0028EAD1A6EBF8
:105680000B06286ED944002EB9D01930494632464F
:1056900005EB8000FFF792FAA4F57F44286EFF3CEB
:1056A0003044B4F5803F4744286692D2AEE7424585
:1056B00028BF4246164639465044FFF77FFA286E07
:1056C000EB6D3044834207EB06092866A8EB06061B
:1056D0008CD1802B28BF802351461A4604A8FFF79F
:1056E0006DFA0023E96D02AACDE9003304A800F0A9
:1056F00083F90028AED12846EA6D02A900F0D8F956
:105700000028A7D1EB6D286670E70120704705F1EE
:105710006403394632461844FFF750FA286EEA6DA2
:105720003044A41B374428667BE72B6E224619338E
:1057300005EB83003946FFF741FA2B6E23442B66B5
:1057400079E7802A28BF802205F1640104A8FFF7C9
:1057500035FA0023E96D04A8CDE9003302AA00F070
:105760004BF900287FF476AF2846EA6D02A900F0D5
:105770009FF900287FF46EAFEA6D286654E7324641
:10578000284602A900F094F900287FF463AF37445B
:10579000A41B4EE7F8B51C460546114816460F46B1
:1057A000FFF744FE21460E48FFF75AFE044620B19B
:1057B0000B48FFF74FFE2046F8BD3A4629460848F9
:1057C000FFF762FE04460028F2D131460448FFF795
:1057D00085FE04460248FFF73DFE2046F8BD00BFA7
:1057E0004C2700201C2370B582B001A90546019307
:1057F00000F032F8044638B9019B1C2B07D0144C3A
:105800001C212846FFF7DCF9204602B070BDD5E91F
:105810000112131E18BF0123003918BF01210126F0
:1058200028689B00EA6843EA4103002818BF43F058
:105830000103EE612AB9C5E90834002BE4D1054C17
:10584000DEE7204643F00803C5E9083402B070BD26
:10585000370CF0000E0CF0000346002866D000293B
:1058600064D00A681C2A61D14FF47F023B49D2F808
:10587000100C88425CD0D2F8101C013158D0D2F8FC
:10588000101C4FF47F021960D2F8140C344988427E
:1058900060D0D2F8141C01315CD0D2F8141C4FF443
:1058A0007F025960D2F8181C11F5947F4FD0D2F8BE
:1058B000181C01314BD0D2F8181C4FF47F029960AC
:1058C000D2F81C0C274988423ED0D2F81C1C01316A
:1058D0003AD0D2F81C1C4FF47F02D960D2F8001CD9
:1058E00070312FD0D2F8001C01312BD0D2F8001C1F
:1058F0004FF47F021961D2F8041CAF3120D0D2F8E6
:10590000041C01311CD0D2F8041C4FF47F025961F1
:10591000D2F8080C144988420DD0D2F8081C013185
:1059200009D0D2F8082C00209A61704701207047F6
:1059300040F6FC01A5E740F2373200209A6170473B
:105940005121E2E79021D3E742F60411C3E740F684
:10595000D861B2E742F2D001A1E700BFFCF8FFFF37
:10596000D020FFFF0429FFFF37F3FFFF014608B5F2
:105970004FF48060FFF7AEF80022034BC3F8C82154
:10598000C3F82C2108BD00BF00108450013807283F
:1059900005D8DFE800F0100E040A040404060748E6
:1059A0007047CB6800204B6270478B6800204B62C9
:1059B00070474B68F6E70B68F4E700BF310CF10065
:1059C0000B6802E0082B0B6006D8026A13424FEA0C
:1059D0004303F7D00020704700487047310CF100B6
:1059E0000022044B4FF48060C3F82C21C3F8C4217B
:1059F000FFF756B800108450F0B5002483B0B0F122
:105A0000005F8DF8074025D38C468444BCF1804F5D
:105A100004461FD817461D4601220DF1070300F06A
:105A200097F90646B0B99DF80730099A3C603B717A
:105A300092B14DB10246089928460DF1070300F0D6
:105A400087F938B99DF807303046099A1560137107
:105A500003B0F0BD4FF47506304603B0F0BD00BF93
:105A6000D8B108B50368012B04D0022B0FD043B185
:105A70000B4808BD20220B490830FFF79FF8002093
:105A800008BD142208490830FFF798F8F7E72022EC
:105A900006490830FFF792F8F1E74FF473007047BA
:105AA0000100F30028630000686300004863000001
:105AB0002DE9F843002900F0F9800446002800F0A1
:105AC000F98003680F469046002B00F0C380013B2D
:105AD000012B00F2D7804FF0FF3178484FF00209D8
:105AE000FFF786F8002840F0BF800020FFF7B0F8ED
