:1080000008200220851C0200BF150300151C020079
:10801000151C0200151C0200151C0200151C020094
:10802000000000000000000000000000311E0200FF
:10803000151C020000000000991D0200151C020022
:108040008920020089200200892002008920020084
:108050008920020089200200892002008920020074
:108060008920020089200200892002008920020064
:108070008920020089200200892002008920020054
:108080008920020089200200892002008920020044
:108090008920020089200200892002008920020034
:1080A0008920020089200200892002008920020024
:1080B0008920020089200200892002008920020014
:1080C0008920020089200200892002008920020004
:1080D00089200200892002008920020089200200F4
:1080E00089200200892002008920020089200200E4
:1080F00089200200892002008920020089200200D4
:1081000089200200892002008920020089200200C3
:1081100089200200892002008920020089200200B3
:1081200089200200892002008920020089200200A3
:108130008920020089200200892002008920020093
:048140008920020090
:1081480081F0004102E000BF83F0004330B54FEA00
:1081580041044FEA430594EA050F08BF90EA020F6D
:108168001FBF54EA000C55EA020C7FEA645C7FEA00
:10817800655C00F0E2804FEA5454D4EB5555B8BF23
:108188006D420CDD2C4480EA020281EA030382EA94
:10819800000083EA010180EA020281EA0303362D26
:1081A80088BF30BD11F0004F4FEA01314FF4801CF9
:1081B8004CEA113102D0404261EB410113F0004F0B
:1081C8004FEA03334CEA133302D0524263EB4303C2
:1081D80094EA050F00F0A780A4F10104D5F1200E60
:1081E8000DDB02FA0EFC22FA05F2801841F10001BB
:1081F80003FA0EF2801843FA05F359410EE0A5F18F
:1082080020050EF1200E012A03FA0EFC28BF4CF0BF
:10821800020C43FA05F3C01851EBE37101F0004575
:1082280007D54FF0000EDCF1000C7EEB00006EEB82
:108238000101B1F5801F1BD3B1F5001F0CD349080C
:108248005FEA30004FEA3C0C04F101044FEA445263
:1082580012F5800F80F09A80BCF1004F08BF5FEAEA
:10826800500C50F1000041EB045141EA050130BDCA
:108278005FEA4C0C404141EB0101013C28BFB1F5DC
:10828800801FE9D291F0000F04BF01460020B1FA27
:1082980081F308BF2033A3F10B03B3F120020CDAFA
:1082A8000C3208DD02F1140CC2F10C0201FA0CF0D8
:1082B80021FA02F10CE002F11402D8BFC2F1200C3D
:1082C80001FA02F120FA0CFCDCBF41EA0C019040F3
:1082D800E41AA2BF01EB0451294330BD6FEA04043C
:1082E8001F3C1CDA0C340EDC04F11404C4F1200227
:1082F80020FA04F001FA02F340EA030021FA04F339
:1083080045EA030130BDC4F10C04C4F1200220FA8F
:1083180002F001FA04F340EA0300294630BD21FACD
:1083280004F0294630BD94F0000F83F4801306BF93
:1083380081F480110134013D4EE77FEA645C18BF87
:108348007FEA655C29D094EA050F08BF90EA020F1E
:1083580005D054EA000C04BF1946104630BD91EA16
:10836800030F1EBF0021002030BD5FEA545C05D119
:108378004000494128BF41F0004130BD14F5800458
:108388003CBF01F5801130BD01F0004545F0FE41CC
:1083980041F470014FF0000030BD7FEA645C1ABF01
:1083A800194610467FEA655C1CBF0B46024650EA38
:1083B800013406BF52EA033591EA030F41F4002164
:1083C80030BD00BF90F0000F04BF0021704730B5EA
:1083D8004FF4806404F132044FF000054FF00001BF
:1083E80050E700BF90F0000F04BF0021704730B580
:1083F8004FF4806404F1320410F0004548BF404255
:108408004FF000013EE700BF42004FEAE2014FEAA9
:1084180031014FEA02701FBF12F07F4393F07F4F84
:1084280081F06051704732F07F4208BF704793F087
:108438007F4F04BF41F40021704730B54FF460749A
:1084480001F0004521F000411CE700BF50EA01029D
:1084580008BF704730B54FF000050AE050EA010246
:1084680008BF704730B511F0004502D5404261EBB6
:1084780041014FF4806404F132045FEA915C3FF4F7
:10848800D8AE4FF003025FEADC0C18BF03325FEA94
:10849800DC0C18BF033202EBDC02C2F1200300FA45
:1084A80003FC20FA02F001FA03FE40EA0E0021FA6A
:1084B80002F11444BDE600BF70B54FF0FF0C4CF458
:1084C800E06C1CEA11541DBF1CEA135594EA0C0F0A
:1084D80095EA0C0F00F0DEF82C4481EA030621EA45
:1084E8004C5123EA4C5350EA013518BF52EA033580
:1084F80041F4801143F4801338D0A0FB02CE4FF032
:108508000005E1FB02E506F00042E0FB03E54FF061
:108518000006E1FB03569CF0000F18BF4EF0010E59
:10852800A4F1FF04B6F5007F64F5407404D25FEA55
:108538004E0E6D4146EB060642EAC62141EA555108
:108548004FEAC52040EA5E504FEACE2EB4F1FD0C4A
:1085580088BFBCF5E06F1ED8BEF1004F08BF5FEAC8
:10856800500E50F1000041EB045170BD06F000467A
:1085780046EA010140EA020081EA0301B4EB5C0427
:10858800C2BFD4EB0C0541EA045170BD41F480111F
:108598004FF0000E013C00F3AB8014F1360FDEBF44
:1085A800002001F0004170BDC4F10004203C35DA20
:1085B8000C341BDC04F11404C4F1200500FA05F3A3
:1085C80020FA04F001FA05F240EA020001F0004244
:1085D80021F0004110EBD37021FA04F642EB0601BA
:1085E8005EEA430E08BF20EAD37070BDC4F10C04E4
:1085F800C4F1200500FA04F320FA05F001FA04F2A8
:1086080040EA020001F0004110EBD37041F1000193
:108618005EEA430E08BF20EAD37070BDC4F120059E
:1086280000FA05F24EEA020E20FA04F301FA05F206
:1086380043EA020321FA04F001F0004121FA04F2AE
:1086480020EA020000EBD3705EEA430E08BF20EA7E
:10865800D37070BD94F0000F0FD101F000464000B8
:1086680041EB010111F4801F08BF013CF7D041EA3A
:10867800060195F0000F18BF704703F0004652003E
:1086880043EB030313F4801F08BF013DF7D043EA0F
:108698000603704794EA0C0F0CEA135518BF95EAC5
:1086A8000C0F0CD050EA410618BF52EA4306D1D14C
:1086B80081EA030101F000414FF0000070BD50EA6B
:1086C800410606BF1046194652EA430619D094EAF5
:1086D8000C0F02D150EA013613D195EA0C0F05D1DF
:1086E80052EA03361CBF104619460AD181EA030133
:1086F80001F0004141F0FE4141F470014FF00000EB
:1087080070BD41F0FE4141F4780170BD70B54FF085
:10871800FF0C4CF4E06C1CEA11541DBF1CEA135505
:1087280094EA0C0F95EA0C0F00F0A7F8A4EB0504E7
:1087380081EA030E52EA03354FEA013100F08880DE
:108748004FEA03334FF0805545EA131343EA1263A7
:108758004FEA022245EA111545EA10654FEA00265C
:108768000EF000419D4208BF964244F1FD0404F515
:10877800407402D25B084FEA3202B61A65EB030571
:108788005B084FEA32024FF480104FF4002CB6EB2E
:10879800020E75EB030E22BFB61A754640EA0C00AE
:1087A8005B084FEA3202B6EB020E75EB030E22BFEE
:1087B800B61A754640EA5C005B084FEA3202B6EB2F
:1087C800020E75EB030E22BFB61A754640EA9C00EE
:1087D8005B084FEA3202B6EB020E75EB030E22BFBE
:1087E800B61A754640EADC0055EA060E18D04FEA7C
:1087F800051545EA16754FEA06164FEAC30343EA1C
:1088080052734FEAC2025FEA1C1CC0D111F4801FE8
:108818000BD141EA00014FF000004FF0004CB6E7E1
:1088280011F4801F04BF01430020B4F1FD0C88BF80
:10883800BCF5E06F3FF6AFAEB5EB030C04BFB6EB8B
:10884800020C5FEA500C50F1000041EB045170BD7E
:108858000EF0004E4EEA113114EB5C04C2BFD4EBAB
:108868000C0541EA045170BD41F480114FF0000E2F
:10887800013C90E645EA060E8DE60CEA135594EAAB
:108888000C0F08BF95EA0C0F3FF43BAF94EA0C0FAE
:108898000AD150EA01347FF434AF95EA0C0F7FF423
:1088A80025AF104619462CE795EA0C0F06D152EA77
:1088B80003353FF4FDAE1046194622E750EA41065B
:1088C80018BF52EA43067FF4C5AE50EA41047FF46C
:1088D8000DAF52EA43057FF4EBAE12E74FF0FF3CD1
:1088E80006E000BF4FF0010C02E000BF4FF0010CA2
:1088F8004DF804CD4FEA410C7FEA6C5C4FEA430C1B
:1089080018BF7FEA6C5C1BD001B050EA410C0CBF69
:1089180052EA430C91EA030F02BF90EA020F0020CB
:10892800704710F1000F91EA030F58BF994208BF32
:1089380090422CBFD8176FEAE37040F001007047EF
:108948004FEA410C7FEA6C5C02D150EA013C07D146
:108958004FEA430C7FEA6C5CD6D152EA033CD3D091
:108968005DF8040B704700BF8446104662468C468B
:108978001946634600E000BF01B5FFF7B7FF0028BE
:1089880048BF10F1000F01BD4DF808EDFFF7F4FFE7
:108998000CBF012000205DF808FB00BF4DF808ED72
:1089A800FFF7EAFF34BF012000205DF808FB00BF95
:1089B8004DF808EDFFF7E0FF94BF012000205DF8B7
:1089C80008FB00BF4DF808EDFFF7CEFF94BF01206C
:1089D80000205DF808FB00BF4DF808EDFFF7C4FF65
:1089E80034BF012000205DF808FB00BF4FEA410CAE
:1089F8007FEA6C5C02D150EA013C0AD14FEA430C91
:108A08007FEA6C5C02D152EA033C02D14FF00000CD
:108A180070474FF0010070474FEA410212F500120B
:108A280015D211D56FF47873B3EB625212D94FEAAD
:108A3800C12343F0004343EA505311F0004F23FA97
:108A480002F018BF404270474FF00000704750EAEC
:108A5800013005D111F0004008BF6FF000407047A9
:108A68004FF00000704700BF4A0011D212F5001203
:108A780011D20DD56FF47873B3EB62520ED44FEA6E
:108A8800C12343F0004343EA505323FA02F07047EE
:108A98004FF00000704750EA013002D14FF0FF302C
:108AA80070474FF0000070474FEA4102B2F1E043CF
:108AB80024BFB3F5001CDCF1FE5C0DD901F0004CBD
:108AC8004FEAC0024CEA5070B2F1004F40EB83000D
:108AD80008BF20F00100704711F0804F21D113F139
:108AE8003872BCBF01F00040704741F480114FEA72
:108AF8005252C2F11802C2F1200C10FA0CF320FAFB
:108B080002F018BF40F001004FEAC1234FEAD32317
:108B180003FA0CFC40EA0C0023FA02F34FEA430381
:108B2800CCE77FEA625307D150EA01331EBF4FF00A
:108B3800FE4040F44000704701F0004040F0FE4025
:108B480040F40000704700BF7BB972B90029BEBF6E
:108B580000204FF0004106E008BF00281CBF6FF05E
:108B680000414FF0FF3000F075B8ADF1080C6DE929
:108B780004CE002909DB002B1ADB00F096F8DDF89B
:108B880004E0DDE9022304B07047404261EB410193
:108B9800002B1BDB00F089F8DDF804E0DDE9022397
:108BA80004B0404261EB4101524263EB430370471A
:108BB800524263EB430300F078F8DDF804E0DDE9A6
:108BC800022304B0404261EB41017047524263EB1B
:108BD800430300F06AF8DDF804E0DDE9022304B09D
:108BE800524263EB4303704753B94AB9002908BF9F
:108BF80000281CBF4FF0FF314FF0FF3000F02AB8BB
:108C0800ADF1080C6DE904CE00F04FF8DDF804E092
:108C1800DDE9022304B07047D0B500220B4B0646AD
:108C28000F46FFF749FCFFF71FFF0446FFF7CAFB93
:108C38000022074BFFF740FC02460B4630463946F8
:108C4800FFF782FAFFF710FF2146D0BD0000F03D84
:108C58000000F041704700BF10F8012B11F8013BEC
:108C6800012A28BF9A42F7D0D01A7047034613F852
:108C7800012B002AFBD1181A0138704738B5002299
:108C8800002304460D46FFF789FE28B920462946E9
:108C9800BDE83840FFF7C0BF204605F10041FFF7A7
:108CA800BBFF404261EB410138BD2DE9F0478646E4
:108CB8008C460846089E154674461946002B40F017
:108CC800C1808542B2FA82F245D94AB1C2F1200385
:108CD80000FA02FC954094402EFA03F343EA0C0C88
:108CE8004FEA154EA8B2230CBCFBFEF80EFB18CCBD
:108CF80008FB00F943EA0C43994528D9EB1808F119
:108D0800FF3704D2994502D9A8F102072B44A3EBF7
:108D18000903A4B2B3FBFEFC0EFB1C330CFB00F0F2
:108D280044EA0344A04214D92C190CF1FF3304D2AD
:108D3800A04202D9ACF102032C44241A43EA0740AA
:108D48001EB1D440002334607360BDE8F087474605
:108D5800DDE76346F1E792BB431B01214FEA154E5D
:108D6800AFB2200CB3FBFEFC0EFB1C330CFB07F868
:108D780040EA0343984561D9EB180CF1FF3004D25F
:108D8800984502D9ACF102002B44A3EB0803A4B226
:108D9800B3FBFEFC0EFB1C330CFB07F744EA034451
:108DA800A7424DD92C190CF1FF3304D2A74202D99E
:108DB800ACF102032C44E41B43EA0040C0E7C2F1D3
:108DC80020039540944020FA03F12EFA03F34FEA6A
:108DD800154E9040AFB20343B1FBFEFC0EFB1C10D6
:108DE800190C0CFB07F841EA0041884522D969189B
:108DF8000CF1FF3004D2884502D9ACF102002944B5
:108E0800A1EB08019BB2B1FBFEFC0EFB1C110CFB95
:108E180007F743EA01439F420ED9EB180CF1FF31E3
:108E280004D29F4202D9ACF102012B44DB1B41EA78
:108E3800004193E76046E3E76146F7E76046A4E749
:108E48006346B8E7834206D916B9002108467CE78D
:108E5800C6E900E0F9E7B3FA83F78FB9834201D393
:108E6800724508D8BEEB020460EB030301209C4660
:108E78001EB9002169E73846FAE7C6E9004CF8E769
:108E8800C7F1200CBB400EFA07F522FA0CF42EFAB3
:108E98000CF1BA401C4320FA0CF3B8404FEA1449CD
:108EA80001431FFA84FEB3FBF9F809FB18300B0CD9
:108EB80008FB0EFA43EA00439A4540D9E31808F143
:108EC800FF3004D29A4502D9A8F102002344A3EB4B
:108ED8000A0389B2B3FBF9F809FB183308FB0EFE45
:108EE80041EA03418E452CD9611808F1FF3304D2B9
:108EF8008E4502D9A8F10203214443EA0040A1EBC0
:108F08000E01A0FB02984145CE46434602D306D146
:108F18004D4504D20138B9EB020E68EB0403002E6C
:108F2800A7D0B5EB0E0261EB030101FA0CFC22FAA3
:108F380007F3F9404CEA0303C6E9003199E74046D4
:108F4800C5E74346D9E70000F8B50446824825F04E
:108F58009EFE38B10220814925F0A6FB4FF0FF356F
:108F68002846F8BD7E481DF0F9FC014610B17D4841
:108F780026F0C2FC002120460CF084FC054620B1F6
:108F88000021754825F086FEEAE7774925F08CFB35
:108F9800764C002094F822307549013BDBB2032B54
:108FA80096BF744A744A52F8232025F07DFB0020AE
:108FB800228C724925F078FB714F94F82A20714E63
:108FC8000020002A0CBF3A4632466F4925F06CFB58
:108FD80094F82230022B42D194F829200020002A4C
:108FE8000CBF3A463246694925F05EFB002094F9E9
:108FF8002820674925F058FB94F82330002BAFD080
:10900800013BDBB2032B96BF5A4A5B4A52F8232036
:109018000020604925F048FB0020E26A5E4925F0FF
:1090280043FB002022895D4925F03EFBD4E9042357
:1090380000205B4925F038FB94F837200020594977
:1090480025F032FB94F838200020574925F02CFBF6
:10905800002094F83920554925F026FB80E70020A8
:10906800E269534925F020FB0020E26A4A4925F0CD
:109078001BFB00202289494925F016FBD4E904236B
:109088000020474925F010FB94F82230042B01D02A
:10909800012B22D1002094F83420464925F004FB06
:1090A800002094F83520444925F0FEFA002094F871
:1090B8003620424925F0F8FA002094F9282034494E
:1090C80025F0F2FA94F829102D4A2E4B0020002999
:1090D80018BF1A462D4925F0E7FA94F82230033BC9
:1090E800012B3FF63DAF94F826204AB34FF434667F
:1090F8000020334925F0D8FA94F82620002072433E
:10910800304925F0D1FA94F826007043FFF76AF940
:109118000FA3D3E90023FFF7F9FA02460B46002014
:10912800294925F0C1FA94F924200020274925F07F
:10913800BBFA0020B4F86820254925F0B5FA7BE78A
:109148001046244925F0B0FAEDE700BFAFF30080E0
:10915800000000000020CC40600C0120C73404004F
:10916800695C0100A4170400E7340400480C0120DE
:1091780001350400AC430300B9340400233504006E
:10918800C1340400806D04004535040067350400CF
:1091980089350400AB350400CD350400EF350400F3
:1091A80011360400353604005736040079360400B9
:1091B8009B360400BD360400DF3604000137040086
:1091C800233704004537040067370400B437040028
:1091D800D63704008C3704002DE9F04F8246174635
:1091E8001C4600259FB00391387810B9284600F036
:1091F800A9BD252809D00399D0470028C0F2A28527
:109208007B1C01350593059FEEE71822002110A865
:1092180029F0C7F97B78252B00F0BC8000239846FD
:109228009E469C461846791C0E4611F8012B2B2A9F
:1092380000F0E38000F2DA80202A00F0E180232A9F
:1092480000F0E1802BB19DF8483043F040038DF8E1
:109258004830B8F1000F05D09DF8483043F020039E
:109268008DF84830BEF1000F05D09DF8483043F026
:1092780010038DF84830BCF1000F05D09DF8483038
:1092880043F008038DF8483028B19DF8483043F082
:1092980004038DF848309DF8483003F04401442910
:1092A80003D16FF386138DF848309DF848302A2A89
:1092B80043F080030E968DF8483040F0A9809DF861
:1092C800493043F001038DF84930731C1A782E2A6F
:1092D8000CBF012100219DF8492061F341028DF85E
:1092E80049200CD15A1C0E925A782A2A40F0A080A4
:1092F8009DF84920023342F004028DF849201A787B
:109308006C2A00F0C18000F2A380682A00F0A980CE
:109318006A2A00F0C2804C2A00F0C78013F8012B9B
:10932800782A05938DF84B2000F209816D2A00F206
:10933800C980692A00F20381572A00F2E280412A93
:1093480004D0A2F14503022B00F2F98004219DF814
:109358004A3002F0DF02A2F1410961F30203D9F1B8
:1093680000029DF8491042EB090262F3C7110A0690
:109378008DF84A308DF84910CBB200F11F8103F007
:109388007802182A40F009816FF3C6038DF8493036
:109398000023F8E08DF84B30BB1C05939DF849304D
:1093A8009DF84A20DE0702F0070040F1098154F8D1
:1093B800041B0029049108DA9DF8481041F00401C3
:1093C8008DF84810049949420491590740F10081E9
:1093D80054F8046B002E80F2FF809DF849306FF33B
:1093E80041038DF849304FF0FF36F5E02D2A0DD0B6
:1093F800302A7FF427AF012316E74FF0010C13E75B
:109408004FF0010E10E74FF001080DE701200BE7C0
:109418000EA811F0CDFE0E9BB3423FF457AF9DF856
:1094280048201390C00F60F341028DF848204DE7A3
:109438000EA811F0BDFE9DF848301490C3F3400209
:1094480042EAD07262F341038DF848300E9B56E72A
:10945800742A26D07A2A7FF461AF06219DF8492024
:109468000CE05A78682A9DF8492006D1012161F359
:10947800C6028DF84920023350E7022161F3C60283
:109488008DF84920013349E75A786C2A9DF849201C
:1094980001D10421EBE70321F0E705219DF84920DC
:1094A800ECE707219DF84920E8E7BDF8482022F4B9
:1094B800F04222F0020242F4804242F00202ADF889
:1094C8004820DFE76E3AD3B201229A4040F2824345
:1094D8001A429DF8493039D112F0240F61D1D107D1
:1094E8002DD503219DF84A2003F07803A3F1400805
:1094F80061F30202D8F100038DF84A2043EB080318
:1095080041E00120A2F15801C9B200FA01F111F4B9
:10951800624F7FF41BAF40F6010319429DF84930B2
:109528001AD111F4043F0AD09DF84A2060F30202D0
:1095380003F07803402B8DF84A207FF429AF9DF87B
:10954800483043F001038DF8483021E702219DF8A7
:109558004A2061F30202EBE702209DF84A1003F06B
:10956800780360F30201402B8DF84A1002BF9DF882
:10957800481041F001018DF84810632A7FF408AFC4
:10958800003B18BF01239DF84820C2F340010B435C
:1095980063F341028DF8482000E713F0380FCED16D
:1095A800F6E603219DF84A2013F0780F61F30202D2
:1095B80014BF012300238DF84A20E4E70123E2E7E2
:1095C8009DF948100029ACBF4FF0FF311399FBE615
:1095D8009E077FF508AF149E00230428CDE91333B6
:1095E8009DF8493007D1990705D49DF949100029FC
:1095F800ACBF06260D2602F00702012AC3F3C303F7
:1096080032D1DA1E042A04D8DFE802F020454520CA
:1096180020002268012B4FEAE271CDE910211BD10D
:109628009DF94020D117CDE9102104349DF8482038
:10963800069292074FD03A465046059B039926F06A
:10964800A4F90028C0F27E830544DCE554F8042B15
:10965800D117CDE91021E9E7022BE6D111B242F387
:10966800C032CDE91012E0E7022A24D1DA1E042A1A
:1096780004D8DFE802F0181010181800012B4FF07A
:10968800000154F8042B14D0022BCDE91021CDD1C0
:1096980092B21092CAE7073424F00704F4E80201F2
:1096A800CDE91001C2E754F8042B10920022119260
:1096B800BCE7D2B2CDE7042A08D1073424F0070466
:1096C800D4E900010834CDE91001AFE7032AADD190
:1096D80054F8042BDDE79DF84B80B8F1780F3FF67E
:1096E80092ADB8F1570F5CD8B8F1250F00F0A480FF
:1096F800B8F1240F7FF687ADB8F1410F04D0A8F177
:109708004503022B3FF67FADDDE91023002BC0F2A5
:109718004D810699080700F14C81C1F300194FEA01
:109728004919C3F30A51C3F31303002940F04481D4
:1097380052EA030014BF4FF0010C4FF0000CD8029E
:1097480040EA5250D702CDE90C70B8F1460F47EA0B
:10975800010740EAE17008BF4FF06608384300F09F
:10976800B781BCF1000F10D01B0343EA1253170353
:109778003A4618464FF0000C002880F25681BCF19A
:10978800000F40F05981CDE90C730D9BA1F2FE3B0F
:1097980043F000430D930021DDE90C230F4605201B
:1097A80060E1A8F15802202A3FF62DAD01A151F839
:1097B80022F000BF879900000F9200000F9200006E
:1097C8000F9200000F9200000F9200000F9200000D
:1097D8000F9200000F920000119700000F920000F6
:1097E8003399000047990000119700001197000075
:1097F800119700000F920000479900000F92000097
:109808000F9200000F9200000F9200008D99000047
:1098180087990000D79800000F9200000F9200006F
:10982800519800000F920000879900000F920000E5
:109838000F9200008799000040460399D0470028FE
:10984800C0F280820135DEE4002E109F3BDB3146FA
:10985800384629F00AF8002F3FF4D5AC4FF000093C
:109868003E18F31B9DF84A2012F01001069100F0F3
:109878005E82023312F04002DDF84C80089218BF75
:10988800149A434418BF9B18049ACDF81C80002AE8
:1098980040F36882D31A9DF8482004935007C2F316
:1098A800800B00F15F82510640F14F82B9F1000F41
:1098B80007D048460399D0470028C0F24382D946CA
:1098C8000135302242E23846FFF7D0F9C6E7109852
:1098D800002800F027820DF175030093002117ABD3
:1098E80012AA11F07BFC4FF000090746BDF84A3078
:1098F80003F0EF0343F4F04343F01003ADF84A30AC
:10990800002E0CDB9DF848200DF17503DB1B6FF36F
:1099180086129E428DF8482001D9F31A1393002F1E
:109928003FF471AC0DF175066DE0109B4FF0000926
:109938008DF85C300DF15D06012317AF92E7069BA9
:109948001F0754BFC3F300194FF02B09DDE910239B
:1099580058BF4FEA4919002B06DA4FF02D09524239
:1099680063EB4303CDE91023DDE910010DF1750325
:10997800009312AA17AB11F031FC0746C0E74FF06D
:109988000009F1E7109A072B3FF63DACDFE803F03A
:109998000C04060C08080C0C157034E4158032E42D
:1099A800EB17C2E900532EE415602CE44FF02D09A3
:1099B800B7E64FF02B09B4E640F2FF70814231D18F
:1099C800A34908F101085FFA88F811F80810134351
:1099D80001F003011ED101290BBF492369234E2140
:1099E8006E210CBF462266228DF85C309DF8483007
:1099F8008DF85D106FF386138DF85E208DF8483072
:109A08000DF15F0617AFF31BB9F1000F3FF42AAF52
:109A1800013327E7012915BF6E234E236121412118
:109A28001A46E1E74FF0000C89E692184FF0010C56
:109A380001F1FF3140419FE6CDE90C20A5E652082F
:109A480042EAC3725B08B3F1333F59460BF1010B8D
:109A5800F5D201F1020B012100FB03FCA2FB00235C
:109A6800013F63441BF1020FE9DB09B1CDE90C2387
:109A7800DDE90C32BBF1000F2DDCCBF10401A1F1C3
:109A880020000BF11C0B02FA0BFB22FA00F0CA4073
:109A9800CB40079208F0DF0243EA0B03472A43EA68
:109AA80000037BD1F91C01DBBE422ADAA8F10208C7
:109AB800002E5FFA88F87ADD9DF84820013E92066C
:109AC80075D4B6F1000B18BF4FF0010B721C26E0DD
:109AD8004FF0000B5FE6023342F100020CA80BF1D5
:109AE800FF3B0137CDE90C3225F020FFDDE90C32D0
:109AF800DB185241002A0BF1FF3BF9DACDE90C32B1
:109B0800B6E79DF84820F61B90064DD4B6F1000B39
:109B180018BF4FF0010BF2194FF066084AD4102A0B
:109B2800A8BF10229FED487B10208DED0E7B0B9077
:109B3800DDE90E01002A3FD1079A1B1842EB01010B
:109B4800B1F1805F47D2CDE90C31069BB8F1660FC1
:109B580003F0200240F0C680002F47DC30238DF848
:109B68005C30002A76D1002E40F3BD812E238DF87B
:109B78005D3087B17B42B342A8BF3346002B1393B5
:109B8800A6EB0306D4BF002301239DF84A2063F304
:109B980045128DF84A200DF15E0340E0B8F1660FDA
:109BA8004FF0000BB7D091E74FF0000BB3E74FF041
:109BB800000B8BE70022B5E7400840EAC17049086E
:109BC800CDE90E010EA8CDE9082325F0AFFE089ACD
:109BD800099B013AACE75B0843EAC1730CA8490842
:109BE800CDE90C31013725F0A1FEAEE717AB0B9993
:109BF80000290BDD0BA90CA8CDE9063225F0AEFE35
:109C0800069B013F079A03F8010BF0D11397AAB9F5
:109C1800002E40F366812E2103F8011B0027002E39
:109C280021DD0B9A002A1EDD0BA90CA8069325F04E
:109C380095FE069B013E03F8010BF0E72E2203F880
:109C4800012BEBE7AFF300800000000000000008E4
:109C580009D404002E238DF85D30002F9BD0002EF0
:109C680088DC0DF15E03BBF1000F4FD114961E4640
:109C780008F0DF03452B24D1002FBABF7F422D23E4
:109C88002B23632FC8BF64227370C4BFB7FBF2F3E2
:109C980002FB13774FF00A02C8BF03F13001B7FB8C
:109CA800F2F3C8BFB17003F1300102FB137386F8F9
:109CB800008003F13003D4BF02360336317073706D
:109CC8000236139B002B2BDC149B002BD4BF0023E4
:109CD80001239DF84A2063F3861200238DF84A2059
:109CE80033708FE60BA90CA8069225F037FE069A6A
:109CF80030288DF85C0018BF07F1FF3712B9002E25
:109D080040F3F1802E238DF85D3044E71E4616F8A7
:109D1800012C013B302AF9D02E2A08BF1E46A7E79E
:109D28000123D6E7714E81460523771F9AE511076F
:109D380048BF01339EE5104609920399D047002891
:109D4800099A05DA1FB0BDE8F08F2022DDF810B0BF
:109D5800594600290BF1FF3BEDDC049BCDF810B010
:109D68002B445D1AB9F1000F05D048460399D04736
:109D78000028E7DB0135089B002B77D09DF9493097
:109D8800002B28DB3B46DFF8689118789B4619F8CA
:109D98000020013352073FD49DF84A30EF1B980644
:109DA8005F4407D44246002A08F1FF383BDC079B92
:109DB8003B449F1A9BF800002E280AD10399D047EC
:109DC8000028BFDBB8F1000F07F1010731DC0BF108
:109DD800010B5D4638E0B94699F80000C84670287E
:109DE80009F1010913D1EF1B149D47443D44EB1BB6
:109DF800002B33DC334642465046039925F0C5FD17
:109E080000289FDB3844049E0546064464E0039915
:109E1800D0470028E0DA95E706930399D047002851
:109E2800069BB2DA8EE730200399D0470028B9DACA
:109E380088E730200399D04708F1FF38C0E7039935
:109E4800D0470028FFF67EAF2878A84619F80030DA
:109E580001355907F3D4A7EB0B07C5E73020039961
:109E6800D0470028FFF66EAF0137C0E79DF84A30AB
:109E7800DA0601D41B0706D530200399D0470028FD
:109E8800FFF660AF0135069B3BB103999DF84B0087
:109E9800D0470028FFF656AF0135A84406E0302029
:109EA8000399D0470028FFF64DAF0135A8EB05030D
:109EB800002BF4DC33463A465046039925F065FDFD
:109EC8000028FFF63FAF28449DE720200399D0479C
:109ED8000028FFF637AF0135731B002BF5DCFFF7C1
:109EE80092B91746BFE60DF15D03BCE6448A04004B
:109EF8000AD40400000000002DE9F04706460F468A
:109F0800904688B028F053FA4FF47A73A0FB0345C3
:109F180003FB0155E40B012F44EA45444FEAD535CC
:109F280007D122462B463046274926F07AFD0020E5
:109F380012E0D8F8047025483946FEF78DFE70B156
:109F480039462348FEF788FE48B130463A4621494B
:109F580026F083FD6FF0040008B0BDE8F0872046C6
:109F680017A3D3E900232946FEF7EEFD05460C4664
:109F780010461946184A0023FEF7E6FD80460F46AC
:109F8800104619464EF660220023FEF7DDFD824694
:109F98008946104619464FF47A720023FEF7D4FD1D
:109FA800CDE902A9CDE90623CDE904012A462346D5
:109FB8003046CDE90087094926F033FDB7E700BFF1
:109FC800005C2605000000005B9104006C91040011
:109FD8006F9104007891040080EE3600909104009F
:109FE8002DE9F04F1F469DB000230C4682460F9284
:109FF80018934FF00008984B4FF000091D68284649
:10A00800FEF734FE22468346179213782B2B3BD05B
:10A018002CD80D2B26D8082B26D8002B2FD0002380
:10A028000D93179E3378302B74D1737803F0DF03C8
:10A03800582B65D10D9B17A9884A5046019318AB38
:10A048000297009319AB22F04DFF10F00705044664
:10A0580035D0062D1AD10F9B0BB101361E60424632
:10A068004B4637E0202BDAD10132CDE72D2BD6D164
:10A0780001230D93531C17935378002BD1D10F9BB9
:10A08800002BECD01C60EAE70023F2E7189A3AB1FB
:10A0980035211AA828F097FF1899504623F0E2F9BD
:10A0A800013D199A042D06D8DFE805F01903222589
:10A0B8001900DDE91A89210701D549F000490F9BEC
:10A0C80013B1179B0F9A13600D9B002BC7D0424604
:10A0D80009F1004343EC102B1DB0BDE8F08FDDE91A
:10A0E8001A8302F2334223F4801343EA0259E2E767
:10A0F800DFF86C91DFE76FF000494FF0FF38DAE7DF
:10A10800179B5A1C17925B78302BF9D0002BD6D0AE
:10A11800012300E00023002704930A22179BCDE9BE
:10A1280005770A9317980678A6F13003D9B209295A
:10A1380024D95A46294628F073FB00282DD0002040
:10A148003246059D83460346652A01D0452A13D128
:10A158001DB9049A024392D00025179C621C1792DD
:10A1680062782B2A6ED02D2A72D04FF0000CA2F103
:10A17800300109297AD91794002699E00599013008
:10A1880008291790D7BF069902FB073702FB01334E
:10A198000693059B01330593C4E7179B03EB0B025A
:10A1A800179213F80B20059BA3B383461D46A2F113
:10A1B8003003092B12D90123C6E7179B01305A1C1B
:10A1C80017925A78302AF8D0A2F13103082B00F2FE
:10A1D800EF8483460020179B05460A93303A00F126
:10A1E800010311D09B4400EB050C2B460A21634563
:10A1F80012D12B180135082B054419DC06990A23BE
:10A2080003FB012306930023179A1846511C179144
:10A218005278CCE70598D5E7082B03F1010303DC56
:10A22800069E4E430696E2E7102BD8BF4F43DEE763
:10A238000F2BDCBF0A2303FB0727E4E74FF0000BD3
:10A24800012386E74FF0000CA21C1792A2788EE734
:10A258004FF0010CF8E700BF404D0300CC4C030061
:10A268000000F07F179A511C17915278302AF9D0C4
:10A27800A2F1310108293FF67FAF303A0792179AC9
:10A288000C92179A561C17965278A2F1300EBEF10E
:10A29800090F38D90C99761A082E44F61F6603DC84
:10A2A80007998E42A8BF0E46BCF1000F00D0764237
:10A2B800002D4FD1049908437FF401AF002B7FF4A0
:10A2C800DEAE692A29D026DC492A26D04E2A7FF418
:10A2D800D6AE9B4917A828F0F4FC00283FF4CFAE6F
:10A2E800179B1B78282B2FD11AAA964917A828F054
:10A2F800FCFC052828D11B9BDDF8688043F0FF494A
:10A3080049F4E009DBE6079E0A2101FB0621A1F1D9
:10A3180030020792B5E76E2AD9E78B4917A828F0CB
:10A32800D0FC00283FF4ABAE179B17A88749013B28
:10A33800179328F0C6FC10B9179B01331793DFF861
:10A348001C924FF00008BAE6814801F079FA59ECFE
:10A35800108BB4E6A6EB0B0306982C460C93059BD2
:10A36800002B08BF2B46102D0593A8BF1024FEF71D
:10A3780029F8092D8046894613DC0C9B002B3FF4F5
:10A388009EAE0C9B78DD162B45DC7249424601EBEC
:10A39800C3014B46D1E90001FEF78EF88046894695
:10A3A8008DE66C4B03EBC40353E91223FEF784F8E4
:10A3B800804689463846FEF705F802460B46404671
:10A3C8004946FDF7C3FE0F2D80468946D5DD2C1B77
:10A3D8000C9B1C44002C25DC00F0A280644214F085
:10A3E8000F020AD05B4B4046494603EBC203D3E950
:10A3F8000023FEF78BF980468946241100F09080EF
:10A408001F2C40F3B18022234FF000084FF00009C1
:10A41800CAF8003053E6C5F125030C9A934219DABD
:10A428002C1B144414F00F030AD04A49424601EB8E
:10A43800C3014B46D1E90001FEF73EF88046894644
:10A4480034F00F046CD0B4F59A7F41DD2223CAF8AA
:10A45800003074E7C5F10F053E4C42464B4604EB0D
:10A46800C501D1E90001FEF727F80C9B5D1B04EB41
:10A47800C504D4E900238FE71633A8DBABEB06024B
:10A48800344B4046494603EBC203D3E90023FEF7A9
:10A498003DF983E7002306932223DFF8C0904FF0AD
:10A4A8000008CAF800301899504622F0DBFF0699D8
:10A4B800504622F0D7FF0599504622F0D3FF109955
:10A4C800504622F0CFFF0799504622F0CBFFF6E521
:10A4D80000232411404649461F4F0493012C22DCD7
:10A4E8000BB180468946049BA9F154791A49424622
:10A4F80001EBC3014B46D1E90001FDF7DDFF174B26
:10A508000A4680460B4016498B429FD8A1F5801118
:10A518008B4286BFDFF84C904FF0FF3802F1547938
:10A52800002304934BE0E20704D5D7E90023FDF7A5
:10A53800C3FF0123049A6410083701320492CDE75F
:10A54800FF580400B84C03007290040040D5040082
:10A558006FCA0400C0410300984103000000F07F67
:10A568000000A07CFFFFEF7F14F01003404649462F
:10A57800AA4F18BF6A2304930023E20704D5D7E93A
:10A588000023FDF799FF0123641007F10807F4D1B0
:10A598000BB180468946049B43B1C9F30A52494628
:10A5A800C2F16B03002B4EDC6A23049300220023C4
:10A5B80040464946FEF7E8F900287FF424AF069B99
:10A5C8005046059A00932B460A9922F0B5FF109041
:10A5D80000283FF43BAF0C9BABEB060B002BB4BF42
:10A5E8005B46002311930C9B23EAE3731393002328
:10A5F80007930593109B5046596822F0F3FE069086
:10A6080000283FF449AF109B0C301A6903F10C0184
:10A618000232920027F09EFF1AAA19A9504649EC67
:10A62800108BCDE90A8923F063FA189000283FF4CB
:10A6380033AF0121504622F0C9FF03460590D0B937
:10A648000023059328E71F2B0EDD342B4FF000085D
:10A65800DBBF4FF0FF33C2F14B024FF05C79934000
:10A66800D8BF03EA01099FE74FF0FF3202FA03F36C
:10A6780003EA080898E7199C1A9A002CA9BF119BAD
:10A68800139BE718139EB8BF1E1B049BB8BF119FEE
:10A69800E41A634B1444C2F13602013C9C4280F236
:10A6A800B0801B1B01251F2BA2EB0302CDBFC4F1F9
:10A6B8007F449D40002404F57F04C2BF04F57B4419
:10A6C800E23405FA04F407EB020B049B16445F45D9
:10A6D8001E443B46A8BF5B46B342A8BF3346002B87
:10A6E800C2BFABEB030BF61AFF1A119B002B16DD4A
:10A6F8001A460599504623F029F8059000289FD05E
:10A708000146189A504622F077FF0E9000283FF431
:10A71800C3AE1899504622F0A5FE0E9B1893BBF1C4
:10A72800000F71DC0C9B002B08DD139A504606992C
:10A7380023F00CF8069000283FF4ACAE002E08DD9C
:10A7480032460699504623F05BF8069000283FF4FD
:10A75800A1AE002F08DD3A460599504623F050F87F
:10A76800059000283FF498AE069A5046189923F0B1
:10A77800B3F8079000283FF48FAEC36805990E938D
:10A788000023C36028F0D2FB00284BDA0E9B53EA63
:10A79800080340F0BC80C9F31303002B40F0B780D6
:10A7A80029F000431B0D1B05B3F1D66F40F2AF80B3
:10A7B800079B5B6923B9079B1B69012B40F3A780A3
:10A7C80001220799504623F01BF80599079028F0B5
:10A7D800ADFB002840F39B8029F00043049A1B0D31
:10A7E8001B05002A79D0B3F1D66F6DD8B3F15C7F21
:10A7F80046D84FF000084FF000092223CAF800306D
:10A8080051E6002401255EE75A461899504622F081
:10A81800F7FF1890002885D13EE600BF704103007D
:10A8280002FCFFFFCB4640F0A3800E9AC9F3130346
:10A83800002A40D09C4A934258D1049B42467BB997
:10A84800B8F1FF3F40F08980984B99453FF424AE1A
:10A85800974BDDF8108009EA030303F5801922E617
:10A86800934B09EA0303B3F1D46F16D918F1010128
:10A878001BD18E4A91453FF40FAE03F580198046EF
:10A888008C4B404649460022FDF716FE0B46804693
:10A89800894603437FF407AEAFE71E0D4FF0FF3143
:10A8A800C6F16B06B1408845E7D0002C5ED014EAAB
:10A8B8000B0FE5D01EE0002B4AD1B8F1000F8BD06A
:10A8C80064B314EA0B0F2BE0A3F580134FF0FF38A5
:10A8D8006FEA13596FEA0959D2E7A3F580134FF0CD
:10A8E800FF386FEA13596FEA0959DCE59CB114EA9D
:10A8F800090F0CD040464946049A27F0D8FFDDE9F5
:10A908000A0153EC102BFDF721FC80468946049B75
:10A91800002BB5D1C7E515EA080FEAE718EA050FD5
:10A92800F5D0049A4046494627F0C1FFDDE90A01FF
:10A9380053EC102BFDF708FC0022002304460D46BB
:10A94800FEF722F800287FF454AFA046A946DEE7B8
:10A95800002CB6D115EA080FE2E724B114EA090F72
:10A968003FF4A1ADC6E718EA050FF9E72A42A0E7C8
:10A978000599079828F0F5FA00224FF0804355EC26
:10A98800104B20462946FEF713F800286DD00E9B81
:10A99800002B78D1B8F1000F56D1C9F31303002B5F
:10A9A80059D10022444B20462946FDF7F7FF0028DD
:10A9B80058D1204629460022404BFDF77DFD04462C
:10A9C8000D4605F1004308940993394B0BEA03033C
:10A9D8001293129A3A4B9A42DDE9086740F0A9802F
:10A9E800ABF1547949EC108B23F00EF8DDE908231C
:10A9F80051EC100BFDF760FD42464B46FDF7A6FBF8
:10AA08000B462B4980462F4A194091425CD90B9A34
:10AA1800264B9A4203D10A9B01333FF43DADDFF840
:10AA28008C904FF0FF381899504622F01BFD06997C
:10AA3800504622F017FD0599504622F013FD07995C
:10AA4800504622F00FFDD5E5B8F1010F03D1B9F159
:10AA5800000F3FF4CEAE0024174D9FED0F7B8DED18
:10AA6800087BB2E70024154DABE7144B2046294676
:10AA78000022FDF721FD0E9B04460D46002BA0D0B9
:10AA8800CDE90845A1E79FED067B55EC174B8DED09
:10AA9800087B9AE7AFF30080000000000000F0BFD9
:10AAA800000000000000F03FFFFF0F00FFFFEF7FF6
:10AAB8000000F07F000050390000F03F0000E03F48
:10AAC8000000E07FFFFF9F7C03F15479049B4E4612
:10AAD800002BA8D129F00043129A1B0D1B059A429E
:10AAE800A1D120462946FEF7C9F8C9F31306FDF798
:10AAF800B5FC0B4602462946204646EA0806FDF7FD
:10AB080023FB0E9B04460D461E434BD02EA3D3E9D0
:10AB18000023FDF743FF00287FF4C5AC20462946F3
:10AB28002BA3D3E90023FDF757FF00283FF47BAFA1
:10AB3800B9E4049B13B3129BB3F1D46F1ED820461B
:10AB4800294625A3D3E90023FDF732FF90B1294612
:10AB58002046FDF789FF012838BF0120FDF732FCA8
:10AB68000E9B04460D46D3B901F10043149015938A
:10AB7800DDE9146707F1D663129A9F1A9DED0A0B57
:10AB880022F042FF3046394653EC102BFDF794FC77
:10AB9800DDE90A23FDF7DAFA8046894696E7CDE92A
:10ABA8001445E5E70EA3D3E90023FDF7F7FEBCE75C
:10ABB800652A3FF443AB452A3FF440AB0123FFF736
:10ABC80079BB00BFAFF300809535A094FFFFDF3F4E
:10ABD80035E5AF350000E03F0000C0FFFFFFDF4173
:10ABE8009535A094FFFFCF3F2DE9F04F476A97B006
:10ABF8008346209E08910C92129355EC104B8DEDD4
:10AC0800000B7FB9102020F0CFFE0246CBF82400BD
:10AC180020B9A74BEA21A74823F0CCFCC0E901776B
:10AC28000760C760DBF82430196859B15A680123F6
:10AC3800584693404A608B6022F014FCDBF82430BD
:10AC480000221A602B1EB7BF23F000430023012205
:10AC58000193A8BF3360019F974BB8BF3260BB43D5
:10AC680019D142F20F73129A1360C7F313032343E7
:10AC780000F0DB85219B53B9904B21E0904B039367
:10AC88000833219A1360039817B0BDE8F08F8B4BF7
:10AC980003930333F5E79DED007B0022002351EC7D
:10ACA800170B8DED0A7BFDF76FFE804650B101232F
:10ACB800129A1360219B13B1824B219A1360824B25
:10ACC8000393E0E7C7F30A5614AA15A958469DED61
:10ACD8000A0B22F00DFF0290002E76D00B9BA6F2F5
:10ACE800FF36CDF84C80C3F3130343F07F53DDE9FF
:10ACF8000A0143F4401319460022744BFDF724FA65
:10AD080065A3D3E90023FDF7D7FB65A3D3E90023A7
:10AD1800FDF71CFA04460D463046FDF763FB62A3B7
:10AD2800D3E90023FDF7C8FB02460B462046294617
:10AD3800FDF70CFA04460D46FDF76EFE00220746A5
:10AD4800002320462946FDF729FE40B13846FDF785
:10AD580049FB22462B46FDF717FE00B9013F162F87
:10AD680052D85B4B03EBC703DDE90A01D3E90023A3
:10AD7800FDF714FE002849D0013F00231193149BCE
:10AD88009B1B5A1E4CBFC3F101030023079245BF0A
:10AD98000693002306930793002F39DB079B109730
:10ADA8003B44079300230993089B092B66D8052B7E
:10ADB800C5BF043B002401240893089B023B032BD6
:10ADC80067D8DFE803F02D3A3859DDE914631E44EB
:10ADD80006F23243202BC9BFC3F14003C3F120035D
:10ADE8009F4006F21243D8BF04FA03F006F1FF367B
:10ADF800C4BF24FA03F347EA0300FDF7E3FA01228C
:10AE0800A1F1F873139276E70123B7E71190B6E73B
:10AE1800069BDB1B06937B42099300231093C3E731
:10AE280000230D930C9B002B56DC012399461A46F0
:10AE380004930C920CE00123F3E700230D930C9B81
:10AE4800FB1803F1010904934B46012BB8BF0123FA
:10AE5800DBF824000021042202F114059D423FD9A9
:10AE68004160584622F0BEFA039000283BD1194BA6
:10AE780002464FF4D571CEE60123DFE70124002313
:10AE88000D9408934FF0FF33002299460493122340
:10AE9800CFE701230D93F5E761436F63A787D23F9F
:10AEA800B3C8608B288AC63FFB799F501344D33FB1
:10AEB8004AD5040061D504000000F07F46D504009F
:10AEC8003DD5040029C8040028C804000000F83F44
:10AED800C0410300BDD504000C9B99460493B7E715
:10AEE80001315200B8E7DBF82430B9F10E0F039AAC
:10AEF8001A606FD8002C6DD0002F36DD07F00F02D6
:10AF0800A04BF8054FEA271403EBC20393ED007B2F
:10AF18008DED0E7B17D59C4B04F00F044FF0030802
:10AF2800D3E90823DDE90A01FDF7F0FBCDE90001CB
:10AF3800954D5CB9DDE90E23DDE90001FDF7E6FB7F
:10AF4800CDE900012BE04FF00208F1E7E10709D550
:10AF580008F10108DDE90E01D5E90023FDF7ACFA97
:10AF6800CDE90E0164100835E3E700F007817C4263
:10AF7800844B854D4FF0020804F00F02241103EBB7
:10AF8800C203DDE90A01D3E90023FDF795FA00239E
:10AF9800CDE90001002C40F0E580002BD0D1119BB9
:10AFA800DDE90045002B00F04C810022774B20465C
:10AFB8002946FDF7F3FC002800F04381B9F1000FA2
:10AFC80000F03F81049B002B00F3E480DDE90A34A4
:10AFD800CDE90034159B002B02DB0E2F40F3428293
:10AFE8000D9A002A40F06782099C0025DDF8188038
:10AFF800B8F1000F0DD0079B002B0ADD4345069AD8
:10B00800A8BF4346D21AA8EB03080692079AD31A98
:10B018000793099B0BB30D9B002B00F0A682002C15
:10B0280000F0A18229462246584622F08FFB029A58
:10B0380001460546584622F0DFFA02990646584668
:10B0480022F010FA099B1B1B099300F09182099AC0
:10B058003146584622F07AFB02900121584622F0E8
:10B06800B5FA109B0446002B00F084821A4601466C
:10B07800584622F06BFB089B0446012B03DC009B1F
:10B08800002B00F07C820026236904EB83031869F7
:10B0980027F0FDFEC0F120001096079B184410F021
:10B0A8001F0000F09182C0F12003042B40F381823D
:10B0B800C0F11C00069B034480440693079B03448D
:10B0C8000793069B002B05DD1A460299584622F085
:10B0D80097FB0290079B002B05DD21461A46584630
:10B0E80022F08EFB0446119B002B00F0768221464D
:10B0F800029827F01BFF002880F26F8200230A22A3
:10B108000299584622F0D0F90D9B7E1E0290002B22
:10B1180000F05C82002329460A22584622F0C4F92E
:10B12800049B0546002B03DC089B022B00F35E8280
:10B13800B8F1000F05DD29464246584622F060FB6B
:10B148000546109B002B00F0D0826968584622F013
:10B1580049F90746002840F07F820D4B024640F22D
:10B16800EA2158E5E20706D508F10108D5E90023E8
:10B17800FDF7A2F90123641008350BE74FF0020828
:10B188000DE700BFC0410300984103000000F03FF5
:10B19800BDD5040020460022AC4B2946FDF78CF9AA
:10B1A8007E1E08F10108049CCDE900014046FDF728
:10B1B80019F9DDE90023FDF77FF9A54B0022FCF71B
:10B1C800C5FFA1F15073CDE90E010F93002C3BD1BF
:10B1D8000022A04BDDE90001FCF7B6FF02460B4652
:10B1E800CDE90023DDE90E23FDF7F6FB002840F04A
:10B1F8005781DDE90E2101F10043DDE90001FDF78A
:10B20800CDFB00283FF4E2AE002425460C9BDDF878
:10B218000CA0DE434FF000082146584622F022F9E0
:10B22800002D00F0A980B8F1000F05D0A84503D083
:10B238004146584622F016F92946584622F012F996
:10B248009AE03E464C46B1E7834B03EBC40353E90F
:10B258000201039B1C440D9B002B4AD002460B465F
:10B2680000207E49FDF752FADDE90E23FCF76CFF5A
:10B27800DDF80CA0CDE90E01DDE90001FDF7CCFBFE
:10B288000546FDF7AFF8024630350B46DDE900010B
:10B29800FCF75AFF0AF8015B02460B46CDE90001AC
:10B2A800DDE90E01FDF798FB002865D100206C4907
:10B2B800DDE90023FCF748FF02460B46DDE90E01F5
:10B2C800FDF78AFB002840F00D81A24500F0EA80D6
:10B2D80000225E4BDDE90E01FDF7EEF800225B4B24
:10B2E800CDE90E01DDE90001FDF7E6F8CDE9000141
:10B2F800C2E7DDE90E23FDF7DFF8A046DDF80CA074
:10B30800CDE90E01DDE90001FDF786FB0546FDF7F5
:10B3180069F8024630350B46DDE90001FCF714FFF9
:10B328000AF8015B02460B46A245CDE900234FF01F
:10B33800000223D1494BDDE90E01FCF707FF024665
:10B348000B46DDE90001FDF747FB002840F0CA8005
:10B3580000204249DDE90E23FCF7F6FE02460B46C3
:10B36800DDE90001FDF71AFB70B1C24608F1FF38AC
:10B378001AF8013C302BF8D0374655E0334BFDF72F
:10B388009BF8CDE90001BDE7DDE90A34CDE90034D9
:10B39800159B002BFFF628AE0E2F3FF725AE2E4B40
:10B3A80003EBC70393ED007B0C9B002B8DED047B17
:10B3B80002DAB9F1000F64D0DDF80CA0DDE9004530
:10B3C800DDE9042320462946FDF7A0F9FDF724FB13
:10B3D8000646FDF707F8DDE90423FDF76DF8024698
:10B3E800204606F130040B462946FCF7ADFE0AF864
:10B3F800014B039C02460B46AAEB0404A14540F00E
:10B408008280FCF7A3FE04460D46DDE90423FDF720
:10B41800E3FA002865D120462946DDE90423FDF733
:10B42800B3FA08B1F3075CD40299584622F01AF827
:10B43800002301378AF80030129B1F60219B002BE4
:10B448003FF421ACC3F800A01DE400BF0000244075
:10B4580000001C4000001440C04103000000E03F11
:10B468000000F03FA24B03EBC70393ED007B0C9B5E
:10B47800002B8DED047B9FDAB9F1000F9CDC7FF483
:10B48800C3AE00229B4BDDE90401FDF715F8DDE9A9
:10B498000023FDF797FA044600287FF4B5AE3E4630
:10B4A8002546B4E0DDE90A34CDE90034159B002BCC
:10B4B80001DB0E2FD6DD089A012A36DC139A82B3F7
:10B4C80003F23343099CDDF81880069A0121584697
:10B4D8001A440692079A1A44079222F077F805460A
:10B4E80086E53E4653469A4613F8012D392A06D179
:10B4F800039A9A42F7D13022039901360A701A78D2
:10B5080001321A7038E700227B4BFCF7D5FF002286
:10B51800002304460D46FDF737FA00283FF450AFE4
:10B5280082E7149BC3F13603CCE709F1FF34099B8A
:10B53800A34208DBB9F1000FA3EB04040EDBDDF82E
:10B5480018804B46C1E7099B109AE31A0994DDF865
:10B55800188000241A444B461092B6E7069BA3EBCA
:10B5680009080023B1E7029E71E5099A029970E57E
:10B57800029672E5089B012B17DC009BABB9019B77
:10B58800C3F313039BB9019B23F00046360D360520
:10B5980036B1069B012601330693079B01330793B7
:10B5A800109B002B7FF470AD1096012075E50026E6
:10B5B800F6E73FF486AD1C33069A1A44984406927F
:10B5C800079A1A4407927CE50346F4E7049B002B8C
:10B5D8002BDC089B022B09DC27E0B9F1000F1DDCEE
:10B5E800089B022B1ADD3E46CDF81090049B002BD9
:10B5F8007FF40CAE21460522584621F055FF01463E
:10B608000446029827F092FC00287FF7FFADDDF88A
:10B618000CA0312301360AF8013BFBE50D9B3E46A1
:10B62800CDF81090002B7FF483AD039F214602983C
:10B6380027F08AF9039B00F13009049A07F8019B67
:10B64800FB1A9A4240F3CB8000230A2202995846FB
:10B6580021F02AFF0290E9E72A6905F10C010C3074
:10B668000232920026F076FF01223946584622F02F
:10B67800C7F8039BA846054603F1010ADDE9032341
:10B6880013440793009B03F0010309930AF1FF3366
:10B6980021460298049327F057F94146069000F195
:10B6A8003009029827F042FC2A46214607465846A8
:10B6B80022F012F9C268014602B3584621F0D2FEC0
:10B6C800002F3ADA01220299584622F099F82146C9
:10B6D800029027F02BFC002803DC29D119F0010F78
:10B6E80026D0B9F1390F1DD132E02846C1E700BF95
:10B6F800C041030000001440000024400A90029852
:10B7080027F014FC0A990C90584621F0ABFE0C9ACD
:10B718005ABB089B53B9099B43B9B9F1390F17D0E4
:10B72800002F05DD069B03F1310901E0002F2ADA1D
:10B73800DDF810A00AF8019B6EE5089B3B4304D195
:10B74800009B03F00103002BBCD0B9F1390F36D1AF
:10B75800049F392307F8013BBA46013F1AF8013C18
:10B76800392B5AD001333B7056E5002F06DB089B76
:10B778003B4306D1009B03F0010313B9002AA1DC67
:10B78800D6E7002AE1DC079B57460AF8019C534597
:10B798002ED000230A220299584621F085FEA8459A
:10B7A80002904FF000034FF00A02414658460BD171
:10B7B80021F07AFE804605460AF1010A66E7DDF8BF
:10B7C80010A009F10109B5E721F06EFE294680466F
:10B7D80000230A22584621F067FE0546ECE7049B41
:10B7E8004FF00008002BCCBF1F460127039B1F44C6
:10B7F80001220299584622F003F82146029027F0C8
:10B8080095FB0028A8DC02D119F0010FA4D1BA4693
:10B8180017F8013D302BFAD0FEE4039BBB429BD1C5
:10B828003123039A01361370F6E4219B002B7FF431
:10B8380025AA014BFFF744BA3DD5040000000000DB
:10B848009FED010B704700BF000000000000F87F6B
:10B8580008B501684B1E142B96BF0A4A0A4A52F8CB
:10B8680023204368094824F047F809497023094A06
:10B87800094824F0B2F8094824F0AFF870210548C7
:10B8880024F0A2F8884203007A4E0300894E030090
:10B8980028C80400B24E0300CE4E0300EB4E03004E
:10B8A80070B5A2B013F0A8FC404E306060B94049B2
:10B8B800AB23404A404824F090F8404824F08DF8E3
:10B8C800AB213C4824F080F83D4B02ACD3F800543F
:10B8D800C3F80054002315F0010F8DF8083003D089
:10B8E8002046384926F078FFAA0703D5204636496E
:10B8F80026F072FF6B0703D52046344926F06CFF0B
:10B90800E80603D52046324926F066FFE90303D549
:10B918002046304926F060FFAA0303D520462E4969
:10B9280026F05AFF6B0303D520462C4926F054FF16
:10B938002046FDF79BF908BB2046294926F068FFF9
:10B948002146284823F0D8FF0023CDE90333264BAE
:10B9580026494FF4805226480293009405231DF08F
:10B96800D9FA18F0A1F8014680B1224823F0C4FFA3
:10B97800214823F0C1FF002022B070BD00F18803E8
:10B988000DEB0300002300F8833CD9E70EF0A6FC7A
:10B9980018F0BCFC014610B1184823F0ADFF184957
:10B9A800306814F0FFFC00F083F9E4E75830012018
:10B9B800214F0300B24E0300CE4E03003B4F03005D
:10B9C80000500040594F0300664F0300724F0300B8
:10B9D8008B4F0300A54F0300B14F0300BF4F030077
:10B9E800D64F0300E54F0300F84F0300C85A012063
:10B9F800F0EB00200A5003003650030043500300C8
:10BA08006550030010B58EB01E4801A923F0FAFE58
:10BA1800044630B3024602201B4922F045FE04A822
:10BA28001FF0CAFF0020194922F03EFE184A0020E4
:10BA3800C2F10052174902F5802222F035FE049A1D
:10BA48000020154922F030FE0C9A0020134922F0FC
:10BA58002BFE00200B9A124922F026FE00200EB081
:10BA680010BD104922F020FE2046019A0B4922F011
:10BA78001BFE2046029A0A4922F016FE2046039A27
:10BA88000949CAE768E9002060510300EC51030046
:10BA980038FB02200452030018520300AF51030080
:10BAA800C351030097510300D7510300134670B5E3
:10BAB8000A220021586820F0E1FE002814DD4FF426
:10BAC8007A73002503FB00F44FF40046294640F240
:10BAD800E7304FF47A720023E4FB0601FDF784F89F
:10BAE8001EF0D4FC284670BD0020034922F0DCFD7E
:10BAF8006FF01500F7E700BF2C52030010B50024C3
:10BB0800034B204603491C7022F0CEFD204610BD91
:10BB18000C490120C2520300012208B5034B002042
:10BB280003491A7022F0C0FD002008BD0C4901200D
:10BB3800D652030030B595B0242204460D460BA812
:10BB4800002126F02EFD06A901200FF015FA0BA9F9
:10BB580006A81FF085FE089B0D4A294693FBF2F3C1
:10BB680005930B9B204604930C9B0A4A03930D9B59
:10BB780002930E9B01930F9B01330093109B03F2DA
:10BB88006C7320F081FDC043C00F15B030BD00BFFD
:10BB980040420F0092530300F8B505460E4617467B
:10BBA8004FF0FF334FF0FF3221481CF0D3FA214BFE
:10BBB8001C785CB11E212048FFF7BCFF4FF4806160
:10BBC8001D4B1E4A1E4820F05FFD04461C48C4F564
:10BBD800806120443B4632460FF04EFB0444B4F5E6
:10BBE800806F184C03D31849206824F036FF012DC4
:10BBF800206807D0022D0ED095B9114A134924F0B8
:10BC080010FF03E00E4A114924F019FFBDE8F8407F
:10BC180007481CF06FBB0A4A0C4924F01EFFF5E7E1
:10BC28000B4924F01AFF064A08492068E7E700BFD5
:10BC380000EA00200C490120EE48012000F1030031
:10BC4800EE44012058300120B8530300FABF040025
:10BC5800E3530300024B02460249186824F0E1BE90
:10BC680058300120FABF0400012938B5054616D915
:10BC780054680C492046FCF7EFFF80B120460A497A
:10BC8800FCF7EAFF58B122460220084922F00CFDD1
:10BC98006FF01504284624F0EEFE204638BD012436
:10BCA800F8E700BF5B660300155403001C5403004B
:10BCB80008B50020074B084A084922F0F5FC002087
:10BCC800074922F0F1FCBDE808400020054922F0B0
:10BCD800EBBC00BF35540300425403004854030032
:10BCE800635403007E540300012938B504460AD979
:10BCF8005268064924F0B1FE4FF0FF35204624F083
:10BD0800BAFE284638BD0125F8E700BF965403005F
:10BD180008B502F0E9F8024628B1BDE8084002205B
:10BD2800014922F0C1BC08BDB05403002DE9F0431D
:10BD38000C46CBB015460FF04BFE0023012C05AE88
:10BD48000493336040F2448206A805F091FB482230
:10BD580006A918A826F0FEFBDFF87883B34F434600
:10BD68003A4629462046009623F09FFF431C0BD1F4
:10BD7800AF4B1B68A34280F0CA8204F18044013CA7
:10BD880055F82420AB490BE0162829DC00280BDAEB
:10BD9800A74BA9491B6803F18043013B55F82320B1
:10BDA800022022F081FC13E20138152800F23882C3
:10BDB800DFE810F03C0246024E02FF01150228029D
:10BDC80021022F02EC01F201F8015902600265021A
:10BDD800810288028D02920297029C02A202A702A7
:10BDE80062381228D4D81228D2D801A353F820F0E8
:10BDF8003DC1000099BD000085C1000099BD00004B
:10BE080099BD000099BD0000D9C1000099BD00008E
:10BE180099BD000099BD000099BD0000E1C0000077
:10BE2800FDBF000099BD000099BD000099BD00004C
:10BE380045BE000099BD00001FC10000002406A8EF
:10BE480005F016FB7C2221462BA82A9426F0A9FB94
:10BE580020467A4922F028FC069B20461A46784953
:10BE6800039322F021FC079B20461A467549039349
:10BE780022F01AFCBDF8243020461A46724922F0F6
:10BE880013FC2046BDF82020704922F00DFC9DF8D7
:10BE98002200002800F0A6802AA99DF8230004F0BB
:10BEA8007BF86B490246204622F0FEFB00206949D8
:10BEB80022F0FAFB109A0020674922F0F5FB0020D7
:10BEC800664922F0F1FB00200E9A654922F0ECFB4E
:10BED8009DF83C200020634922F0E6FB00206249DF
:10BEE80022F0E2FB00200B9A604922F0DDFB0020E3
:10BEF8000D9A5F4922F0D8FBDDE90C3200205D493C
:10BF080022F0D2FB00200C9A5B4922F0CDFB9DF871
:10BF180029200020594922F0C7FB0020584922F067
:10BF2800C3FBDDE916230020564922F0BDFB0020A3
:10BF3800554922F0B9FB00209DF85020534922F0C2
:10BF4800B3FB0020139A524922F0AEFB00209DF863
:10BF58005120504922F0A8FB00209DF852204E495C
:10BF680022F0A2FB00209DF853204C4922F09CFBB4
:10BF780000204B4922F098FB9DF84400002835D05A
:10BF88000020484922F090FB0020BDF84620464991
:10BF980022F08AFB00209DF94820444922F084FBC6
:10BFA800434D444C9DF849200020002A0CBF2A46E6
:10BFB8002246414922F078FB9DF84A200020002AB9
:10BFC8000CBF2A4622463D4922F06EFB9DF84B20C5
:10BFD8000020002A0CBF2A462246394922F064FB79
:10BFE800002065E1374922F05FFB5FE7364922F020
:10BFF8005BFBD5E7354B0A21186804AA24F0A0FE9C
:10C00800049B814643B14B464A460220304922F000
:10C018004BFB6FF015004BE19DF84B301BB122F044
:10C0280058FC0028EFD0CDF8609098E62660030011
:10C03800C4E400203360030006600300D05403000A
:10C04800E15403001E5503005B5503009855030097
:10C05800CC5503003A5603004E560300825603009F
:10C0680096560300CA560300FE5603001D570300E8
:10C078005157030094570300DD570300215803006C
:10C088005858030073580300B1580300C7580300F9
:10C09800055903004359030081590300BF590300A0
:10C0A800FD590300155A0300585A0300965A030015
:10C0B800AB370400505A0300185B0300565B0300BB
:10C0C800945B030000560300D45A0300183701207C
:10C0D800D25B030088DB00208F4B186826F018FA23
:10C0E8000123984202468DF86A3003D100238DF867
:10C0F8006B3034E60228FAD0032801D10223F6E790
:10C10800042803D100238DF86A3028E683490220E9
:10C1180022F0CAFA7DE7804B0A21186804AA24F0A5
:10C128000FFE049B23B17E49022022F0BDFA70E77E
:10C13800199014E6784B186826F0EAF9431E012B8B
:10C14800024609D8BDF82030ADF86800042B7FF40A
:10C1580006AE744901208AE0011F12290CD8724BDF
:10C16800CB40D90708D50428BDF82030ADF86800C1
:10C17800ECD1042BEDD1F2E56C49C8E7664B1868A1
:10C1880026F0C6F9C317CDE92803E8E5624B18681D
:10C1980026F0BEF92290E2E55F4B186826F0B8F960
:10C1A8002090DCE55C4B186826F0B2F98DF8840025
:10C1B800D5E5594B186826F0ABF9082804D86FF470
:10C1C8008B730341DA0707D55949022022F06CFA2C
:10C1D8005848FFF73FFD03E78DF89800BFE54E4B41
:10C1E800186826F095F9544B421E9A4201D95349D2
:10C1F800EBE72590B3E5484B186826F089F98DF8E8
:10C208009900ACE5444B186826F082F98DF89A003D
:10C21800A5E5414B186826F07BF98DF89B009EE553
:10C228003D4B186826F074F91D9098E53A4B18684C
:10C2380026F06EF9002801DB414975E71E908EE56E
:10C24800354B186826F064F90028F5DA1F9086E562
:10C25800314B186826F05CF9642801D9394963E73D
:10C268008DF871007BE5012037498DF88C0022F0AC
:10C278001BFA74E5002335498DF88C306AE7264BA4
:10C28800186826F045F9002281B2BDF86800ADF8BB
:10C298008E1022F0BFFA00287FF461AD0220BDF8AD
:10C2A8006830BDF88E202A4922F0FEF94FF0FF30A1
:10C2B8004BB0BDE8F083184B186826F029F98DF8C3
:10C2C80090004CE5012023498DF89100CFE7002329
:10C2D80021498DF891303DE7012020498DF89200E1
:10C2E800C5E700231E498DF8923033E7012300206B
:10C2F8001C498DF89330BAE700231B498DF8933019
:10C3080028E705F08FF8062001F05AF968E618A822
:10C3180005F062F8F7E700BF18370120685C0300F2
:10C32800905C0300A85C030021000400E75C0300A4
:10C33800025D0300C86C03003F4B4C00205D030006
:10C34800505D03006E5D0300885D0300345E0300EA
:10C358007B5E0300A95E0300F05E0300385F030004
:10C368007F5F0300C75F0300E65F03002DE9F0432A
:10C37800002585B00C46164603950FF029FBDFF81B
:10C38800A080214F0DF10C0943463A46314620461C
:10C39800CDF8009023F089FC431C0AD11B4B1B6885
:10C3A800A34225D204F18044013C56F824201849C0
:10C3B8000EE0332816D00FDC312815D0322815D0DE
:10C3C800124B14491B6803F18043013B56F82320A4
:10C3D800022022F069F901E06828F1D10E48FFF740
:10C3E80039FC0EE00225CFE70025CDE70125CBE794
:10C3F800284602F04FFC024618B10220074922F0F5
:10C4080053F905B0BDE8F0835B600300C4E4002085
:10C418003360030006600300E899030060600300CE
:10C4280068DE00202DE9F043002585B00C4616464D
:10C4380003950FF0CDFADFF8A080214F0DF10C091C
:10C4480043463A4631462046CDF8009023F02DFC6D
:10C45800431C0AD11B4B1B68A34225D204F180441C
:10C46800013C56F8242018490EE0332816D00FDC7A
:10C47800312815D0322815D0124B14491B6803F106
:10C488008043013B56F82320022022F00DF901E0F9
:10C498006828F1D10E48FFF7DDFB0EE00225CFE753
:10C4A8000025CDE70125CBE7284602F035FC0246FA
:10C4B80018B10220074922F0F7F805B0BDE8F0836B
:10C4C8005B600300C4E400203360030006600300DF
:10C4D800C79503006060030068DE00202DE9F04383
:10C4E8008BB00C46164604F0CDFF00230546039397
:10C4F800002C5DD00FF06CFA776897B13846684920
:10C50800FCF7AAFB28B902F0E9FF00200BB0BDE850
:10C51800F08338466349FCF79FFB10B901F084FFAC
:10C52800F3E740F28163059301238DF81E306B69B0
:10C53800DFF898810693B5F811305B4FADF81F30DE
:10C54800EB690DF10C098DF81230AB698DF81330D9
:10C558000023ADF81C30ADF820308DF824308DF86C
:10C56800113043463A4631462046CDF8009023F034
:10C578009CFB431C0AD14D4B1B68A34271D204F1AA
:10C588008044013C56F8242049490EE0742845D0DF
:10C598002ADCA0F16103082B0ED9444B45491B68DE
:10C5A80003F18043013B56F82320022022F07CF857
:10C5B8004148FFF74FFBA8E7082BEED801A252F835
:10C5C80023F000BF39C60000A3C500000BC6000059
:10C5D800A3C50000A3C5000031C60000A3C5000024
:10C5E800B9C5000017C600006FF47A728318032BD0
:10C5F800D3D8A0F2EA30022821D8DFE800F01D24C1
:10C608002B002E4B186825F083FF0590A9E72B4BCC
:10C61800186825F07DFFADF81C00A2E7274B1868C5
:10C6280025F076FF06909CE701238DF8103098E7F7
:10C6380001238DF8113094E701238DF8203002236F
:10C648008DF81E308DE71D4B186825F061FF8DF8B9
:10C65800130086E7194B186825F05AFF8DF8120069
:10C668007FE7059969B19DF81120288989B222F0E0
:10C67800D1F830B902202B89059A114922F014F813
:10C6880096E7002104A801F08BFE024620B10220A3
:10C698000C4922F009F838E70B4922F005F834E78D
:10C6A80087600300CD3C04008C600300C4E40020D4
:10C6B8003360030006600300698B0300183701200C
:10C6C8007B5E030096600300B5600300F8DD002080
:10C6D8002DE9F0478AB00C46164604F0D3FE002335
:10C6E80005460293002C73D00FF072F90223604FB5
:10C6F800D6F804803B60B8F1000F69D040465D4928
:10C70800FCF7AAFA28B901F061FC00200AB0BDE8DC
:10C71800F08740465849FCF79FFA002858D1EB6942
:10C7280032228DF81F30AB69DFF868918DF8203020
:10C7380040F28163CDE903230A2306930123DFF83E
:10C7480058810590ADF81C008DF81E00ADF8223018
:10C7580009900DF1080A4B46424631462046CDF86D
:10C7680000A023F0A2FA431C09D13B68A3426FD270
:10C7780004F18044013C56F82420404925E07428FF
:10C7880010DC60281ADD6138132817D8DFE800F0BC
:10C7980024162816382E162059161616161616168A
:10C7A8001616163240F2EA33984237D040F2EB338D
:10C7B80098423AD040F2E933984228D03B68304951
:10C7C80003F18043013B56F82320022021F06CFF3F
:10C7D8002C48FFF73FFA98E701238DF81E30BAE797
:10C7E800294B186825F094FE0490B4E701238DF8CE
:10C7F8001D30B0E7244B186825F08AFE0690AAE79A
:10C80800214B186825F084FE8DF81C00A3E71E4B09
:10C81800186825F07DFE8DF820009CE71A4B1868F3
:10C8280025F076FE8DF81F0095E72B680593012308
:10C838008DF825306B68ADF826302B688DF82430DC
:10C8480089E7114B186825F063FEADF8220082E7EE
:10C85800002103A801F0CAFB024620B102200B49BF
:10C8680021F022FF51E70A4921F01EFF4DE700BFE2
:10C87800C4E40020CD3C0400883C0400336003007D
:10C88800066003003382030018370120D4600300D8
:10C89800EC60030078DD0020C86003002DE9F0415A
:10C8A8000D4690B0164604F0EDFD0023012D044618
:10C8B800039340F2C7800FF08BF8706860B1A1490C
:10C8C800FCF7CAF940B9A04921F0EEFE21F026FF95
:10C8D800002010B0BDE8F081236AE2698DF81C30B1
:10C8E80094F824308DF81F208DF81D300222002383
:10C8F80026208DF81E30ADF820208DF82220ADF8C6
:10C908001030924A8DF8313094F83830CDE905026C
:10C91800A26A8DF83830636BDFF86C820D9394F857
:10C928003A308B4F8DF83A3094F839308DF8302002
:10C938008DF83B3003238DF8393094F83B30854C23
:10C948008DF83C3004238DF83D3003AB00933A4614
:10C9580043463146284623F0A8F9431C0BD17E4BA9
:10C968001B68AB4280F0E88005F18045013D56F830
:10C9780025207A492DE074281EDC602821DD6138E5
:10C9880013281ED8DFE800F0331D2D293E1D1D5E3B
:10C998001D1D1D1D1D1D1D1D1D1D3137A0F2D27031
:10C9A8000E286ED8DFE800F0738C92989E80863A45
:10C9B80067405535A4BDB3006FF4FA6143180F2BD7
:10C9C800ECD9654B66491B6803F18043013B56F877
:10C9D8002320022021F068FE34E001238DF8113075
:10C9E800B3E701238DF81030AFE70223FAE70123FC
:10C9F8008DF83130A9E7574B186825F089FDADF857
:10CA08001A00A2E7534B186825F082FD8DF8300014
:10CA18009BE7206825F07CFD059096E7206825F0C7
:10CA280077FD8DF81C0090E7206825F071FD831EC6
:10CA38006C2B02460AD96E230093022349491846F3
:10CA480021F032FE4848FFF705F941E78DF81E004E
:10CA58007BE7206825F05CFD00F180037F2B024610
:10CA680006D96FF07F030220404921F01DFEE9E757
:10CA78008DF81F0069E7206825F04AFD8DF81D0034
:10CA880063E7206825F044FDADF818005DE72068ED
:10CA980025F03EFD002804DC3549022021F004FE83
:10CAA800D0E78DF8200050E7206825F031FD8DF89B
:10CAB80022004AE7206825F02BFD8DF8210044E785
:10CAC800206825F025FD8DF83A003EE7206825F01E
:10CAD8001FFD8DF83B0038E7206825F019FD8DF81B
:10CAE8003C0032E7206825F013FD8DF83D002CE767
:10CAF800206825F00DFD082804D86FF48B730341D6
:10CB0800DA0701D51B49C8E78DF838001DE720680A
:10CB180025F0FEFC072801D91749BEE78DF8390032
:10CB280013E7206825F0F4FC144B421E9A4201D901
:10CB38001349B2E70D9008E79DF8103033BB11494F
:10CB4800ABE700BFCD3C0400F86003008106050098
:10CB5800B561030018370120C4E4002033600300E6
:10CB6800066003000F6103001DC203003661030065
:10CB78006A610300025D0300956103003F4B4C00AE
:10CB8800205D0300BF61030018E100209DF821200B
:10CB9800BAB14FF461534FF434609DF81E10A2FBF4
:10CBA80003234143891843F1000304A8CDE90A137C
:10CBB80001F0A6FF024648B10220064921F074FDA3
:10CBC80086E64FF4E1439DF82220E4E7024921F08C
:10CBD8006BFD7DE6EA6103000D62030000232DE989
:10CBE800F04F8DB016460D460393002900F0B08033
:10CBF8000EF0EEFE706858B19E49FCF72DF8044619
:10CC080030B921F09BFD20469B4921F04DFDAAE15A
:10CC180004F038FC2622994B0F21CDE90423036A3E
:10CC280000248DF8183090F8243027468DF81930F4
:10CC3800C369DFF890928DF81B30836ADFF8888229
:10CC48008DF81C300523CDE908138D4B8DF81A405B
:10CC58000A9340F204638DF81D408DF81E40ADF82C
:10CC68002C308DF82E400DF10C0A4B4642463146C9
:10CC78002846CDF800A023F018F8431C0BD1814BAF
:10CC88001B68AB4280F04B8105F18045013D56F8A9
:10CC980025207D4959E0742823DC622825DD633886
:10CCA800112822D8DFE800F06E21752121542121B6
:10CCB80021212E21218221212A7CA0F6BA300C289C
:10CCC80000F2AF80DFE810F0BA0079004800800079
:10CCD80087009A00C200CD0002010B0115011E0158
:10CCE8002701A0F6B9330D2BE7D9664B67491B68B6
:10CCF80003F18043013B56F8232026E001238DF8F9
:10CD08001D30B2E7624B6349D3F800B05846FBF7D1
:10CD1800A3FF18B901238DF81630A6E758465E49D7
:10CD2800FBF79AFF08B90223F5E758465B49FBF77A
:10CD380093FF08B90323EEE758465949FBF78CFFE0
:10CD480008B90423E7E75A465649022021F0ACFC0B
:10CD58005548FEF77FFF06E14D4B50491C682046B9
:10CD6800FBF77AFF20B9032301248DF817307CE7FD
:10CD780020464B49FBF770FF08B90423F4E7224625
:10CD88004A49E2E7424B186825F0C2FBADF81400A7
:10CD98006BE73F4B186825F0BBFB8DF81C0064E778
:10CDA8003B4B186825F0B4FB04905EE7384B1868D5
:10CDB80025F0AEFB8DF8180057E73D4822F09CFDA2
:10CDC80001238DF81E3050E7314B186825F0A0FB81
:10CDD8008DF8190049E72E4B186825F099FB831E3A
:10CDE8006C2B024607D96E2300930223314918465B
:10CDF80021F05AFCACE78DF81A0036E7244B186886
:10CE080025F086FB00F180037F2B024606D96FF0E0
:10CE18007F032949022021F047FC99E78DF81B0080
:10CE280023E71B4B186825F073FB002804DC234913
:10CE3800022021F039FC8BE7089016E7144B18689C
:10CE480025F066FB0028F2DD09900EE7104B186804
:10CE580025F05EFB002801DA1949E9E78DF828007A
:10CE680003E70B4B186825F053FB0028DFDD8DF82E
:10CE78002900FAE6CD3C0400236203008106020083
:10CE88000005050AC4E400203360030006600300BF
:10CE9800183701203D62030040620300AA520400D3
:10CEA800486203004E62030052AA03005F62030057
:10CEB800796203000F610300366103009362030087
:10CEC800AB620300C8DF0020C4620300344B18685B
:10CED80025F01EFB0028BFDB8DF82A00C5E6304B85
:10CEE800186825F015FB0028B6DB01278DF82B0004
:10CEF800BBE62B4B186825F00BFB0028ACDB8DF844
:10CF08002C00B2E6264B186825F002FB0028A3DBAC
:10CF18008DF82D00A9E601238DF82E30A5E604F042
:10CF2800B1FA01220546BDF81410008921F072FCFF
:10CF380020B92B89BDF814201A496BE737B99DF839
:10CF48001630032B13D100238DF82B3014B1012395
:10CF58008DF81D3004A801F01BFE0246E8B102203E
:10CF6800114921F0A1FB00200DB0BDE8F08F042B82
:10CF780008D19DF829209DF8283013449DF82A20CF
:10CF88001344E1E7022BE1D19DF81730002BDDD0E7
:10CF9800032BD8D0042BD9D1EBE7044935E600BFE1
:10CFA80018370120D1620300F96203001F630300F0
:10CFB80000232DE9F04101298AB00C461546029359
:10CFC80040F206810EF004FD686860B1AB49FBF7DA
:10CFD80043FE40B9AA4921F067FB21F0A7FB0020D6
:10CFE8000AB0BDE8F08104F04DFAC26901238DF85A
:10CFF8001F202622A3498DF82030CDE9031202F123
:10D00800C062A2F1241205920522836A06928DF865
:10D018002130036A4FF444428DF81C3090F82430D4
:10D02800994F8DF81D300023984E8DF81E30ADF8BD
:10D038002220ADF824300DF108083B463246294637
:10D048002046CDF8008022F030FE431C0BD1904BD7
:10D058001B68A34280F0F28004F18044013C55F83B
:10D0680024208C490BE074283CDC60280BDC884BBE
:10D0780089491B6803F18043013B55F823200220AE
:10D0880021F012FBA4E061381328F0D801A353F86B
:10D0980020F000BF8BD1000077D0000031D1000014
:10D0A80029D1000061D1000077D0000077D00000BE
:10D0B800D9D1000053D1000077D0000077D000000C
:10D0C8006FD1000039D1000077D0000077D0000080
:10D0D80077D0000077D0000077D0000041D1000061
:10D0E80045D100006FF4FA6210440928BFD8092816
:10D0F800BDD801A353F820F00DD200001BD20000C8
:10D1080077D000009FD10000ADD10000BBD1000056
:10D11800E7D1000093D100003DD200002FD20000DB
:10D1280001238DF80D3088E701238DF80C3084E752
:10D1380001238DF8243080E70223F6E7574B18685F
:10D1480025F0E6F9ADF8160077E7544B186825F096
:10D15800DFF9ADF8140070E7504B186825F0D8F9DE
:10D168008DF8210069E74D4B186825F0D1F90028A2
:10D1780004DC4B49022021F097FA29E08DF82000C1
:10D188005BE701238DF8253057E7444B186825F0F5
:10D19800BFF9049051E7414B186825F0B9F98DF8AB
:10D1A8001C004AE73D4B186825F0B2F98DF81D00C0
:10D1B80043E73A4B186825F0ABF9831E6C2B0246FF
:10D1C8000AD96E23009302233649184621F06CFAD7
:10D1D8003548FEF73FFD02E78DF81E002DE72F4B7F
:10D1E800186825F095F900F180037F2B024606D9CF
:10D1F8006FF07F0302202D4921F056FAE8E78DF8F9
:10D208001F001AE7254B186825F082F9ADF80E00C3
:10D2180013E7224B186825F07BF9002801DC244924
:10D22800A8E7069009E71D4B186825F071F98DF8F5
:10D23800230002E701238DF82230FEE69DF80C302A
:10D248000BB91C4996E74FF47A71BDF81430BDF953
:10D25800162013FB01F39A4201DB17498AE703A85A
:10D2680001F072FC024620B10220144921F01CFA98
:10D27800B5E6134921F018FAB1E600BFCD3C040029
:10D288003863030000018106A8DE00207A630300EA
:10D29800C4E400203360030006600300183701204F
:10D2A8006A6103000F610300229E030036610300D8
:10D2B8004F630300BF61030089630300B163030088
:10D2C800D463030008B501F003FD024628B1BDE8A8
:10D2D80008400220034921F0E7B90349BDE80840A6
:10D2E80021F0E2B9EA6303001364030008B5114BA7
:10D2F8005A782AB11049012021F0D6F9012008BD39
:10D3080093F8F0200AB10D49F5E793F8AE200AB179
:10D318000B49F0E793F8AF200AB10A49EBE793F815
:10D32800B0200AB10849E6E793F8B1000028E6D032
:10D338000649E0E720EE002052D4030061D4030040
:10D3480074D403008ED403009CD40300B3D4030028
:10D3580010B504F097F80446436B1348C0F8A4309E
:10D3680094F8383080F8A13023891A1F534253416A
:10D3780000F8A03F19F016FD034620B102200B4A21
:10D388000B4921F091F94FF420320023094821F08C
:10D39800A6F930B10220054A0749BDE8104021F03E
:10D3A80083B922890549F8E720EE002070EA0300D6
:10D3B800CDD403006CEB0020FBD4030029D5030077
:10D3C80070B5A0B0064619F0F3FA002104467C2295
:10D3D80001A8009125F0E5F83CB123460220124A45
:10D3E800124921F061F920B070BD00234FF42032BA
:10D3F8000F4821F074F90F4B054638B102200A4A4C
:10D408000D4983F8A84021F04FF9ECE7012269465D
:10D41800304683F8A82083F8A96002F0BDFD0749CB
:10D4280002462846EFE700BF53EA03004CD5030045
:10D438006CEB002020EE00207BD50300A8D503006C
:10D44800014610B520B1BDE81040384822F054BA62
:10D4580004F018F80446364819F080FA024618B164
:10D468000220344921F020F994F82C30EBB194F9DA
:10D4780030200020E18D19F069FD024618B1022024
:10D488002D4921F011F900234FF420322B4821F0C7
:10D4980026F90346002847D002202949294A21F0C5
:10D4A80003F90220284921F0FFF894F8313013B12C
:10D4B80094F832301BB90120244921F0F5F894F88A
:10D4C800311094F8320019F069FD024618B10220B3
:10D4D8001F4921F0E9F800234FF420321D4821F0BC
:10D4E800FEF8034620B10220164A1B4921F0DCF859
:10D4F8001A4B1B78C3B91A481BF02EFA19F038FAE0
:10D50800024618B10220174921F0CEF84FF48032B4
:10D518000023134821F0E3F830B1BDE810400220A1
:10D52800084A114921F0C0B810BD00BFD0D503008A
:10D5380079DB0000F6D5030028D60300CCEB0020E9
:10D5480046D60300B8E903006DD60300BAD6030037
:10D55800DCD60300BCEB002001D7030020EE00203E
:10D568006CEB002030D7030055D70300104B37B5BC
:10D578004FF49C720021184625F013F840F2E73268
:10D588000024A0F8EC2001220A4D80F8D5206FF085
:10D5980006034FF480522846074900941BF0BAFC52
:10D5A800064928461BF032FE204603B030BD00BFB6
:10D5B80020EE002058EF0020C87A01207ED7030013
:10D5C800002307B58DF80000019300220023694667
:10D5D800054824F0C3FD20B1019824F080FF6FF0C6
:10D5E800680003B05DF804FB90EA002073B50546B7
:10D5F80010460E4614461EF005F9019098B12246D1
:10D60800314624F0A7FF8DF8005000220023694618
:10D61800064824F0A3FD20B1019824F060FF6FF0C4
:10D62800680002B070BD6FF00B00FAE790EA0020C6
:10D63800F0B50746ADF2CC5DB6ADB0F9046004466E
:10D648000FCF0FC53B6806EBD6762B60314DC093E4
:10D65800D5E93823CDE9BE23B5F8D6307610ADF834
:10D66800063395F8D8300DF106018DF808330023FC
:10D67800ADF80463ADF8EC3202F0A4FC18B9BDF8BB
:10D688000630ADF8EC3295F8E83021698DF8EE32C5
:10D69800B5F8EA30B1F52F7FADF8F032B5F8EE30D5
:10D6A800ADF8F2322AD80A460DF20930E16824F0C2
:10D6B80051FFD5F818310BB1B6A898474FF43C7212
:10D6C8000920B6A9FFF792FFD5E938232169CDE9EA
:10D6D8000223B5F8D630B1F52F7F0591ADF8123099
:10D6E800ADF8106010D80A4606A8E16824F032FFA9
:10D6F80002A821F0C3F90DF2CC5DF0BD4FF42F72F2
:10D70800054822F0F9F8DFE74FF42F72034822F0BA
:10D71800F3F8F0E720EE002096D70300EDD70300DA
:10D728002DE9F04F0025A1B04C4C7C22294601A8D8
:10D73800009524F036FF94F8313033B90220484977
:10D7480020F0B2FF21B0BDE8F08F2846454920F00F
:10D75800ABFF2846444920F0A7FF2646DFF848914A
:10D76800DFF848A16946284602F016FCB046024692
:10D778004946002020F098FF51460020726B20F0A7
:10D7880093FF002058F8382F384920F08DFF0027E4
:10D79800DFF81CB16946384602F0FEFB0137024645
:10D7A8005946002058F8043F20F07EFF032FF1D19E
:10D7B8000135032D06F11406D4D100202C4920F0A0
:10D7C80073FF00202B4920F06FFF226F00202A49A9
:10D7D80020F06AFF626F0020284920F065FFA26FE1
:10D7E8000020274920F060FFD4F880200020254938
:10D7F80020F05AFF0020244920F056FFD4F8842056
:10D8080000201D4920F050FFD4F8882000201F492F
:10D8180020F04AFF00201E4920F046FFD4F88C2053
:10D8280000201C4920F040FFD4F8902000201A491D
:10D8380020F03AFFD4F894200020184920F034FF53
:10D84800D4F898200020164920F02EFF0020D4F8A4
:10D858009C20144920F028FF74E700BF20EE002028
:10D8680049D803006CD8030085D80300DDD803002D
:10D878002BD9030041D9030047D903005DD9030020
:10D8880078D9030091D90300A7D90300ADD90300C3
:10D89800C3D90300E9D9030010DA030039DA030019
:10D8A8005FDA030082DA0300A5D80300B6D80300C4
:10D8B80001D903000C4B0022194630B45C6894422D
:10D8C80002DC0A2030BC70479D890132854208D8A5
:10D8D800DD89854205D301EBC201C87830BC21F04F
:10D8E80011B80833EBE700BF20EE00202DE9F8431C
:10D8F8001D4C00201D4920F0D7FE002526461C4F50
:10D90800DFF88080DFF880907368AB4201DCBDE807
:10D91800F883627A3946002020F0C6FE227A414612
:10D92800002020F0C1FEA2894946002020F0BCFE5C
:10D93800E28900200F4920F0B7FEE27A0E49002064
:10D9480020F0B2FEE07A20F0DDFF0C49024600200C
:10D9580020F0AAFE94F90A200020094920F0A4FE2C
:10D9680001350834D0E700BF20EE0020A7DA030015
:10D97800BDDA030002DB030019DB030030DB030020
:10D988004ADB0300D4DA0300EBDA030010B50446DF
:10D99800044820F0A2FE2146BDE8104006221420CB
:10D9A800FFF724BE6CEB002008B5018811B10448CC
:10D9B80021F0A2FFBDE80840024820F08EBE00BF5B
:10D9C80062DB03006CEB002010B50446044820F02D
:10D9D80084FE2146BDE8104008221620FFF706BE47
:10D9E8008CEB0020014820F078BE00BF7CEB0020C3
:10D9F80070B5124D0C4695F8D43086B0CBB101887D
:10DA080029B10F4806B0BDE8704021F075BF02F09B
:10DA1800BBF9D4E90023161A63EB0104002CCDE905
:10DA28000464ACBF074C084C8DE81300074821F08C
:10DA380063FF002385F8D43006B070BD20EE0020C7
:10DA48007CDB0300D0DB0300D7DB03009BDB030098
:10DA58002DE9F047018821B1BDE8F047324821F0AF
:10DA68004BBF324F97F8AC4054B94668304866B956
:10DA780021F042FF2F4821F03FFF012387F8AC3007
:10DA88002D48BDE8F04720F028BE21F035FF317859
:10DA98002A4821F031FF7178294821F02DFF3546B9
:10DAA800DFF8C080DFF8C090DFF8C0A07378A34229
:10DAB800E3DD2A792146404621F01EFF6A79214696
:10DAC800484621F019FFAA792146504621F014FF53
:10DAD800AA6821461B4821F00FFF2A7B21461A48D5
