:1080000018240120F9DD0000F7640100E5DD00001F
:10801000E5DD0000E5DD0000E5DD0000E5DD000058
:108020000000000000000000000000007DDF0000F4
:10803000E5DD0000000000000DDF0000E5DD0000D0
:1080400019E1000019E1000019E1000019E1000048
:1080500019E1000019E1000019E1000019E1000038
:1080600019E1000019E1000019E1000019E1000028
:1080700019E1000019E1000019E1000019E1000018
:1080800019E1000019E1000019E1000019E1000008
:1080900019E1000019E1000019E1000019E10000F8
:1080A00019E1000019E1000019E1000019E10000E8
:1080B00019E1000019E1000019E1000019E10000D8
:1080C00019E1000019E1000019E1000019E10000C8
:1080D00019E1000019E1000019E1000019E10000B8
:1080E00019E1000019E1000019E1000019E10000A8
:1080F00019E1000019E1000019E1000019E1000098
:1081000019E1000019E1000019E1000019E1000087
:1081100019E1000019E1000019E1000019E1000077
:1081200019E1000019E1000019E1000019E1000067
:1081300019E1000019E1000019E1000019E1000057
:0481400019E1000041
:108148007BB972B90029BEBF00204FF0004106E09C
:1081580008BF00281CBF6FF000414FF0FF3000F04F
:1081680057B8ADF1080C6DE904CE002909DB002BE6
:108178001ADB00F069F8DDF804E0DDE9022304B059
:108188007047404261EB4101002B1BDB00F05CF8BB
:10819800DDF804E0DDE9022304B0404261EB41016F
:1081A800524263EB43037047524263EB430300F0D0
:1081B8004BF8DDF804E0DDE9022304B0404261EB4E
:1081C80041017047524263EB430300F03DF8DDF88C
:1081D80004E0DDE9022304B0524263EB4303704735
:1081E80053B94AB9002908BF00281CBF4FF0FF3116
:1081F8004FF0FF3000F00CB8ADF1080C6DE904CE7B
:1082080000F022F8DDF804E0DDE9022304B070474D
:10821800704700BF10F8012B11F8013B012A28BF55
:108228009A42F7D0D01A7047034611F8012B03F889
:10823800012B002AF9D17047034613F8012B002AB5
:10824800FBD1181A013870472DE9F04786468C464D
:108258000846089E154674461946002B40F0C18012
:108268008542B2FA82F245D94AB1C2F1200300FA36
:1082780002FC954094402EFA03F343EA0C0C4FEAB3
:10828800154EA8B2230CBCFBFEF80EFB18CC08FB5D
:1082980000F943EA0C43994528D9EB1808F1FF3750
:1082A80004D2994502D9A8F102072B44A3EB09038C
:1082B800A4B2B3FBFEFC0EFB1C330CFB00F044EA3B
:1082C8000344A04214D92C190CF1FF3304D2A04264
:1082D80002D9ACF102032C44241A43EA07401EB128
:1082E800D440002334607360BDE8F0874746DDE77B
:1082F8006346F1E792BB431B01214FEA154EAFB22B
:10830800200CB3FBFEFC0EFB1C330CFB07F840EA09
:108318000343984561D9EB180CF1FF3004D2984516
:1083280002D9ACF102002B44A3EB0803A4B2B3FBBF
:10833800FEFC0EFB1C330CFB07F744EA0344A74280
:108348004DD92C190CF1FF3304D2A74202D9ACF154
:1083580002032C44E41B43EA0040C0E7C2F12003B7
:108368009540944020FA03F12EFA03F34FEA154E94
:108378009040AFB20343B1FBFEFC0EFB1C10190C7E
:108388000CFB07F841EA0041884522D969180CF12D
:10839800FF3004D2884502D9ACF102002944A1EB90
:1083A80008019BB2B1FBFEFC0EFB1C110CFB07F78E
:1083B80043EA01439F420ED9EB180CF1FF3104D276
:1083C8009F4202D9ACF102012B44DB1B41EA004178
:1083D80093E76046E3E76146F7E76046A4E763464C
:1083E800B8E7834206D916B9002108467CE7C6E9F2
:1083F80000E0F9E7B3FA83F78FB9834201D37245F6
:1084080008D8BEEB020460EB030301209C461EB9AA
:10841800002169E73846FAE7C6E9004CF8E7C7F1F2
:10842800200CBB400EFA07F522FA0CF42EFA0CF1D8
:10843800BA401C4320FA0CF3B8404FEA14490143F0
:108448001FFA84FEB3FBF9F809FB18300B0C08FB84
:108458000EFA43EA00439A4540D9E31808F1FF3081
:1084680004D29A4502D9A8F102002344A3EB0A03D7
:1084780089B2B3FBF9F809FB183308FB0EFE41EA91
:1084880003418E452CD9611808F1FF3304D28E457B
:1084980002D9A8F10203214443EA0040A1EB0E01EE
:1084A800A0FB02984145CE46434602D306D14D452E
:1084B80004D20138B9EB020E68EB0403002EA7D0F2
:1084C800B5EB0E0261EB030101FA0CFC22FA07F38B
:1084D800F9404CEA0303C6E9003199E74046C5E78D
:1084E8004346D9E7000000002DE9F04706460F464D
:1084F800904688B00EF0D6FF4FF47A73A0FB034580
:1085080003FB0155E40B012F44EA45444FEAD535F6
:1085180007D122462B46304627490CF0C8FF0020D9
:1085280012E0D8F8047025483946FFF773FE70B199
:1085380039462348FFF76EFE48B130463A4621498E
:108548000CF0D1FF6FF0040008B0BDE8F0872046BA
:1085580017A3D3E900232946FFF7F2FD05460C4689
:1085680010461946184A0023FFF7EAFD80460F46D1
:10857800104619464EF660220023FFF7E1FD8246B9
:108588008946104619464FF47A720023FFF7D8FD42
:10859800CDE902A9CDE90623CDE904012A462346FF
:1085A8003046CDE9008709490CF081FFB7E700BFE5
:1085B800005C260500000000DB9B0100EC9B01002D
:1085C800EF9B0100F89B010080EE3600109C010033
:1085D80008B504480CF091F8BDE8084002480CF0D2
:1085E8008CB800BFAA890100C38901002DE9F047B2
:1085F8002E4E0546336888B003F00703022B05D9D1
:10860800032103462A4A30460CF02CFD00F054FEA4
:1086180058BB0446274FDFF8A080DFF89090D7E8D2
:10862800AF3F03B3336803F00703022B05D90321D7
:108638002346424648460CF015FD22461F49684627
:108648000BF070F800F1010A52466946002000F06C
:10865800DFFD034660B13268520704D00121184A91
:1086680012480CF0FFFC00F0BFFE08B0BDE8F08730
:10867800504601F049FB01344FF0FF324FF0FF3311
:10868800104809F041FE2DB900214FF400400EF0CA
:108698007CFEC4E7A542F7D8336803F00703022B32
:1086A800E1D903212B46084ADAE700BF20C9002098
:1086B8000A8A010004D80020378A0100478A01008D
:1086C800568A0100A8C90020728A010070B5184CAA
:1086D800236803F00703022B04D903212046154A17
:1086E8000CF0B7FC00F0E8FD00BB134D134ED5E8C5
:1086F800AF3F63B1012000F0BDFD034658B12268C9
:10870800520704D001210E4A09480CF0ABFCBDE821
:10871800704000F069BE4FF0FF324FF0FF33304633
:1087280009F0F2FD002001F001FBE0E770BD00BF99
:1087380020C900209F8A010004D80020A8C9002071
:10874800BE8A0100F0B589B02A4E0546336800AFED
:1087580003F00703022B12D96C4688B06A46264BF1
:10876800C2E905304FF400739383244B42F8103F5D
:1087780000234FF4E651304602F0D0FBA5462846C8
:10878800FFF75AFD441C202C28BF202429462246E6
:1087980038460FF046F800F08FFD034680B92246B0
:1087A800394600F035FD034670B13268520704D0EF
:1087B8000121134A0F480CF055FC00F015FE034642
:1087C80018462437BD46F0BD4FF0FF334FF0FF3257
:1087D8000C4809F099FD336803F00703022B04D90C
:1087E8000321094A03480CF034FC204601F08CFAB6
:1087F800E3E700BF20C90020D78A01000300000179
:10880800568A0100A8C90020EB8A0100034BD3E86F
:10881800EF2FC3E8E10F0029F9D17047F0D7002006
:108828002DE9F04F91B0524D00AF2B6803F00703CC
:10883800022B06D94F4B1B68032128464E4A0CF0E1
:1088480011FC00F039FD0446002800F089802B68EF
:108858005B0704D00121494A45480CF0FAFB002087
:10886800FFF7D4FF4437BD46BDE8F08F2346524694
:10887800402138460AF02AFF0EF014FE4FF47A7BA6
:10888800A0FB0B030BFB01313D4EC00B40EA4140FE
:10889800C90BC6E9000100F0AFFC3846FFF7CCFC75
:1088A8003946421C002000F0B3FC4FF0FF324FF075
:1088B800FF33344809F028FD012000F0DBFC0028D4
:1088C80043DB4FF0FF324FF0FF332E4809F01CFD19
:1088D8000EF0E8FD2B6803F00703022B1ED9A0FB5E
:1088E8000B030BFB0131C20B42EA4142D6E90006F9
:1088F800C90B101A61EB06016E468AB06A46224B14
:10890800C2E90801C2E90534062342F8103F0023F2
:108918004FF44351164802F001FBB54601344FF4B9
:10892800A47000210EF031FDD9E8AF3F1BB1D8F893
:108938000030A3429AD800F057FD2B6803F00703D4
:10894800022B8CD90321114A86E72B6813F0060FF6
:10895800E4D0022123460E4A05480CF083FBDDE7EC
:10896800DFF83090DFF80C80DFF82CA0DCE700BFE0
:1089780038C90020E8D70020448B0100028B010091
:1089880078CA0020A8C900206C8B0100948B0100D4
:10899800838B0100F0D70020638B0100F0B52F4CCA
:1089A80091B0236803F00703022B04D90321204662
:1089B8002B4A0CF04EFB00F07FFC00BB294F2A4EDF
:1089C8002A4DD7E8AF3F63B1012000F053FC031EE6
:1089D80023DA2268520704D00121254A1F480CF0E7
:1089E80041FB00F001FD236803F00703022B04D9C3
:1089F8000321204A19480CF02CFB11B0F0BD236864
:108A0800590704D001211C4A14480CF022FB00200D
:108A180011B0BDE8F040FFF7F9BE4FF0FF324FF05C
:108A2800FF33304609F070FC2B684021134A684632
:108A38000AF04CFE6846FFF7FFFB6946421C00201F
:108A480000F0E6FB4FF0FF334FF0FF32304609F0FD
:108A58005BFC2B6801332B60B3E700BF38C90020EB
:108A6800AA8B0100F0D70020A8C90020ECD700206D
:108A78001B8B0100BF8B0100028B0100298B0100B9
:108A880010B588B0154BD3E8AF4F64B114480368EC
:108A980013F0060F03D00221124A0CF0DAFA6FF035
:108AA8000F0008B010BD204600F09CFB0120FFF726
:108AB800ADFE0D4B1C6000220023CDE906230523E3
:108AC8004FF40062CDE90243CDE90044074B084961
:108AD8000848049409F0FAFC2046E2E7F0D70020A1
:108AE80038C90020D48B0100ECD70020A5890000EC
:108AF800D8E30020C0C9002010B588B0154BD3E8D2
:108B0800AF4F64B11448036813F0060F03D0022175
:108B1800124A0CF09EFA6FF00F0008B010BD104B0F
:108B280018600120FFF772FE00F05CFB00220023B2
:108B3800CDE9062305234FF40062CDE90243CDE9D0
:108B48000044084B08490948049409F0BFFC204632
:108B5800E3E700BFF0D7002038C90020D48B01001C
:108B6800E8D7002029880000D8E30020C0C90020E9
:108B780008B50A4BD3E8AF3F73B10948036803F05F
:108B88000703022B03D90321064A0CF062FABDE859
:108B980008400020FFF73ABE08BD00BFF0D700200C
:108BA80038C90020328B0100034BD3E8EF2FC3E80C
:108BB800E10F0029F9D17047FCD700202DE9F04FCB
:108BC80091B0524D00AF2B6803F00703022B06D972
:108BD8004F4B1B68032128464E4A0CF043FA00F01D
:108BE8006BFB0446002800F089802B685B0704D0E3
:108BF8000121494A45480CF02CFA0020FFF7D4FF20
:108C08004437BD46BDE8F08F2346524640213846DA
:108C18000AF05CFD0EF046FC4FF47A7BA0FB0B03D8
:108C28000BFB01313D4EC00B40EA4140C90BC6E980
:108C3800000100F0E1FA3846FFF7FEFA3946421C17
:108C4800002000F0E5FA4FF0FF324FF0FF333448D0
:108C580009F05AFB012000F00DFB002843DB4FF020
:108C6800FF324FF0FF332E4809F04EFB0EF01AFC8E
:108C78002B6803F00703022B1ED9A0FB0B030BFB89
:108C88000131C20B42EA4142D6E90006C90B101A6B
:108C980061EB06016E468AB06A46224BC2E90801BA
:108CA800C2E90534062342F8103F00234FF443512C
:108CB800164802F033F9B54601344FF4A470002188
:108CC8000EF063FBD9E8AF3F1BB1D8F80030A342E0
:108CD8009AD800F089FB2B6803F00703022B8CD984
:108CE8000321114A86E72B6813F0060FE4D002210E
:108CF80023460E4A05480CF0B5F9DDE7DFF8309059
:108D0800DFF80C80DFF82CA0DCE700BF18C90020D2
:108D1800F4D70020438B0100028B010038CB0020E0
:108D2800A8C900206B8B0100938B0100828B010086
:108D3800FCD70020628B0100F0B52F4C91B023685E
:108D480003F00703022B04D9032120462B4A0CF019
:108D580080F900F0B1FA00BB294F2A4E2A4DD7E816
:108D6800AF3F63B1012000F085FA031E23DA2268C1
:108D7800520704D00121254A1F480CF073F900F06E
:108D880033FB236803F00703022B04D90321204A8D
:108D980019480CF05EF911B0F0BD2368590704D0EA
:108DA80001211C4A14480CF054F9002011B0BDE808
:108DB800F040FFF7F9BE4FF0FF324FF0FF33304677
:108DC80009F0A2FA2B684021134A68460AF07EFC93
:108DD8006846FFF731FA6946421C002000F018FA8D
:108DE8004FF0FF334FF0FF32304609F08DFA2B6811
:108DF80001332B60B3E700BF18C90020A98B01001D
:108E0800FCD70020A8C90020F8D700201B8B010040
:108E1800BE8B0100028B0100298B010010B588B0C0
:108E2800154BD3E8AF4F64B11448036813F0060F2D
:108E380003D00221124A0CF00CF96FF00F0008B0B1
:108E480010BD204600F0CEF90120FFF7ADFE0D4B16
:108E58001C6000220023CDE9062305234FF400629D
:108E6800CDE90243CDE90044074B0849084804947A
:108E780009F02CFB2046E2E7FCD7002018C90020A7
:108E8800D38B0100F8D70020418D0000D8EB0020DB
:108E980080CA002010B5164B88B01860154BD3E86F
:108EA800AF4F64B11448036813F0060F03D00221D2
:108EB800124A0CF0CEF86FF00F0008B010BD012078
:108EC800FFF772FE00F08EF900220023CDE9062399
:108ED80005234FF40062CDE90243CDE90044084B75
:108EE80008490948049409F0F1FA2046E5E700BF6B
:108EF800F4D70020FCD7002018C90020D38B01002C
:108F0800C58B0000D8EB002080CA002008B50A4BAA
:108F1800D3E8AF3F73B10948036803F00703022B96
:108F280003D90321064A0CF094F8BDE80840002054
:108F3800FFF73ABE08BD00BFFCD7002018C90020C3
:108F4800E98B01002DE9F8430346D0E902018D4E73
:108F58001A78C6E9000100AF122A22D8DFE812F019
:108F68001300240044004C0033003B00540054001C
:108F78002100560021006D00210021002100210060
:108F880021002100FA001B8A002B3DD07E48026890
:108F9800520703D07D4A01210BF017F901227C4BBF
:108FA8001A70BD46BDE8F8831B8A43B1764802684B
:108FB8005607F6D0774A01210BF007F9F1E7764812
:108FC8000BF001F9EDE71B8AF3B16F48026855070A
:108FD800E4D0724ADFE71B8A002BF0D06A480268A7
:108FE8005407DED06E4AE6E71B8A6BB16648026812
:108FF8005107D6D06B4ADEE79B8A2BB162480268DC
:109008005207CED0684AD6E76848D9E7684A127846
:109018003AB1684A147824B1674CC4E900010021C8
:1090280011705948026802F00702022AB9D91B8C4C
:1090380003215BBA614A9BB2BEE7D3E90758002D0A
:10904800AFD0B8F1000FACD04F4CB8F1030F236884
:1090580003F0070921D8B9F1020FA2D94346032129
:10906800574A49480BF0B1F8236803F00703022B6D
:1090780097D96C4688B06A46524BC2E905354FF419
:1090880000739383504B42F8103F00234FF4E6518E
:109098003D4801F043FFA54683E7042228464B4993
:1090A8000EF02CFC00284DD1B9F1020F1DD9434612
:1090B80003212046424A0BF088F8236803F007038F
:1090C800022B12D9E84688B06A46414BC2E90535F9
:1090D8004FF4007393833C4B42F8103F00234FF446
:1090E800E651294801F01AFFC546D6E90001304B80
:1090F8001B78002B3FF455AF2F4BD3E9002523688D
:1091080003F00703022B7FF64CAF801A61EB0501D1
:109118006D468AB06C462F4B4FF47A72C4E905301D
:10912800E1610023FFF70CF822460623C4E9080191
:1091380042F8103F00234FF44351134801F0EEFE6C
:10914800AD462EE70422284623490EF0D7FB002817
:1091580081D1A9E70C48036813F0060F3FF421AF4B
:109168006C4688B06A461D4B53611D4B93614FF4A2
:1091780000739383144B42F8103F00234FF4E451DB
:1091880087E700BF48CB00200CC90020018C0100F4
:109198007CDF0020158C010078C900202B8C010091
:1091A800438C01005D8C0100768C0100A8C9002069
:1091B8007BDF00207ADF002040CB0020928C01006A
:1091C800BE8C0100158D010003000001B48C010064
:1091D800D98C0100EC8C0100B98C0100288D0100AC
:1091E800F48F01000022024B1870024B1A7070476E
:1091F8007BDF00207ADF0020034B1B7813B10122AC
:10920800024B1A70704700BF7BDF00207ADF002016
:1092180070B545F601330D4600218CB0CDE900311B
:10922800104B14461A68104B06461B6802A803F038
:10923800070343EA021320228DF804300EF018FBCE
:109248005B230593094B02A81B68CDE90A54ADF8C6
:109258001A30074B04960793CDF820D008F03CFA53
:109268000CB070BDC8C70020CCC70020D0C70020F4
:1092780080D5040010B58AB004462822002168462B
:109288000EF0F6FA5B230393C4238DF81630084BCF
:1092980068461B680294ADF81830064B079340F2F5
:1092A8005B13ADF8203008F0D3F90AB010BD00BF49
:1092B800D0C7002000B01E0470B506F081F904463E
:1092C80048B13C4803685A0728D023463A4A012146
:1092D8000AF07BFF22E0394808F00EF9044630B165
:1092E800344803685B0719D02346354AEFE708F08E
:1092F8000DF9044630B12F4803685E070ED02346A7
:10930800304AE4E7304D4FF0FF334FF0FF322F483B
:109318000AF05DFF2B781BB16FF00404204670BD86
:109328002B4808F01DFA044630B1224803685D074F
:10933800F4D02346274ACAE74FF0FF334FF0FF32F5
:1093480022480AF044FF2B78002BE5D1204608F08C
:109358001DF9044630B1174803685907DED0234683
:109368001D4AB4E74FF0FF334FF0FF3217480AF0B9
:109378002EFF2B78002BCFD1184E0E4D02213046F0
:1093880005F040FD2B6803F00703022B05D90321E4
:1093980028463388124A0AF018FF08F039F90346BC
:1093A8000028BBD02A685207B8D001210D4A0148CD
:1093B8008EE700BF0CC900203C8D01004D8F0000D6
:1093C800568D01008A8D01007CDF0020A8C900208D
:1093D800C0C70020B18D0100DD8D010074DF0020C1
:1093E800088E0100308E010038B5234D2B6803F03C
:1093F8000703022B04D903212846204A0BF029FE33
:1094080008F0E6F8044650B12B68590705D0034622
:109418001B4A012118480AF0D8FE204638BD4FF0F3
:10942800FF324FF0FF3317480AF0D1FE08F08EF8EC
:10943800044628B12B685A07EFD00346124AE8E7DA
:109448004FF0FF334FF0FF320E480AF0C0FE06F02F
:10945800E1F82B68044620B15B07DED003460B4ACF
:10946800D7E703F00703022BD7D90321084A02489C
:109478000BF0EFFDD1E700BF0CC90020618E0100A1
:109488007C8E010078C90020A98E0100D48E0100CD
:10949800FC8E010078B1094A094B12681B68C27238
:1094A800084A03811268002302735B2283724260B8
:1094B8000380184670476FF015007047CCC700202E
:1094C800D0C70020C8C7002073B50E466FF4CF611F
:1094D8004318142B044615461AD8C20718D5284B2A
:1094E800042E18602ED9274C2368580726D03346F7
:1094F80001212046244A0AF068FE236859071DD036
:109508006FF0150300933346204A0121204613E0EB
:109518001C4D2B685B0711D02346012128461C4AA5
:109528000AF053FE2B685E0708D06FF0150301217F
:10953800009328462346174A0BF09EFD6FF015004E
:1095480002B070BD144B1E6005F11E03312B12D9F9
:109558000C4C23685A07F1D02B46012120460F4AAC
:109568000AF033FE23685B07E8D06FF015030C4A56
:1095780000932B46C9E70B4B00201D60E0E700BFB6
:10958800D0C700200CC90020708F01007F8F010018
:10959800108F01003E8F0100CCC70020AD8F010065
:1095A800C18F0100C8C70020431E0A46D9B203294B
:1095B80015D80C4951F8330001EBC301012309798F
:1095C80003FA01F103691B68194218BF82F001020E
:1095D80012B18368DB68184783681B69FBE76FF083
:1095E800150070479483010030B585B0044668467D
:1095F800FFF750FF054638B10246174920460BF0E1
:1096080072FF284605B030BD204614490BF04FFFC5
:109618002046BDF8002012490BF049FF2046019A68
:1096280010490BF044FF2046BDF808200E490BF006
:109638003EFF20469DF80A200C490BF038FF2046D3
:109648009DF80B200A490BF032FF20469DF90C20AB
:1096580008490BF02CFFD4E70D900100279001007A
:10966800469001005C900100769001008C9001000A
:10967800A2900100B8900100F0B5032904461346F2
:1096880087B00ED06FF01D0313210022CDE9003101
:10969800042340490BF00BFF6FF01506304607B066
:1096A800F0BD0021576898680A220AF063F8054659
:1096B80002A8FFF7EFFE064628B1024636492046C3
:1096C8000BF011FFEAE738463449FEF7A3FD00BB6B
:1096D8006FF4CF62AB18142B01D8EB070AD440F211
:1096E8008D632A46009340F279632D4920460BF09A
:1096F800FAFED1E7ADF810509DF914209DF813102B
:10970800BDF81000FFF7E0FE064658B302462549AB
:10971800D5E738462449FEF77DFD034648B9042DB0
:1097280004D90422214900922A46DFE78DF8135014
:10973800E2E738461E49FEF76DFD68B905F11E03DC
:10974800312B06D913232A4600931A496FF01D03BB
:10975800CCE78DF81450CFE73A46204616490BF06F
:10976800C2FE99E7204615490BF0A1FE2046BDF838
:10977800102013490BF09BFE20469DF81320114939
:109788000BF095FE20469DF914200F490BF08FFE33
:1097980084E700BFCE9001000D90010041910100C7
:1097A80049910100FF910100779101007B9101002F
:1097B8009E910100A4910100D49101002192010021
:1097C80032920100429201005292010010B5044603
:1097D800FFF79CFBFFF7CCF9204602490BF067FE28
:1097E800002010BD66920100022970B51346064696
:1097F80006D010490BF05BFE6FF01504204670BDD3
:109808000A22002158680AF02BF8C5B20021284620
:10981800FFF7CAFE044630B103462A4630460649D9
:109828000BF045FEEAE72A46304604490BF03FFEB6
:10983800E4E700BF7492010090920100B392010026
:10984800022970B51346064606D010490BF02FFEC4
:109858006FF01504204670BD0A220021586809F0EF
:10986800FFFFC5B201212846FFF79EFE044630B12E
:1098780003462A46304606490BF019FEEAE72A460F
:10988800304604490BF013FEE4E700BFC59201001F
:10989800E0920100029301000129F8B505460E4641
:1098A800144615D830490BF002FE28462F490BF014
:1098B800FEFD28462E490BF0FAFD2E4928460BF0EE
:1098C800F6FD2D4928460BF0F2FD6FF0150422E055
:1098D80057682A493846FEF79DFC38B9FFF79EFAC3
:1098E8002749284B041E18BF194619E0264938464F
:1098F800FEF790FC0146B8B9022E0ED00A22E068A5
:1099080009F0AEFFFFF7C6FA044640B102461F4908
:1099180028460BF0E8FD2046F8BD0520F2E71C4973
:1099280028460BF0C4FDF6E738461A49FEF772FCE4
:1099380060B9022E08D0A0680DF0A2FFFFF7DCF88E
:109948001549164B041ECEE70520F7E7384614499B
:10995800FEF760FC28B9FFF793F81249124B041E72
:10996800C1E71249AEE700BF659301006D9301009E
:109978009B930100C9930100FF93010035940100F6
:109988001393010028930100389401003B940100CF
:109998005A940100F99401003D930100519301008C
:1099A800DEA00100149301002993010070940100C6
:1099B800012970B5054606D80C490BF094FD6FF0E7
:1099C8001504204670BD56683046FEF7BBFE0446B7
:1099D80028B10246064928460BF085FDF1E73246D4
:1099E800284604490BF063FDEBE700BF959401009E
:1099F800B2940100C794010038B5174C174D23687D
:109A080003F00703022B05D92B7803212046144ABB
:109A18000BF028FB2B78742B17D1124B1868FEF724
:109A2800E5FD0022104BD3E8EF1FC3E8E02F002824
:109A3800F9D1236803F00703022B0BD9BDE838409E
:109A480003210A4A04480BF004BB722BE9D1FEF744
:109A58003DFEE6E738BD00BF3CC90020BCC8002079
:109A6800DD94010000D8002004D80020FB940100F8
:109A78002DE9F3474FF0000901274D46244CDFF844
:109A8800948020680DF0FEFA013598B9D8F80030B6
:109A9800590705D001212B461F4A1E480BF0E2FA50
:109AA8006FF01209042D04F10804EAD1484602B007
:109AB800BDE8F08720682179E388D0F810C0DA077C
:109AC800DCF8006054BF43F4B01383F4D01323F4DC
:109AD800801207FA01FEDB07D0F808A04CBF4EEA57
:109AE800060626EA0E06CCF80060DAF80030984739
:109AF80006460028D6D0074803685B0705D0012131
:109B08002B46064A00960BF0B7FAB146CAE700BFE3
:109B1800948301003CC9002010950100279501009D
:109B2800F0B5012904460E46134689B006D82C49DB
:109B38000BF0BDFC6FF0150009B0F0BD5268157848
:109B4800742D03D0722D10D02649F1E7264AD2E8A9
:109B5800AF1F002936D1254F022E39600BD00A22BB
:109B6800986809F07DFE386005E01F4BD3E8AF3FE9
:109B780043BB1E4A136001221D4B1D701A4BD3E8CC
:109B8800EF1FC3E8E02F0028F9D100220023CDE918
:109B9800062300230522CDE90133CDE903230093F1
:109BA8004FF48052134B1449144808F08FFC742D5D
:109BB80014D10E4B1A6862B1204611490BF077FC9C
:109BC8000020B9E720460F490BF071FC6FF00F0039
:109BD800B2E70D4920460BF06AFCF1E70B49F9E7BB
:109BE80044950100A295010004D8002000D8002067
:109BF800BCC80020019A0000D8F3002050CB0020F8
:109C0800D4950100BC950100F09501002196010052
:109C180010B5094BD3E8AF2F22B908490BF047FC20
:109C2800002010BD0022D3E8EF1FC3E8E42F002C6A
:109C3800F9D10349F2E700BF04D800203B960100A0
:109C48005296010008B50A4B1B787BB10DF02AFC2F
:109C58004FF47A72A0FB020302FB0131054AC30BE1
:109C680043EA4143116953615B1A936108BD00BF20
:109C78007DDF002008CC0020302208B500210348F1
:109C88000DF0F6FD0022024B1A7008BD08CC00202A
:109C98007DDF002008B5FFF7EFFF0122074B1A70A0
:109CA8000DF000FC4FF47A72A0FB020302FB0131B5
:109CB800C00B034A40EA4140106108BD7DDF002027
:109CC80008CC002008B50B4B1A788AB100221A700C
:109CD8000DF0E8FB4FF47A72A0FB020302FB01319E
:109CE800054AC30B43EA4143116953615B1A936107
:109CF80008BD00BF7DDF002008CC0020014B18788C
:109D0800704700BF7DDF0020064B1B7843B1064B30
:109D18001A6801321A609A6802449A60FFF792BF83
:109D2800704700BF7DDF002008CC0020064B1B7861
:109D380043B1064B5A6801325A60DA680244DA6065
:109D4800FFF780BF704700BF7DDF002008CC0020F0
:109D580030B5044640B1054D0FCD0FC40FCD0FC42B
:109D680095E80F0084E80F0030BD00BF08CC002044
:109D780010B50446FFF78EFF204602490BF097FB0B
:109D8800002010BDA798010010B50446FFF79AFF00
:109D9800204602490BF08BFB002010BDB69801004D
:109DA80010B50446FFF768FF204602490BF07FFB19
:109DB800002010BDC598010030B591B0044604A834
:109DC800FFF7C6FFFFF79AFF079B18490393069B07
:109DD800174A0293059B002818BF0A460193049B63
:109DE8002046009313490A9B0BF061FB0A9ACAB1FB
:109DF8004FF4FA500799069B41434343B1FBF2F1F4
:109E08004FF47A70B3FBF2F3B1FBF0F5B3FBF0F269
:109E180000FB151100FB1233CDE90051204606491D
:109E28000BF045FB002011B030BD00BFD2980100F7
:109E3800D6980100D9980100609901002DE9F04FEA
:109E480091B0009302F004030293C2F3C2030133FA
:109E5800840705460E46DDF868800392059340F0B6
:109E6800BB81041D30B1072909D86FF01B0011B060
:109E7800BDE8F08F01F007063444C6F10806009BE0
:109E88004FF000094FF0040A591E4FF0FF334F46B8
:109E98000193CB465346CDF810900DB1009A22603D
:109EA8000598002800F3E8809848009A824203D376
:109EB80097488242C0F0E080039AA4EB050E92070F
:109EC8004FEA9E0000F103810F2F00F2B180002DB0
:109ED80000F0058107F140020DEB020C019A0CF825
:109EE800200C0CF8102C049801300490E7E07A2834
:109EF8005DD84B280ED8472859D829282DD8252889
:109F080052D054D820287AD02338D0F1000B4BEB0C
:109F1800000B74E04C382E2849D8DFE800F0704870
:109F2800484848484848484848484B4848484848A6
:109F380048484859484B4B595959704B6D487048D7
:109F4800184B184848827F4B48484B487F000020F0
:109F58004FF0000B4FF0040A38E001222A38C0B253
:109F680002FA00F010EA0E0F49D110F0625C2FD10E
:109F780010EA020B43D06046013C5444B4FBFAF4A7
:109F88000AFB04F4002D61D0A3EB050CA444B445EE
:109F98003FF66BAF002868D1042B47D158F8043B33
:109FA8002360042304342AE0019A013A01924FF015
:109FB800000B24E011F8010C6C2834D1002011F8B2
:109FC800023C83466C2BC5D14FF0080A5346D3E7B1
:109FD80008F1070828F00708073424F00704F8E810
:109FE80002AB35B106982044B0423FF63EAFC4E913
:109FF80000AB4FF0000B08344FF0080A534611F835
:10A00800010F002878D0BBF1000F7FF470AF25282E
:10A01800F5D14FF0010B019B013301934FF0040A76
:10A02800ECE7584694E700208346A5E7082B02D0C2
:10A038006FF015001BE708F1070828F00708F8E893
:10A048000223C4E9002308230834D8E768B9042B9D
:10A0580002D108F10408A4E7082BE9D108F10708A0
:10A0680028F0070808F10808EDE7059A013A059273
:10A0780058F8042B009210E7039A900720D54FF068
:10A08800010CA4EB050E4FEA9E00BEF5007FCFD26F
:10A098000F2FCDD8F5B107F140020DEB020E019A52
:10A0A800C0B20EF8200C0EF8102CBCF1000F3FF4D3
:10A0B8001AAF60F07F000EF8200C09F10109013792
:10A0C800C5F108024FF6DA7E0434069297E74FF09E
:10A0D800000CDAE7BCF1000F01D00136EFE7029877
:10A0E80002360028EBD10098CDE90631FEF7A4F836
:10A0F800DDE906310644E2E7631BB3F5806F97D2CA
:10A1080045B9A6F10804E018B1E600BF647B010078
:10A1180090B60100029A9B0828602B709DF81030B9
:10A12800C2B1EB7085F80290B9F1000F05D000229A
:10A1380008A8C5F1010C97420ED14FF0000AC5F1ED
:10A1480001030DF1200801930DF1300B574512D191
:10A15800601B8CE66B70E5E710F8013B190608D523
:10A168000CEB040EB64503F07F033FF67EAE04F811
:10A17800013B0132DFE7B9F1000F03D098F9002065
:10A18800002A17DB029BD3B11AF80B2004F8012B25
:10A198000022019B18191044B0423FF666AE98F8A9
:10A1A8000000009904F8010B204603920DF039FBDA
:10A1B800039A14440AF1010A08F10108C6E798F85D
:10A1C800002055F822300093029B009845F8223071
:10A1D800FEF732F8421CDCE76FF00D0047E600BFDF
:10A1E8002DE9F04F97B000AFD7F880B03B62CBF3C2
:10A1F800C0030446894690F802A0FA62BB6141B9DF
:10A20800457800780AEB800020444D4517D8A0EB2C
:10A218000409E378FB61BAF1000F02D01BF0010FCB
:10A2280016D1FB6953BBFB6A1BB1494620463A6A03
:10A2380098474D4628465C37BD46BDE8F08F461C1A
:10A248003046FDF7F9FF0130304409F10109DCE738
:10A25800626823787A62FA6A9900796104EB83016B
:10A26800002A40F005810E464FF000084D4601EBEC
:10A278000A094E4550D101EB0A0610E01BF0020F07
:10A28800D1D023789A007A61626804EB83017A62FC
:10A29800FA6A002A7BD14D46904601EB0A061BF06C
:10A2A800050F0CBF02230123FB62FB6906EB430A7F
:10A2B8000BF00203BB625645BCD016F8021B16F819
:10A2C800013C54F823909B4B994502D39A4B9945EE
:10A2D8003AD3BB69002B44D0786A0AF0E7F9002822
:10A2E8003FD09648036813F0060F13D0E9468AB0AA
:10A2F8006A46934B53617B6AC2E906314FF4007397
:10A308001384904B42F8103F00234FF4125100F091
:10A3180005FECD46023DCEE716F8013BF96254F83A
:10A328002300FDF789FFD7F88430F96A01304BB173
:10A33800D7F8883098453EBFD7F8843023F81800FE
:10A3480008F10108054494E7BB6923B1786A0AF06B
:10A35800ADF90028C5D11BF0010F05D1FB6AED1A34
:10A36800A9E7BB6A002BA6D04846FDF765FFD7F8DA
:10A37800843053B1D7F8883098453FBFD7F8842048
:10A38800431C22F8183008F10108054493E7BAF194
:10A39800000F73D01BF0040673D0D046002607F1D7
:10A3A800480052463B61B9620DF03BFAB96A3B6915
:10A3B80001EB0A02BA62FA69F9695200FA60BA6AEC
:10A3C80002EB41023A610BF00202BA603A69B96ADB
:10A3D8008A4258D162781BF0020F18BF00217A62B6
:10A3E80008BF4FEA5801B2181BF0010FD2B240F073
:10A3F8009F801BF0040F14BF40460020BB616270B1
:10A40800A070E17020463A6A7969FB6A9847051E90
:10A41800FFF610AFBB69414623707B6A3A6A6370E6
:10A42800FB6984F802A0E37007F14800FB6A9847CB
:10A43800B0F10008C0F2BA807B69A9EB0A01C91A19
:10A44800FB683A6AC91AD7E90A0398470028C0F294
:10A45800AF804FF0000BA84408EB000507F1380A5D
:10A46800B34571D300213A6A0846FB6A9847E1E68A
:10A4780056464FF0000807F1380092E75646D04696
:10A4880096E7B04694E7BA6A12F8021B12F8015C24
:10A49800BA6254F82500274A904202D3264A9042CD
:10A4A8001ED3BA6932B1786A7B600AF0FFF87B681C
:10A4B80000288BD1BA6802BB08F1280207F1300CDA
:10A4C80008F10100944407F1580208F1020852FA11
:10A4D80080F00CF8101C5FFA88F800F8105C75E73B
:10A4E800BA693AB1786A7B600AF0E0F87B680028BC
:10A4F8007FF46CAF1BF0010F09D006F1280207F1B9
:10A508003000711C161806F8205CCEB25EE71BF00E
:10A51800040F3FF45BAF08F1280207F1300008F19F
:10A52800010102EB000808F8105C5FFA81F84DE7BA
:10A53800002063E7647B010090B6010010C9002089
:10A54800A1990100040000011BF80A3054F8239077
:10A5580087F83730D7F884302BB3D7F888309B4545
:10A5680021D2D7F8843033F81B8001213A6AFB6A7C
:10A5780007F13700984700281ADB0544B8F1000FA7
:10A5880006D14846FDF758FE00F101081FFA88F881
:10A59800414648463A6AFB6A9847002808DB054462
:10A5A8000BF1010B5CE74FF00008DEE7454641E69A
:10A5B80005463FE6014B1860704700BFD4C700202E
:10A5C80080B505460E461746984608F0DBFA03465E
:10A5D8000DF0BAFA0446DFF81890424649F8003000
:10A5E80039463046A84754F8090003F075FC00BF07
:10A5F800080000002DE9F047058B0446280790461F
:10A6080011D4022905F0070540F0CC8020460AF055
:10A61800EDFA78B10138218B042811D8DFE800F071
:10A62800C2106D85950001290CBF45F0100545F055
:10A638002005258388F31188BFF36F8FBDE8F08765
:10A6480001F0070AAA4500F0A5800027B9463E4652
:10A65800A368002B00F0BC8041F00801218388F337
:10A668001188BFF36F8FA168002900F0BA800D68C8
:10A67800002900F0B680334652462046D1F80480BF
:10A68800C047002D76D02B6829461D46F0E701F01B
:10A6980007035A1F012A1BD8002221F00701062BA5
:10A6A800276889B2C4E9002209D13B4603E0628BDE
:10A6B800013262831B68002BF9D141F00201204668
:10A6C80021830AF093FA00287AD041F0200176E03D
:10A6D800042B0AD121F0070189B2204621830AF010
:10A6E80085FA10B141F020012183218B01F0070A7E
:10A6F800AA454FD00027B946AAE7236921F00701E8
:10A7080041F00601062DD3F8009021832DD1B9F12F
:10A71800000F3FD041F00801218388F31188BFF36F
:10A728006F8F20463949C84729E021F0070123697E
:10A7380041F0040189B2042DD3F804902183E6D0B6
:10A7480000274FF0040A3E4682E721F007012369FB
:10A7580041F0050189B2052DD3F808902183D6D0A0
:10A7680000274FF0050A3E4672E700274FF0060A19
:10A778003E466DE72B4687E7B9F1000FD1D1EFF3DD
:10A788001188202383F31288BFF36F8F238B23F064
:10A7980008032383258BEA062ED525F0100323838F
:10A7A80005F007056669218B002EBFF670AF002300
:10A7B8002768C4E9003321F0070141F00101218332
:10A7C800218B4FF0000901F0070AAA457FF440AF3A
:10A7D800002F9CD041F00801218388F31188BFF332
:10A7E8006F8F002FC8D03D68394633465246204601
:10A7F8000AF028FA2F46F4E7AB067FF51BAF25F0E1
:10A808002003238305F0070500E700BF794C01000A
:10A818002DE9F047044607464FF00109DFF850805C
:10A8280014B93846BDE8F08794FAA4F5B5FA85F569
:10A8380009FA05F32E0108EB05156FEA030A24EA65
:10A8480003042B7B002BEBD058F806301B694BB95F
:10A858004644736804222846196807EA0A070AF07A
:10A8680075FBDDE7284698470028D9D1F0E700BFF7
:10A87800647F010030B5002289B00F490F480CF001
:10A8880058FE002200230024CDE906230E230C4D98
:10A89800CDE903344FF440722846CDE90144094B11
:10A8A8000949009407F012FE0849284607F052FDAE
:10A8B800204609B030BD00BFD9A80000F8D000205C
:10A8C80038CC00201DAC0000D8030120559A0100A7
:10A8D800014807F0DFBC00BF90C900202DE9F04710
:10A8E800804621480F460AF00DFB0646002833D063
:10A8F80000252846BDE8F087237B83B12368DB6801
:10A908000BB120469847636883F8069023681B6953
:10A91800D3B963680422204619680AF017FB013688
:10A9280010345445E8D3B8F1000FE2D0002DDFD041
:10A938002846FFF76DFF0546002FF7D000214FF49A
:10A94800A4700CF022FDF1E7204698470028E0D0DB
:10A9580009FA06F31D43E2E705464FF00109034CE7
:10A96800DFF80CA0DDE700BF18D80020647F0100E5
:10A97800747F010008B5034608462BB1044A1360EA
:10A9880000F06EFD002008BD6FF01500FBE700BF6A
:10A99800D8C7002010B5044C237813B9034807F032
:10A9A80079FC0123237010BD7EDF002090C90020B0
:10A9B80010B5044609480AF0A5FA3CB1084BD3E89B
:10A9C800EF1F0139C3E8E21F002AF8D105480CF04F
:10A9D800BCFDBDE81040044807F05CBC10D800205E
:10A9E80014D80020F8D0002090C90020002001468B
:10A9F800034BD3E8EF0FC3E8E21F002AF9D17047F1
:10AA080010D8002070B5FFF7F1FF0546074C084E37
:10AA1800B44200D370BD63685B792BB123685B686F
:10AA280013B12946204698471034F1E7647F0100A6
:10AA3800747F010010B5044C0449204609F06FFFEB
:10AA4800034B1C6010BD00BFC8C80020B4830100C0
:10AA580008D8002000230E4A10B513700D4A4FF491
:10AA6800004113600C4A0D481360FFF783FFFFF79E
:10AA7800E1FF00F07DF90A4B0A4918468B4200D3E2
:10AA880010BD1A1A5C681211013222711033F5E7F1
:10AA98007FDF002010D8002014D80020094F0100C3
:10AAA800647F0100747F01000146002200230148F1
:10AAB80009F056BFC8C80020014809F0EFBF00BF21
:10AAC800C8C80020024B014618680AF03BB800BF0E
:10AAD80008D8002001480AF070B800BFC8C8002094
:10AAE8002DE9F041344B1878002862D0FFF7E4FFD5
:10AAF8000446002859D1314B314C1B68002B19DD15
:10AB08000CF0D0FC4FF47A72A0FB020302FB013177
:10AB1800C30B43EA4143D4E900209B1A40F2E932CF
:10AB28004FEAD13161EB0001934271F1000101D389
:10AB3800FFF768FFD4E9003213F57A7342F1000297
:10AB4800C4E90032BDE8F041FFF7C4BF6B685B7928
:10AB58003BB121784B0713D52B68214628461B6843
:10AB6800984710354545F1D32046FFF7ABFF154B05
:10AB7800D3E8EF1F0139C3E8E21F002ABBD0F7E78B
:10AB880020462688C1F3C20700F0A8FAC6F3821649
:10AB98000246002EE0D00028DEDB01233946284695
:10ABA80000F096F9B042DCD3D6E7074DDFF81C80F9
:10ABB800D8E7BDE8F08100BF7EDF002010D8002074
:10ABC800F0D0002014D80020647F0100747F0100B9
:10ABD80070B50D4D297861B90120FFF77FFE0B4C48
:10ABE8000B4EB44206D3FFF77BFF0028FBD10123AD
:10ABF8002B7070BD63685B791BB1236820469B6826
:10AC080098471034EDE700BF7FDF0020647F010024
:10AC1800747F010000212DE9F0470846FFF75EFE2A
:10AC2800044658B340F267684FF000090CF08CFFF7
:10AC38001B4B1C4A1B58136033B11B4B1B68092B59
:10AC480002DD1A4807F026FB0025194FDFF85CA043
:10AC580044B12046FFF7DCFD044618B94FF0FF3831
:10AC68004FF0FF39FFF73CFF064628B9B5B9424611
:10AC78004B46504607F048FB3546E9E74FF0FF38AA
:10AC88004FF0FF39D2E72B689B691BB10022284699
:10AC9800114698471035BD42F5D3E8E7054DFAE768
:10ACA800080000000CD8002014D8002090C900200B
:10ACB800747F0100647F010013B518480AF022F977
:10ACC800174B1B7873B1EFF31184202383F3128899
:10ACD800BFF36F8FFFF704FF84F31188BFF36F8F03
:10ACE80002B010BD0F4B1B68002BF9D050B90022E1
:10ACF80000230D48CDE900234FF40042002308F05B
:10AD08009DFAEDE70928EBD107480CF01EFC07482F
:10AD180002B0BDE8104007F0BDBA00BF14D800204B
:10AD28007FDF00200CD80020F8D0002090C9002038
:10AD380010B5064B04461B6898472146A060044896
:10AD480009F08DFEBDE81040FFF7B6BFD8C7002058
:10AD5800C8C80020044A054B9B1AB1EBD30F34BF77
:10AD680052F8310000207047DC7E0100647F01004A
:10AD780000210B480B4B30B51B1A0B4CDB08043079
:10AD8800994200D130BD10F83120256802F0070241
:10AD980025F007052A4344F8042B0131F0E700BFEA
:10ADA800DC7E0100647F01000CC90020F8B506466E
:10ADB80000240A4F0A4DED1BED08AC4203D14FF0B9
:10ADC800FF342046F8BD57F8340020B13146FDF76E
:10ADD80021FA0028F5D00134EFE700BFDC7E01003E
:10ADE800647F010000282DE9F047884615461F4674
:10ADF8001DDA4FF0000A5446DFF89090244EA6EB77
:10AE080009063609B24509F1100902D12046BDE804
:10AE1800F08759F80C0C3B462A4641460079FFF763
:10AE2800E1FF844238BF04460AF1010AEAE7194BF8
:10AE3800194AD21AB5EBD20F26D203EBC5031C79F7
:10AE4800BC4228BF3C460722144EC0B200EB40006B
:10AE580056F82530824023EA020304F007028240B4
:10AE680013430021032223FA02F000F00700814275
:10AE780002F1030238BF01461E2AF4D123F007036A
:10AE88000B4346F82530C1E70024DCE7647F010066
:10AE9800747F0100DC7E0100647F01000CC9002082
:10AEA800F8B506460F460024074D084BED1AED0885
:10AEB800AC4200D3F8BD002122B23B4630460134F3
:10AEC8000AF03CF8A4B2F3E7647F0100DC7E0100DD
:10AED80070B14168097973B1002A17DBCBB20C490C
:10AEE80003EB430351F82200D84000F007007047F5
:10AEF8004FF0FF31EFE707490748401AB2EBD00F90
:10AF08003ABF01EBC2010879184670470420704720
:10AF18000CC90020DC7E0100647F01002DE9F04FA0
:10AF28008FB0C1F34A2804AF0D469146B8607B60E4
:10AF38000C0DB8F1000F67D000264FF0040B4FF04E
:10AF48000A0A07F11403C7F80C80C7E907667E628E
:10AF58000193CDF808B0CDF800A007F11C033246E4
:10AF68004846F968FFF73CF9B0F5006F034620D36F
:10AF78002A48036813F0060F17D06C468AB0D9F830
:10AF8800041004AB264D1A46C3E9055140F2FF717F
:10AF9800D9614FF400711984224B42F8103F4FF4E5
:10AFA80012513346FFF7BAFFA5462C37BD46BDE818
:10AFB800F08FC0F30A0804F11700184420F00700C6
:10AFC80080083B60FFF770FD68F35325044690B195
:10AFD8003B6800F11001C7E9083607F11403F9616D
:10AFE800CDE900A3CDF808B048460F4AF96807F143
:10AFF8001C03FFF7F5F868F353252A4620467B68BB
:10B00800B96809F0D6FFD0E704F1170020F007006F
:10B018008008FFF749FD0446EDE700BF24C900207A
:10B028006A9A0100040000018F4F01002DE9F04FDA
:10B0380087B00446DDE9105ADDE91279934698464F
:10B048000391DFB13B46524610210020CDF8009015
:10B05800CDF81490FEF7F2FEB0F5006F06460ED359
:10B068001C48036813F0060F30D040F2FF7302212A
:10B07800194A07B0BDE8F04F09F0F4BF3E4605F1A4
:10B088001700304420F007008008FFF70DFD04F09A
:10B0980007040BF0070BE40044EA8B1444EA462447
:10B0A80044EA0554054640B13FB13B465246314655
:10B0B800CDF800901030FEF7C1FE434622462846E0
:10B0C800039907B0BDE8F04F09F073BF07B0BDE8BA
:10B0D800F08F00BF24C90020A99A0100406820B160
:10B0E800034BC01A40F38F0070474FF0FF30704792
:10B0F8000CC900200EB403B503AB53F8042B01466A
:10B108000448019303F02EFA02B05DF804EB03B093
:10B11800704700BFCF500100CA0605D48B064CBF4C
:10B1280002490349FFF7E6BF704700BFB49E01001C
:10B1380028B501002DE9F04F89B09B46149B9DF876
:10B148004CA00693159B04460593169B0D46904606
:10B15800179E0493BAF1000F00F09D8006F48073E7
:10B16800079309F0E9FE06F00209024600283ED0DE
:10B1780020469149FFF7BEFF0746B9F1000F08D0F6
:10B1880016F0440F35D12A4620468C49FFF7B2FF06
:10B19800074406F0010353B1894B204653F82A208F
:10B1A800884B8949002A08BF1A46FFF7A3FF06F40F
:10B1B8008073002B49D006F00803002B63D1B8F147
:10B1C800000F66D0424620468049FFF793FF0546A8
:10B1D800069B3D44002B6DD1049B002B73D1F307D4
:10B1E80000F1E48031462046FFF796FFD8E0074695
:10B1F800C3E7774B18680028CAD0764B4FF47A79A2
:10B208001B684FF03C0CB5FBF3F5B5FBF0F14FF4C0
:10B21800616300FB115509FB05F5B1FBF3F2B5FBC2
:10B22800F0FE03FB121100FB1E55B1FBFCF309FBFA
:10B2380005F5B5FBF0F50CFB131120460091CDE99F
:10B2480001E56549FFF756FFA2E706F00803EBB1F1
:10B25800624B204653F82A206149FFF74BFF054609
:10B26800B8F1000F05D0424620465849FFF742FF83
:10B278000544BBF1000FABD05A4620465949FFF7A9
:10B2880039FF0544A4E74FF0000BE1E706F0080595
:10B29800E6E745469CE7BBF1010F069B06D1002B6C
:10B2A80064D1049B002B7BD000250CE0002BF8D048
:10B2B8004D485CE04D48069B22464D4909F0C5F9CA
:10B2C800049B002B68D0DFF82C81DFF82C91049FB9
:10B2D8003146102F204628BF10274FF0000BFFF7EC
:10B2E8001BFF5D4545DC059B494620461A78FFF75C
:10B2F80001FF4FF0010B1BF0070F03D14146204619
:10B30800FFF7F8FE5F453BD9059B4946204613F8F1
:10B318000B20FFF7EFFE0BF1010BBBF1100FEAD189
:10B328004FF0000B20463549FFF7E4FE5A46059BCF
:10B3380020469A5CA2F120015F2928BF2E223049BD
:10B34800FFF7D8FE0BF1010BBBF1100F1DD01BF05E
:10B35800070F03D141462046FFF7CCFE5F455A460A
:10B36800E5D841462046FFF7C5FEEBE71F4855469E
:10B37800A1E741462046FFF7BDFE0BF1010BB0E700
:10B3880020462049FFF7B6FEC5E7059B3B440593D9
:10B39800049BDB1B04939AD1BAF1000F7FF41FAF13
:10B3A800204609B0BDE8F04F09F080BE2046054AA6
:10B3B8000549FFF79FFE15E7E69A0100EA9A0100A2
:10B3C800C8830100E19A0100DDA001000F9B010084
:10B3D80020D800201CD80020F39A0100DC8301004B
:10B3E800139B0100199B0100FD500100CF50010083
:10B3F8006DE50000269B01001E9B0100289B0100B3
:10B40800F8940100249B010042F20F7373B58B423C
:10B4180028BF0B4605680446052168460D4A08F012
:10B4280055F90646636828460B225B680A4909F005
:10B438002FFE63683246694628465B6809F028FE95
:10B4480063681B2228465B68044909F021FE02B0A4
:10B4580070BD00BF2D8E0100469B01002A9B010094
:10B4680000210123064A904206D8064A01B9012361
:10B478001360054B18607047012140085B00F2E734
:10B4880040420F001CD8002020D80020014B036048
:10B4980000207047F083010010B504460BF002FC51
:10B4A8000349024620460AF002F8002010BD00BFFA
:10B4B800899B01001346002273B5044601920A21B4
:10B4C800586801AA01F0A4FC019D95B920EAE0742E
:10B4D8004FF40046294640F2E7304FF47A720023D1
:10B4E800C4FB0601FCF77CFE0BF04FFF284602B0B8
:10B4F80070BD2A462046024909F0F5FF019DF5E78F
:10B50800B59B010008B5034A034909F0D0FF0020A4
:10B5180008BD00BFA29C0100A99C0100F7B5174611
:10B52800002305460A2101AAB868019301F070FCBE
:10B538001749C6B2284609F0C8FF019C44B1224603
:10B548002846144909F0CFFF019C204603B0F0BDFE
:10B55800042E09D9324628460F4909F0C4FF284667
:10B5680009F0FDFF0124F0E77868FFF71FFC021ED1
:10B5780007DA28467A68094909F0B5FF6FF015041B
:10B58800E3E733462146204612B209F0D7FCDCE750
:10B59800D49C01003A9D0100619D0100789D010045
:10B5A800002307B50090694604488DF8043007F079
:10B5B80045FC9DF8040003B05DF804FB83510100CD
:10B5C80010B5044603F0E0FF07490246204609F09B
:10B5D8006EFF2046054909F06AFF2146044807F036
:10B5E80047FC002010BD00BFD79D0100F69D01005B
:10B5F800FDB5000070B58EB004460D46D0F89C60CD
:10B608000BF004FE03460CF09FFA214A214910581A
:10B61800214A002B18BF1A460092204A234684422A
:10B6280018BF0A4628461E4909F041FFD4E90A23F3
:10B63800CDE90023284694F90E30227B194909F0F8
:10B6480036FF06A92022204606F094FE636E0246C5
:10B658001549284609F02BFF204605A90BF0E4FD03
:10B66800024628B12846114909F021FF0EB070BDE5
:10B678006422059B2846F11A4A43B2FBF6F2009170
:10B68800CDE901620A49324609F011FFEEE700BF31
:10B6980008000000269B0100009E010053B1010034
:10B6A800039E01000F9E01003B9E0100529E010077
:10B6B8007F9E0100F0B50025044691B0294608AFE9
:10B6C8001C2209A80CF0D4F8134E1A22202138465F
:10B6D8000CF0CEF82146114807F0CAFB07AA4FF430
:10B6E800006130460BF094FD6423079A2046C2F5AA
:10B6F80000614B43DB0A05934FF400630097CDE9E3
:10B708000313CDE9013206492B46324609F0CFFE34
:10B71800284611B0F0BD00BFD81601202DB7000093
:10B72800D09E010070B504460D46D0F89C6088B0E4
:10B7380007A90BF079FD024628B128460E4909F001
:10B74800B6FE08B070BD20460BF060FD6422079B72
:10B758000096F11A4A43B2FBF6F2CDE90131074BE4
:10B76800CDE90362002818BF03462246284604494B
:10B7780009F09DFEE5E700BF529E0100009E010012
:10B78800199F010038B51346054610220021586854
:10B7980008F066F80446FFF703FF38B92246284642
:10B7A8000D4909F0A0FE6FF0150038BD0CF0CCF97A
:10B7B8000A4B1B589C4204D12846094909F093FEBC
:10B7C800F1E7204606F09AFF28462246054909F087
:10B7D8006EFE0020E9E700BF7D9F01000800000021
:10B7E800989F0100C09F010038B5134605461022F6
:10B7F8000021586808F034F80446FFF7D1FE38B93C
:10B80800224628460D4909F06EFE6FF0150038BD36
:10B818000CF09AF90A4B1B589C4204D12846094956
:10B8280009F061FEF1E7204607F086F8284622462F
:10B83800054909F03CFE0020E9E700BF7D9F0100B3
:10B8480008000000FF9F010025A0010038B513463D
:10B85800054610220021586808F002F80446FFF750
:10B868009FFE38B9224628460D4909F03CFE6FF084
:10B87800150038BD0CF068F90A4B1B589C4204D1DE
:10B888002846094909F02FFEF1E7204602F024FB7B
:10B8980028462246054909F00AFE0020E9E700BFCC
:10B8A8007D9F01000800000060A0010085A0010044
:10B8B8002DE9F04F87B00446684606F035FA242390
:10B8C800009F082103FB0077264A204609F0E2FD85
:10B8D800DFF894A0009DDFF894B0BD4203D30020A8
:10B8E80007B0BDE8F08F2B680BB11A7832B92B4638
:10B8F80014211F4A01A807F0E9FE01AB52460821AE
:10B90800204609F0C7FD28460BF0BCFB194B08215F
:10B91800002808BF5B46184A204609F0BBFD2B6A81
:10B92800A3B11E6896B1336883B108212046134A33
:10B9380009F0B0FDB1464FF000083368104A43459E
:10B9480006D8082120460F4A09F0A4FD2435C4E78B
:10B958000821204659F8043F09F09CFD08F1010828
:10B96800EBE700BFCCA00100DBA00100C3A00100F1
:10B97800D6A00100BDA0010061A70100E0A0010060
:10B98800DCA00100B49E01002DE9F0411446884670
:10B99800074610220021606807F062FFB8F1020F25
:10B9A800064607D8202308213846244A09F072FDA4
:10B9B800336816E00A220021A06807F051FFC5B2DB
:10B9C8002B46082138461D4A09F064FDB8F1030FDB
:10B9D8001AD1102D0CD0202DEAD0082D0BD1337898
:10B9E800DBB208213846164A09F054FD002009E068
:10B9F80033889BB2F5E738460821124A09F04AFD18
:10BA08006FF01500BDE8F08110220021E06807F012
:10BA180027FF0821034604460B4A384609F03AFD39
:10BA2800102D06D0202D07D0082DE4D1E4B23470B3
:10BA3800DCE7A4B23480D9E73460D7E721A101005C
:10BA48004CA1010036A101005DA1010000232DE9F0
:10BA5800F04F91464FF0FF35012287B00193504BCC
:10BA6800074688461A60202602F0BEFD2C46DFF8FD
:10BA780034A149465246404602F0DAFD411C06D13F
:10BA88006A1C41D14849384609F02DFD17E0732852
:10BA98001AD0772828D0612811D1DFF810B11021E9
:10BAA800DBF8000001AA01F0B3F9019B0546002B61
:10BAB800DFD0DBF800203E49384609F014FD6FF06E
:10BAC800150007B0BDE8F08FDFF8E0B00021DBF823
:10BAD800000001AA01F09CF9019B0446002BC8D084
:10BAE800DBF800203349E7E7DFF8C0B00021DBF8D6
:10BAF800000001AA01F08CF9019B0646002BB8D082
:10BB0800DBF800202C49D7E7631C01D12B49BAE7A1
:10BB18005FFA86F8C6F3C406002C3FD002AB29466C
:10BB28001A46A6EB050C0CE0B8F1100F1DD0B8F1C1
:10BB3800200F20D0B8F1080F2AD1087818703144A6
:10BB48003344A64203D80CEB01001028ECD9102C82
:10BB5800A14628BF4FF0100929464B46384601F048
:10BB68002FF81035A4EB0904D6E7088880B21870BE
:10BB7800000A5870E3E708684FEA102E187083F837
:10BB880001E04FEA104E000E83F802E0D870D6E7C5
:10BB9800082138460A4A09F07DFC90E7204690E7DC
:10BBA80038C80020ABA10100B2A10100E4DB0020ED
:10BBB80071A1010084A1010097A10100CFA101009A
:10BBC80036A1010070B50F4E04460D46337871B1A9
:10BBD80023B10D49BDE8704009F085BC01233370DD
:10BBE80020460A4909F063FC0123337004E083F01E
:10BBF80001033370002BF3D129462046BDE870407D
:10BC080009F0CBBC80DF0020E9A1010024A20100DB
:10BC180070B504463B480378182B02D10B78112BDA
:10BC280031D00B46013A8D18AB4225D18B5C0A788E
:10BC38000370A2F13003092B334C04D922F02003FE
:10BC4800413B052B04D823683049CA54013323608B
:10BC58002368022B33D1102200212C4807F000FE64
:10BC68002B4A136803F8010B13602A4A136801333F
:10BC780013600023236022E013F8016B182ED3D140
:10BC88001E78112ED0D1234D20462A68224909F06A
:10BC98000EFC20460021FFF795FF204B187870B95D
:10BCA8001F4A2B681168042B0ADC08B111602B604D
:10BCB80013F003010BD1126813681BBA136070BD2F
:10BCC8000868043B00BA41F8040B0120EBE75B422B
:10BCD80003F0030358BF5942022904D1126813889C
:10BCE8005BBA9BB2EAE70329E9D11068026811043C
:10BCF800C2F3074301F47F010B4302F47F4213436D
:10BD08000360DCE781DF002024D8002083DF0020E7
:10BD180030D8002028D800204EA2010082DF002061
:10BD28002CD800202DE9F84F0023064615460C466E
:10BD38002949DFF8A8800B602949DFF8A890DFF8C7
:10BD4800A8B088F800300B60012C2F4655F804AFD6
:10BD58001ED90222494650460BF0D0FD80B99AF808
:10BD68000220003A18BF01229244504602221F497D
:10BD78000BF0C4FD30B9012388F80030013CE3E73B
:10BD88000022F1E749465046FCF744FAA8B90437BF
:10BD980000227868114607F063FD0022144B114613
:10BDA8001860786807F05CFD124B1349186030463C
:10BDB800FFF708FF0020BDE8F88F9AF800202D2A29
:10BDC800E6D19AF80120002AE2D052465946304678
:10BDD80009F06DFBD2E700BF24D8002082DF0020E5
:10BDE80028D8002068A201006EA201006BA2010001
:10BDF80030D800202CD8002019BC000007B50A480C
:10BE08000BF040F960B10423084A0093126801233B
:10BE18000549074800F03AFF002003B05DF804FB2D
:10BE28006FF01200F9E700BF2C7C01009884010034
:10BE3800B87F010010B54468C4E90012A3604268E5
:10BE48004021134653F8404B51635362002302F1DB
:10BE58003801C2E904130821C2E90A33C2E90633EA
:10BE680013631162C2F8B830A36823B11B6C13B115
:10BE7800204604499847A3681B6A0BB12046984797
:10BE8800002010BD91BE00002DE9F34705460C4681
:10BE98008368DB6B03B19847AB68DB6A73BB4FF011
:10BEA800000904F1240704F12808218E238D626B10
:10BEB8005B1A9BB2D31A934228BF134641463846B1
:10BEC80001AA08F079FF8246002844D0AB6801999E
:10BED8001B69002B33D0024628469847064688B38C
:10BEE80032464146384608F09DFF56454FF0010955
:10BEF800DBD00020D4E90131984703E02846984771
:10BF08000028CCD1AB68DB69002B37D1628BE38A80
:10BF180004F110079B1A226A9BB2934204F11A0893
:10BF280028BF13464146384601AA08F045FF064691
:10BF380058BB284609F037F9C4F8B86031E06FF00B
:10BF48005706CDE702464146384608F06BFFB9F17F
:10BF5800000FD7D0CDE71748036813F0060F03D0BA
:10BF68000221154A09F075F8AB681B69002BEED061
:10BF7800012228460DF103019847E8E7284698472B
:10BF88000028C3D102B0BDE8F087AB680199DB682F
:10BF980063B102462846984702464146384608F0AB
:10BFA80041FFD4E9013101209847EBE76FF05702D0
:10BFB800F3E700BF44C90020D5A3010010B504462B
:10BFC8008168183101F088F9A1682046BDE8104061
:10BFD800014A183101F026B917A4010038B5836861
:10BFE8000446D3F87832DB071DD4C06909F0FFFF97
:10BFF800606803685B689847054620B9E0680AF0FE
:10C00800A3F9A3681D75A3685B6C13B12946204684
:10C01800984700220BF098FDA368C3F82023034B30
:10C02800185801F059FF6FF00F05ECE70800000001
:10C03800014909F04AB900BFB49E0100F7B50446AA
:10C0480080680D46D0F878325A0705D5002109F0E6
:10C0580064F9E0680AF04AF9E368DB6873B9002D0F
:10C068003BD0A66806F15607384609F03BF9002888
:10C0780035D0394606F5AB70FCF7D6F8A2682946E4
:10C08800E0680DF1060356320AF033F958B9A06892
:10C0980000F5AB715630FCF7C7F8A068563009F0C8
:10C0A80021F9ADF80600204609F069FDA368D3F828
:10C0B80074329B0603D50B49606909F006F92046DE
:10C0C80000F00CFFA268BDF806302046A2F85230F6
:10C0D800A268A2F8503009F0B7FC03B0F0BD86F8AA
:10C0E8005601CBE73C8101002DE9F04FA7B004468B
:10C0F8005422002111A80BF0BBFB0023CDE9053326
:10C10800A36820465633029309F040FD204609F003
:10C1180084FC10B96069FFF78BFF00264FF0FF37EA
:10C12800B246B3463546B146A068142200211830FD
:10C138000BF09EFB204609F016FCA168E068B1F8F8
:10C14800502056310AF00CF920460AF09BF90DF1FF
:10C1580044080396DDE90532012A6DD0132B6ED809
:10C168005FBBBBF1000F0AD020460AF0ACF91423DC
:10C17800A26811A956320DEB030009F074FAB9F15F
:10C18800000F0CD099F81130FE2B08D1059B26AA78
:10C1980002EB830252F8542C0AB101330593A068CC
:10C1A800059D436A002B40F0B680CEB1C3699E421C
:10C1B8002DD00D9600F1180524E002234146029A7D
:10C1C80006A809F050FAD8F8042006990346029206
:10C1D80031B101290AD148B16D4A204609F084FDE0
:10C1E8006FF00705284627B0BDE8F08F059B002BA8
:10C1F80034D0D8F8000001F08FF898B166B1A5687E
:10C208000D9618350CAE0FCE0FC533682B6020463F
:10C21800FFF7D4FE0125E5E75E4A0121204609F033
:10C2280063FDDDE7059BCBB129462046D8F8002001
:10C2380001F014FA022809D1059B132B91D9069B0A
:10C24800022B8ED10121544B544AC6E7032805D04E
:10C25800059B4FF0010B013305937BE7039B33B933
:10C268004846D8F8001007AA09F0F4FA054608F17C
:10C278000408013F9DB3EB68BBF1000F08D0F3B190
:10C28800204609F083FC204609F0DEFB444AC4E757
:10C29800ABB1AE46A368DDF814A003F1180CBEE8F4
:10C2A8000F00ACE80F00DEF80030CCF80030AB68C7
:10C2B8002BB96B7CFE2B04BF2F7C07F1FF37D5F819
:10C2C80004C0BCF1000F08D0AE460CAEBEE80F00AB
:10C2D8000FC6DEF8003033606646A94603E0059BCA
:10C2E80053B101230393069B17B9022B7FF432AF96
:10C2F800059B013305932DE7A368DB6A13B1DB685F
:10C30800002BEED1274B012100932046119B264A92
:10C3180009F0EAFCE5E790F82830A5EB0A05BBB17F
:10C328004FF6FF7290F82910FF2918BF0A469D4260
:10C3380002D313449D420BD98369012120461B4A2D
:10C3480009F0D2FC2046FFF739FE6FF0150549E7E2
:10C35800012108F0D7FFA06800F5437008F0F6FF48
:10C36800A36811AA294602EB8A0220465B6A98470D
:10C378000546A0684FF0FF324FF0FF3300F54370D9
:10C3880008F08BFF0021A06808F0BCFF2AE700BF77
:10C3980025A4010039A401009AA40100939D01007D
:10C3A80057A4010086A401008AA70100BEA40100C9
:10C3B800022210B5836804461A7583689B6CBBB962
:10C3C80008F04AFF8368D3F87832DB040BD50321E1
:10C3D800084B094A09F088FCA0686FF4805100F501
:10C3E8001E7008F04FFF2046BDE8104000F0FCBE6C
:10C3F80010BD00BFD9A40100DDA001002DE9F04F58
:10C40800044680680121B1B000F51E7008F02FFFC6
:10C41800A3681B7D022B20D100230993A3686068C1
:10C428009E6C03681D6909AB0EB310221BA9A847AF
:10C43800099B93B10121A06808F064FF2046099A7E
:10C448001BA9B0470021A06808F05CFFA3689B6C9B
:10C45800002BE3D12046FFF7ABFF6FF00101A06886
:10C4680000F51E7031B0BDE8F04F08F00BBF012297
:10C478000DF12301A847099B002BEED09DF923203D
:10C488009DF82330002AA068C8DB427D032A00F209
:10C49800F482DFE812F0040074028B02F2020D2B22
:10C4A80067D00A2B43D0B0F87822092B6FF3CA0261
:10C4B800A0F8782272D029D8002B00F00381082B2D
:10C4C800A06800F0E8810246D2F87412890740F1AA
:10C4D800F980013B162B00F2F580DFE813F0B70274
:10C4E800F901FD01F501B1020F02F300F300F300B9
:10C4F800F30013021702F3002C02F3003102F300D9
:10C50800F300F300F3003302F30048021B2BA0688A
:10C5180041D07F2B00F0CB81A3F120015E29024698
:10C52800D2D8012108F0F9FE9DF82310B8E0D0F820
:10C538007822C2F3C7022AB1D0F87822C2F3C70220
:10C548000A2AC0D1B0F8782263F3CA02A0F8782288
:10C55800A568B5F85010C1B9284608F0DEFEE068B5
:10C5680009F0C4FE6069FFF763FD2046FFF720FF6E
:10C5780054E7D0F87822C2F3C702002AE2D0D0F8F4
:10C588007822C2F3C7020D2ADBE72046FFF7ACFD8D
:10C59800C5F82403E9E70123437593E0A068D0F8C0
:10C5A80074329B0740F18E80012108F0B6FEA06826
:10C5B800B0F85030FF2B00F085800025B0F85220ED
:10C5C80000F1560100F5AB700BF02BF9A3681BA91D
:10C5D800B3F852200BA8134483F85651A2681423C9
:10C5E80002F5AB7209F03FF80B9914296AD830AB01
:10C5F80003EB810343F8545CA368B3F85220002A84
:10C6080052D0134493F85530202B02D0093B042B09
:10C618004AD800294BD100250A950A9B30AA02EB7B
:10C62800830353F854AC0026504608F05BFEB3462B
:10C638008146B04637463946284616AA00F0AEFB72
:10C648000346002842D1012E68D10A9B30AA02EB8A
:10C65800830353F8540C08F045FEA2680646414689
:10C668002846183200F09AFB0568284608F03AFE7A
:10C67800864205D0821B92B22046A91909F07BFB9D
:10C68800A068B0F85230034493F85630202B34D0C9
:10C69800093B042B31D9D0F87432DF0732D420217A
:10C6A800204600F069FD0DE00129B4D901390020C8
:10C6B8000CAB009301900AAB1BAA09F0F6F80546EB
:10C6C8000028AAD1606908F06EFFA7E61B684A46F1
:10C6D8005146184603930BF011F960B9039B1846AD
:10C6E800FBF7AAFD584538BF5846002E08BFB84684
:10C6F8001FFA80FB013601379DE70121204609F02A
:10C70800D7F9DFE7002108F012FE2021204600F0CB
:10C7180033FD0121A06808F00AFED3E70490D1D9BF
:10C728000A9A30AB03EB820252F8543CC1461846D1
:10C73800039308F0D7FD049BA2680590A2F8403047
:10C748000496A26849462846183200F027FB039B46
:10C75800D0F800A009F101094BB1BAF1000F06D0D9
:10C7680019465046059A0BF0C9F80028E9D1A16886
:10C77800BAF1000F4DD1A1F840A0049B013B0493EE
:10C78800DFD16069FFF754FC204600F02DFD0A9BBD
:10C7980030AA02EB830353F8540C08F0A3FD41467A
:10C7A80011AA8146284600F0F9FA0746A0683968B8
:10C7B800FF2200F5AB700BF0B3F83B684FF6FF773C
:10C7C80008F1010AB84603935146284616AA0AF109
:10C7D800010B00F0E3FA002851D00022A168036899
:10C7E80001F2551111F801EF985C704503D110B1B1
:10C7F80001324245F6D1B9F1000F01D04A4506DBB6
:10C80800BA42A8BF3A46013E012E97B237D0DA465F
:10C81800DAE79B48069108F065FD069900EB0B07DF
:10C828004A8FBFB2121A92FBF7F2504692B20791A2
:10C83800069208F057FD07993F1AB1F84000069A8A
:10C8480000F1010CA1F840C0B0FBF2F102FB1100AD
:10C8580080B2BFB260B906212046894B894ACDF81B
:10C8680000A009F041FA3946204600F021FB84E790
:10C87800534606212046844A09F036FAF3E7002F8A
:10C888003FF420AF0399A7EB0902204692B249442E
:10C8980009F071FA16E7D0F874329E077FF512AFE7
:10C8A800012108F03AFD204609F086FA0AE7D0F897
:10C8B80074329D077FF506AF012108F02EFDA368AD
:10C8C800D3F874321807EED4204609F056FAF9E680
:10C8D800204609F064F9F5E6204609F057F92046A4
:10C8E80009F09BF810B96069FFF7A2FBA068012165
:10C8F80008F013FD2046FFF75BFDE3E6204609F04C
:10C9080057F9DFE6204609F05EF9DBE6D2F8743223
:10C918009F0603D55D49606908F0D7FCA368D3F882
:10C9280074329E0603D55A49606908F0CEFC204649
:10C9380000F05AFCC6E600212046FFF77FFBC1E65F
:10C948000121F9E7204609F01AF9204608F084FC8D
:10C958000121A06808F0E1FCA368D3F874329D06B1
:10C968007FF5B0AE4B49606908F0AFFCAAE62046F7
:10C9780000F02EFB0121A06808F0CFFCA2E65B2B9B
:10C9880001D1022308E6D0F87422900706D5622B5D
:10C9980008D14FF0FF31204609F0B3F80022A36810
:10C9A8005A758FE6662BF9D10121F4E7002242750A
:10C9B800A268D2F8741289077FF530AD313B1B2B82
:10C9C8003FF680AE01A151F823F000BF51CA000024
:10C9D8005DCA000071CA000045CA0000CDC600004B
:10C9E800CDC60000CDC60000CDC60000CDC60000F3
:10C9F800CDC60000CDC60000CDC60000CDC60000E3
:10CA0800CDC60000CDC60000CDC6000049C9000053
:10CA18003FC9000005C90000D9C80000CDC6000004
:10CA280049CA0000CDC6000055CA0000CDC60000A6
:10CA3800CDC60000CDC6000061CA000003235375AF
:10CA4800204609F0A3F83DE603235375204609F074
:10CA580096F837E603235375A068D0F8741201F0EE
:10CA6800010181F0010156E603235375A368D3F849
:10CA780074329B077FF526AE26E700238CE500BFBE
:10CA8800259B01001DA50100DDA0010041810100D9
:10CA9800468101003C8101002DE9F041044680688F
:10CAA800154600F51E70002937D04FF4804108F074
:10CAB800DEFBA3680021DD64606803689B68984713
:10CAC800002851D1204608F068FC00284CD1274E98
:10CAD800274FDFF8A080A06800F52F704FF0FF32D5
:10CAE8004FF0FF33032106F013FC0546A068CDB1D3
:10CAF80040F26762002300F5437008F0CEFB98BB54
:10CB080020462B4601211C4A09F0EEF8A068BDE832
:10CB1800F04100F5437008F019BC6FF4804108F04B
:10CB2800B1FBC6E74FF0FF334FF0FF3200F543701B
:10CB380008F0B3FB32460221204608F0B0FB3A4623
:10CB48002946204608F0ABFB20464246012108F062
:10CB5800A6FB606803685B6903B19847A06800F5A5
:10CB6800437008F0F3FBB6E7BDE8F081E5BF0000CD
:10CB780005C400005953010023A5010010B504465F
:10CB88000A4908F094FC2046094908F090FC204620
:10CB9800084908F08CFC2046074908F088FC204624
:10CBA8000021064A00F03EFB002010BD3AA5010016
:10CBB80078A50100D7A501002BA60100C5A6010094
:10CBC800F8B51E4617460A462949044608F06FFC80
:10CBD8003EB320463A78274908F069FC01256A07E0
:10CBE80003D12046244908F062FCAE421ED92046F3
:10CBF8007A5D204908F05BFC0135102DEFD1204605
:10CC08001E4908F054FCB6B920461B4908F04FFCF1
:10CC18000125AE422B4610D82046174908F047FC9C
:10CC280015E02046164908F042FC01252046144923
:10CC380008F03DFCE0E700252B46FA5C2046A2F10F
:10CC480020035F2B28BF2E220E4908F030FC013547
:10CC5800102D06D06B07DCD12046074908F027FCC9
:10CC6800D7E72046BDE8F840074908F020BC00BFD8
:10CC7800DBA601001E9B0100269B0100289B0100EA
:10CC8800249B0100F8940100E2A601002DE9F0437D
:10CC9800044680688846D0F8201315461F4689B098
:10CCA800002960D14FF44A720AF0E2FDE06809F009
:10CCB800CFFBA06800F543700AF08BFA4FF42F7988
:10CCC8004FF41F76A06830440AF079FDA06800226E
:10CCD80083190121484410360AF043FDB6F52F7F29
:10CCE80009F11409EED10026A36902211E60A0688B
:10CCF80066F3820500F51E7008F0B9FA5022A368A1
:10CD080020465A871822A3681A87216808F0F9FB79
:10CD1800A3684146C3F874526068144A03681D68E2
:10CD28002346A8470546D0B90122A3681A75D4E955
:10CD38000A0100220023CDE906230E230393109B4A
:10CD48004FF48052CDE901730495094B009405F026
:10CD5800BDFBA368C3F82003616A05F0FBFA284607
:10CD680009B0BDE8F0836FF07705F8E7F9520100E4
:10CD7800A1CA000010B5044613460A4601460648F3
:10CD880001F0F0FB23691B7923B12046BDE8104070
:10CD980008F009BC10BD00BFC755010038B50B46E7
:10CDA800154648B91449154A521AB3EB920F05D2E1
:10CDB80051F82350284638BD84680CB90025F9E796
:10CDC8000F4A94420AD30F4A944207D2184629467A
:10CDD800226890472B68002BECD1EFE70A4A94426F
:10CDE80002D30A4A944205D3246814225343E5180F
:10CDF800E358F0E70133F8E7E87F01001480010009
:10CE08002C8101002C810100148001002C8101007B
:10CE1800F7B5037804462D2B164605D16FF0150398
:10CE28000020336003B0F0BD0AF08EFE00230546F3
:10CE38000A4F0A46C35101A9204606F011FDEB59D5
:10CE4800222B02D16FF02103EAE7002BE6D1019BE8
:10CE5800A342E3D01B78002BE4D0DFE70C000000EE
:10CE68008368D3F874329B0603D50249406908F0F9
:10CE7800B5BD70474C810100014908F0AFBD00BF46
:10CE8800B49E01000A1E0DDC0ED042238168D1F841
:10CE98007412890608D5002A04494069B8BF52426D
:10CEA80008F09CBD4123F1E7704700BFFEA60100D2
:10CEB8000A1E0DDC0ED044238168D1F8741289064D
:10CEC80008D5002A04494069B8BF524208F086BD17
:10CED8004323F1E7704700BFFEA601002DE9F047A4
:10CEE8008568044605F15600FBF7A6F90023984625
:10CEF80095F83C70DFF8549086B2A268558FED1B08
:10CF0800B54209DB002E1FDD5633606910491A440B
:10CF1800BDE8F04708F062BD1D442A4492F856A0C7
:10CF280082F85680A26856331A444946606908F068
:10CF380055FDA3682B4483F856A0A3685B8FDB1BC1
:10CF4800F61A00272B46D8E7BDE8F087939D010025
:10CF5800DDA0010008290A4617D8836893F83E1017
:10CF6800914212D083F83E208368082AD3F874329D
:10CF780005D0990609D50549406908F02FBD9B06DB
:10CF880003D50349406908F029BD704705A701008A
:10CF98005181010038B50D4609780446FFF7DAFFDC
:10CFA8006A78072A11D8A36893F83F1091420CD0E9
:10CFB80083F83F20A368D3F874329B0605D56069CF
:10CFC8000249BDE8384008F009BD38BD0EA7010088
:10CFD800F8B583680446B3F85020002A55D0B3F852
:10CFE8005210002951D0553103F156050B4418460B
:10CFF800A84206D3014611F80169202E3CD0A84268
:10D008003CD286B29DB2AB1B9BB2591C471CD21AAC
:10D01800014438460AF012FCA268711BB2F850307D
:10D02800204613FA81F3A2F85030A36809B2B3F886
:10D0380050201344002283F8562008F039FDA368D5
:10D04800D3F874329A0603D51049606908F0C6FC13
:10D058003B46082120460E4A08F046FE2046FFF7C8
:10D06800FFFEA368D3F874329B060ED560690949A0
:10D07800BDE8F84008F0B2BC0846B9E7014611F827
:10D088000169202EBDD00846B9E7F8BD56810100D8
:10D09800DDA001005A8101002DE9F84F04460F4632
:10D0A80090460AB1FFF7DCFEA668D6F87432B6F8E7
:10D0B80052505B0724D505F156003044FBF7BCF805
:10D0C80005462A4EB5B9A368B3F85020A3F85220F4
:10D0D800A06808F090FC30B1B8F1000F00D017B18B
:10D0E8006069FFF7C9FE79422046BDE8F84F09B2EA
:10D0F80008F0DEBC3146606908F070FC013DE1E7EC
:10D108003046FBF799F8B6F85090738F19FA80F902
:10D1180015FA80F0B0FBF3F2B9FBF3F39A42AA4692
:10D128001BD0134D4845A368CDDA5A8F461CB0FB77
:10D13800F2F302FB130313B96069FFF79DFEA368BE
:10D14800204653442A46082193F856300AF1010B29
:10D1580008F0CAFDDA463046E4E75635082120468D
:10D16800044A731908F0C0FDADE700BF53B10100D0
:10D17800F8940100DDA0010013B583688DF807104D
:10D18800D3F874220446D00725D5B3F85210B3F863
:10D1980050208A421FD0481C9DF80720A3F852004F
:10D1A8000B4483F85620A368D3F87412890710D566
:10D1B800D3F87432606913F0040F18BF2A220949A2
:10D1C80008F00CFC204608F028FC10B16069FFF755
:10D1D80053FE02B010BD012220460DF1070108F0F0
:10D1E80090FDF6E7F894010010B504468368022123
:10D1F800084A08F079FDA368D3F874329B0707D56D
:10D208002046FFF76BFE2046BDE8104008F02BBC17
:10D2180010BD00BFDDA00100014908F056BF00BFE6
:10D22800B49E01002DE9F04F0E4600210446174632
:10D238000D4689B0304603AA01F10108FFF7AEFD9B
:10D24800B0B995B127B13A460821204608F04CFDFF
:10D2580000211E4FDFF87890DFF878A0304603AA47
:10D2680001F10108FFF79AFD60B909B0BDE8F08F38
:10D27800006810B1FAF7E0FF80B2854238BF054672
:10D288004146D7E703688BB11A787AB1D0F804B071
:10D298004A46CDE9005308213B46204608F024FDC4
:10D2A800BBF1000F04D16069FFF7B6FF4146D5E72F
:10D2B800524620463B46082108F016FDAA1D59464D
:10D2C800204692B208F00EFFF0E700BF2CA701003D
:10D2D80017A70100199B0100F7B50F6805460E4610
:10D2E800A7B13846FAF7A8FF84B2094B284600933D
:10D2F80008213B46074A08F0F7FC2846E21C7168FB
:10D3080092B203B0BDE8F04008F0ECBE3C46ECE752
:10D3180028A701001EA5010010B507490446FAF721
:10D3280079FF38B120460549FAF774FFB0FA80F062
:10D33800400910BD0120FCE71EA7010021A701003C
:10D3480010B583680446D3F874329B0603D50649A2
:10D35800406908F03EFF5022A36800205A8718222F
:10D36800A3681A8710BD00BF5E81010008B58369F4
:10D3780002491A6808F09BF8002008BD2FA7010091
:10D388002DE9F3410D49054608F091F800220C4CAF
:10D398000C4EDFF83480B44202F1010703D30020B9
:10D3A80002B0BDE8F081636A92B20093A368414677
:10D3B800284608F07CF830343A46ECE73FA70100ED
:10D3C800B87F0100E87F010057A7010008B50249AE
:10D3D80008F097F8002008BDB59E010073B5044613
:10D3E80000250D4EA2680DF106030121E06802F543
:10D3F800AB7208F07EFFBDF80600A36840B12A466C
:10D408003146204603F5AB7308F051F80135E9E7DA
:10D4180083F8560102B070BD68A7010010B5044634
:10D4280008F0B3F803490246204608F040F8002007
:10D4380010BD00BFCA900100022907B50BD153687F
:10D448000C49009312680C4B08F04DF86FF015006A
:10D4580003B05DF804FB8368084AD3F874320849BE
:10D4680013F0020F074B18BF1A4608F020F80020E7
:10D47800EEE700BF87A7010072A70100EE96010042
:10D4880090A70100C19C010010B583680446D3F839
:10D4980074329A0603D50749406908F09AFEA368D2
:10D4A800D3F874329B0603D50349606908F091FEEE
:10D4B800002010BD658101006A810100F0B50129D5
:10D4C800044685B00AD053685E49009312685E4BE3
:10D4D80008F009F86FF0150005B0F0BD8368D3F8BF
:10D4E8007432990603D55949406908F072FE00253F
:10D4F8006FF0F9012046FFF7C5FCFA212046FFF737
:10D50800D7FCA0684FF48072294600F5AB708DF8FF
:10D518000B500AF0ADF94E49606908F05AFE60698F
:10D5280008F041F84FF47A766068012203680DF13B
:10D538000B011F6903ABB847039BEBB9013E4FF4DE
:10D548007A70B6B209F099FD002EEDD1A368D3F830
:10D5580074329B0603D53F49606908F03AFE5022B1
:10D56800A36820465A871822A3683B491A8707F000
:10D57800ACFF6FF00700AFE79DF80B20A3681B2AEC
:10D5880053D093F856111B29CED1522A4DD15A198E
:10D59800002382F85631A66896F857215B2A2BD1CA
:10D5A800022506F2571010F8011F2A463B2905F1FB
:10D5B8000105ADB223D1FF2AC8D002F5AB7216FA25
:10D5C80082F1002211F8010F18BBFA2A28BFFA22AB
:10D5D800FA2B28BFFA2386F85601A1684A87A26861
:10D5E8001387A368D3F874329A0603D5194960697A
:10D5F80008F0EFFD00206FE786F85631A6E703EB49
:10D608008303303901EB4301B5F5807F8BB2CAD172
:10D618009CE7013502EB8202ADB2303800EB4200E4
:10D62800B5F5807F82B2CDD190E72B440135ADB2FC
:10D63800092D83F856217FF677AF0022A36883F877
:10D64800562183E787A7010072A7010070810100B6
:10D65800DBA7010074810100A1A701002DE9F04FAB
:10D6680007461546894689B021B1104608F0F6FEEE
:10D6780000285BD1032455E05C463CE029460AF5C6
:10D68800AB700AF069F90646002854D0FAF7D4FDC1
:10D6980082B2601C3146013230440AF0CFF822468B
:10D6A800594630460AF0BDF84FF020033355BAF812
:10D6B800543008F1010801331C44AAF854400024EE
:10D6C80001994B1C484603AA0193FFF767FB0646DE
:10D6D800E8B100222846316809F095F80028EFD112
:10D6E800D6F800B0D7F808A0BBF1000FC4D0584650
:10D6F800FAF7A2FD84B2BAF854302344FF2BBDDDFB
:10D708002B46032138460D4A08F0EEFA0124B8F1F9
:10D71800000F07D0B8682A4600F1540100F5AB7035
:10D7280008F071F8204609B0BDE8F08F4FF0000806
:10D7380002244146C5E70224E9E700BF92AC010094
:10D7480008B5044806F0D9FFBDE80840024806F0CD
:10D75800D4BF00BFE4AC010019AD01002DE9F843C6
:10D7680005460C4600AF002948D0DFF8B890D9F834
:10D7780000305A0742D0D1E900016E468AB06A46A5
:10D78800A3684FF00508DFF8A0C0C2E90713C2E993
:10D7980005C042F8108F00234FF421514846FDF789
:10D7A800BDFBD9F80030B5465B0727D0D4E90301A3
:10D7B8008AB06A466369DFF874C0C2E90713C2E930
:10D7C80005C042F8108F002348464FF42151FDF759
:10D7D800A5FBD9F80030B54658070FD0E3690121F9
:10D7E8004846134A07F03EFCD9F80030590705D0DF
:10D7F800A369012148460F4A07F034FC012D0AD1DC
:10D80800EFF3058307480268520704D00A4A2946FD
:10D81800103B07F027FC2146284604F0A5FABD4630
:10D82800BDE8F88334C9002047AD010076AD01009A
:10D83800A5AD0100B4AD0100E2AD010030BFFFF7B6
:10D84800FDBF00BF2DE9F04105460B4EDFF82C80E7
:10D85800324606EB0807CC1B2046094909F0E1FFD0
:10D86800A01942460021083C0AF002F8C5F8A84071
:10D8780007F10800BDE8F081000000000800000082
:10D888002C810100054B5A699B689A421FBF044AC4
:10D89800536843F080535360704700BF3CDF00205B
:10D8A80000ED00E0F8B5364C064623680D465B07E8
:10D8B80003D02046334908F021FE334B9B6ADF062C
:10D8C8005CD52368580703D030492D4808F016FE68
:10D8D80011202D4B9B6A190707D523685A0703D0D7
:10D8E8002B49274808F00AFE1220274FBB6A9B07DE
:10D8F80019D52368580703D02649214808F0FEFDAA
:10D908007B6BBA6A11060DD52268520704D0012133
:10D91800214A1B4807F0A6FB26B11B4A936A23F04D
:10D92800800393621320184B9B6ADB0707D5236893
:10D938005F0703D01949124808F0E0FD1420124B84
:10D948009B6A9E0607D52368580703D014490C48DC
:10D9580008F0D4FD15200C4B9A6AD10658BF9A6A74
:10D968009A6A920642BF5A6A22F400525A629A6A26
:10D9780042F0FF029A6200232B70F8BD1020A8E73E
:10D9880034C90020F5AD010000ED00E00BAE010048
:10D998003EAE010051AE010069AE01007FAE01004C
:10D9A8009EAE010010B5334C2368580703D02046BB
:10D9B800314908F0A3FD314B9B6A990157D523687B
:10D9C8005A0703D02E492B4808F098FD1E202B4BF0
:10D9D8009B6ADB0107D52368580703D029492548E6
:10D9E80008F08CFD1F20254B9B6AD90207D52368B8
:10D9F8005A0703D024491F4808F080FD02201F4B16
:10DA08009B6A1B0307D52368580703D01F49194889
:10DA180008F074FD2120194B9B6A590307D5236828
:10DA28005A0703D01A49134808F068FD2220134BFF
:10DA38009B6A9B0307D52368590703D015490D48EE
:10DA480008F05CFD23200D4B9B6ADA0307D5236899
:10DA58005B0703D01049074808F050FD2420074A07
:10DA6800936A6FEA03436FEA1343936210BD1D2064
:10DA7800ADE700BF34C90020CDAE010000ED00E0E5
:10DA8800E5AE0100F8AE010012AF01003CAF0100A5
:10DA98005AAF01007FAF010099AF0100F8B5374CCC
:10DAA800064623680D465B0703D02046344908F034
:10DAB80025FD344B9B6ADF0451D52368580703D0F2
:10DAC80031492E4808F01AFD17202E4B9B6A19057C
:10DAD80007D523685A0703D02C49284808F00EFDBB
