:10800000202B0220891002002D13030019100200FA
:1080100019100200191002001910020019100200B4
:108020000000000000000000000000003512020007
:1080300019100200000000009D110200191002003A
:108040008D1402008D1402008D1402008D140200A4
:108050008D1402008D1402008D1402008D14020094
:108060008D1402008D1402008D1402008D14020084
:108070008D1402008D1402008D1402008D14020074
:108080008D1402008D1402008D1402008D14020064
:108090008D1402008D1402008D1402008D14020054
:1080A0008D1402008D1402008D1402008D14020044
:1080B0008D1402008D1402008D1402008D14020034
:1080C0008D1402008D1402008D1402008D14020024
:1080D0008D1402008D1402008D1402008D14020014
:1080E0008D1402008D1402008D1402008D14020004
:1080F0008D1402008D1402008D1402008D140200F4
:108100008D1402008D1402008D1402008D140200E3
:108110008D1402008D1402008D1402008D140200D3
:108120008D1402008D1402008D1402008D140200C3
:108130008D1402008D1402008D1402008D140200B3
:048140008D14020098
:1081480081F0004102E000BF83F0004330B54FEA00
:1081580041044FEA430594EA050F08BF90EA020F6D
:108168001FBF54EA000C55EA020C7FEA645C7FEA00
:10817800655C00F0E2804FEA5454D4EB5555B8BF23
:108188006D420CDD2C4480EA020281EA030382EA94
:10819800000083EA010180EA020281EA0303362D26
:1081A80088BF30BD11F0004F4FEA01314FF4801CF9
:1081B8004CEA113102D0404261EB410113F0004F0B
:1081C8004FEA03334CEA133302D0524263EB4303C2
:1081D80094EA050F00F0A780A4F10104D5F1200E60
:1081E8000DDB02FA0EFC22FA05F2801841F10001BB
:1081F80003FA0EF2801843FA05F359410EE0A5F18F
:1082080020050EF1200E012A03FA0EFC28BF4CF0BF
:10821800020C43FA05F3C01851EBE37101F0004575
:1082280007D54FF0000EDCF1000C7EEB00006EEB82
:108238000101B1F5801F1BD3B1F5001F0CD349080C
:108248005FEA30004FEA3C0C04F101044FEA445263
:1082580012F5800F80F09A80BCF1004F08BF5FEAEA
:10826800500C50F1000041EB045141EA050130BDCA
:108278005FEA4C0C404141EB0101013C28BFB1F5DC
:10828800801FE9D291F0000F04BF01460020B1FA27
:1082980081F308BF2033A3F10B03B3F120020CDAFA
:1082A8000C3208DD02F1140CC2F10C0201FA0CF0D8
:1082B80021FA02F10CE002F11402D8BFC2F1200C3D
:1082C80001FA02F120FA0CFCDCBF41EA0C019040F3
:1082D800E41AA2BF01EB0451294330BD6FEA04043C
:1082E8001F3C1CDA0C340EDC04F11404C4F1200227
:1082F80020FA04F001FA02F340EA030021FA04F339
:1083080045EA030130BDC4F10C04C4F1200220FA8F
:1083180002F001FA04F340EA0300294630BD21FACD
:1083280004F0294630BD94F0000F83F4801306BF93
:1083380081F480110134013D4EE77FEA645C18BF87
:108348007FEA655C29D094EA050F08BF90EA020F1E
:1083580005D054EA000C04BF1946104630BD91EA16
:10836800030F1EBF0021002030BD5FEA545C05D119
:108378004000494128BF41F0004130BD14F5800458
:108388003CBF01F5801130BD01F0004545F0FE41CC
:1083980041F470014FF0000030BD7FEA645C1ABF01
:1083A800194610467FEA655C1CBF0B46024650EA38
:1083B800013406BF52EA033591EA030F41F4002164
:1083C80030BD00BF90F0000F04BF0021704730B5EA
:1083D8004FF4806404F132044FF000054FF00001BF
:1083E80050E700BF90F0000F04BF0021704730B580
:1083F8004FF4806404F1320410F0004548BF404255
:108408004FF000013EE700BF42004FEAE2014FEAA9
:1084180031014FEA02701FBF12F07F4393F07F4F84
:1084280081F06051704732F07F4208BF704793F087
:108438007F4F04BF41F40021704730B54FF460749A
:1084480001F0004521F000411CE700BF50EA01029D
:1084580008BF704730B54FF000050AE050EA010246
:1084680008BF704730B511F0004502D5404261EBB6
:1084780041014FF4806404F132045FEA915C3FF4F7
:10848800D8AE4FF003025FEADC0C18BF03325FEA94
:10849800DC0C18BF033202EBDC02C2F1200300FA45
:1084A80003FC20FA02F001FA03FE40EA0E0021FA6A
:1084B80002F11444BDE600BF70B54FF0FF0C4CF458
:1084C800E06C1CEA11541DBF1CEA135594EA0C0F0A
:1084D80095EA0C0F00F0DEF82C4481EA030621EA45
:1084E8004C5123EA4C5350EA013518BF52EA033580
:1084F80041F4801143F4801338D0A0FB02CE4FF032
:108508000005E1FB02E506F00042E0FB03E54FF061
:108518000006E1FB03569CF0000F18BF4EF0010E59
:10852800A4F1FF04B6F5007F64F5407404D25FEA55
:108538004E0E6D4146EB060642EAC62141EA555108
:108548004FEAC52040EA5E504FEACE2EB4F1FD0C4A
:1085580088BFBCF5E06F1ED8BEF1004F08BF5FEAC8
:10856800500E50F1000041EB045170BD06F000467A
:1085780046EA010140EA020081EA0301B4EB5C0427
:10858800C2BFD4EB0C0541EA045170BD41F480111F
:108598004FF0000E013C00F3AB8014F1360FDEBF44
:1085A800002001F0004170BDC4F10004203C35DA20
:1085B8000C341BDC04F11404C4F1200500FA05F3A3
:1085C80020FA04F001FA05F240EA020001F0004244
:1085D80021F0004110EBD37021FA04F642EB0601BA
:1085E8005EEA430E08BF20EAD37070BDC4F10C04E4
:1085F800C4F1200500FA04F320FA05F001FA04F2A8
:1086080040EA020001F0004110EBD37041F1000193
:108618005EEA430E08BF20EAD37070BDC4F120059E
:1086280000FA05F24EEA020E20FA04F301FA05F206
:1086380043EA020321FA04F001F0004121FA04F2AE
:1086480020EA020000EBD3705EEA430E08BF20EA7E
:10865800D37070BD94F0000F0FD101F000464000B8
:1086680041EB010111F4801F08BF013CF7D041EA3A
:10867800060195F0000F18BF704703F0004652003E
:1086880043EB030313F4801F08BF013DF7D043EA0F
:108698000603704794EA0C0F0CEA135518BF95EAC5
:1086A8000C0F0CD050EA410618BF52EA4306D1D14C
:1086B80081EA030101F000414FF0000070BD50EA6B
:1086C800410606BF1046194652EA430619D094EAF5
:1086D8000C0F02D150EA013613D195EA0C0F05D1DF
:1086E80052EA03361CBF104619460AD181EA030133
:1086F80001F0004141F0FE4141F470014FF00000EB
:1087080070BD41F0FE4141F4780170BD70B54FF085
:10871800FF0C4CF4E06C1CEA11541DBF1CEA135505
:1087280094EA0C0F95EA0C0F00F0A7F8A4EB0504E7
:1087380081EA030E52EA03354FEA013100F08880DE
:108748004FEA03334FF0805545EA131343EA1263A7
:108758004FEA022245EA111545EA10654FEA00265C
:108768000EF000419D4208BF964244F1FD0404F515
:10877800407402D25B084FEA3202B61A65EB030571
:108788005B084FEA32024FF480104FF4002CB6EB2E
:10879800020E75EB030E22BFB61A754640EA0C00AE
:1087A8005B084FEA3202B6EB020E75EB030E22BFEE
:1087B800B61A754640EA5C005B084FEA3202B6EB2F
:1087C800020E75EB030E22BFB61A754640EA9C00EE
:1087D8005B084FEA3202B6EB020E75EB030E22BFBE
:1087E800B61A754640EADC0055EA060E18D04FEA7C
:1087F800051545EA16754FEA06164FEAC30343EA1C
:1088080052734FEAC2025FEA1C1CC0D111F4801FE8
:108818000BD141EA00014FF000004FF0004CB6E7E1
:1088280011F4801F04BF01430020B4F1FD0C88BF80
:10883800BCF5E06F3FF6AFAEB5EB030C04BFB6EB8B
:10884800020C5FEA500C50F1000041EB045170BD7E
:108858000EF0004E4EEA113114EB5C04C2BFD4EBAB
:108868000C0541EA045170BD41F480114FF0000E2F
:10887800013C90E645EA060E8DE60CEA135594EAAB
:108888000C0F08BF95EA0C0F3FF43BAF94EA0C0FAE
:108898000AD150EA01347FF434AF95EA0C0F7FF423
:1088A80025AF104619462CE795EA0C0F06D152EA77
:1088B80003353FF4FDAE1046194622E750EA41065B
:1088C80018BF52EA43067FF4C5AE50EA41047FF46C
:1088D8000DAF52EA43057FF4EBAE12E74FF0FF3CD1
:1088E80006E000BF4FF0010C02E000BF4FF0010CA2
:1088F8004DF804CD4FEA410C7FEA6C5C4FEA430C1B
:1089080018BF7FEA6C5C1BD001B050EA410C0CBF69
:1089180052EA430C91EA030F02BF90EA020F0020CB
:10892800704710F1000F91EA030F58BF994208BF32
:1089380090422CBFD8176FEAE37040F001007047EF
:108948004FEA410C7FEA6C5C02D150EA013C07D146
:108958004FEA430C7FEA6C5CD6D152EA033CD3D091
:108968005DF8040B704700BF8446104662468C468B
:108978001946634600E000BF01B5FFF7B7FF0028BE
:1089880048BF10F1000F01BD4DF808EDFFF7F4FFE7
:108998000CBF012000205DF808FB00BF4DF808ED72
:1089A800FFF7EAFF34BF012000205DF808FB00BF95
:1089B8004DF808EDFFF7E0FF94BF012000205DF8B7
:1089C80008FB00BF4DF808EDFFF7CEFF94BF01206C
:1089D80000205DF808FB00BF4DF808EDFFF7C4FF65
:1089E80034BF012000205DF808FB00BF4FEA410CAE
:1089F8007FEA6C5C02D150EA013C0AD14FEA430C91
:108A08007FEA6C5C02D152EA033C02D14FF00000CD
:108A180070474FF0010070474FEA410212F500120B
:108A280015D211D56FF47873B3EB625212D94FEAAD
:108A3800C12343F0004343EA505311F0004F23FA97
:108A480002F018BF404270474FF00000704750EAEC
:108A5800013005D111F0004008BF6FF000407047A9
:108A68004FF00000704700BF4A0011D212F5001203
:108A780011D20DD56FF47873B3EB62520ED44FEA6E
:108A8800C12343F0004343EA505323FA02F07047EE
:108A98004FF00000704750EA013002D14FF0FF302C
:108AA80070474FF0000070474FEA4102B2F1E043CF
:108AB80024BFB3F5001CDCF1FE5C0DD901F0004CBD
:108AC8004FEAC0024CEA5070B2F1004F40EB83000D
:108AD80008BF20F00100704711F0804F21D113F139
:108AE8003872BCBF01F00040704741F480114FEA72
:108AF8005252C2F11802C2F1200C10FA0CF320FAFB
:108B080002F018BF40F001004FEAC1234FEAD32317
:108B180003FA0CFC40EA0C0023FA02F34FEA430381
:108B2800CCE77FEA625307D150EA01331EBF4FF00A
:108B3800FE4040F44000704701F0004040F0FE4025
:108B480040F40000704700BF7BB972B90029BEBF6E
:108B580000204FF0004106E008BF00281CBF6FF05E
:108B680000414FF0FF3000F075B8ADF1080C6DE929
:108B780004CE002909DB002B1ADB00F096F8DDF89B
:108B880004E0DDE9022304B07047404261EB410193
:108B9800002B1BDB00F089F8DDF804E0DDE9022397
:108BA80004B0404261EB4101524263EB430370471A
:108BB800524263EB430300F078F8DDF804E0DDE9A6
:108BC800022304B0404261EB41017047524263EB1B
:108BD800430300F06AF8DDF804E0DDE9022304B09D
:108BE800524263EB4303704753B94AB9002908BF9F
:108BF80000281CBF4FF0FF314FF0FF3000F02AB8BB
:108C0800ADF1080C6DE904CE00F04FF8DDF804E092
:108C1800DDE9022304B07047D0B500220B4B0646AD
:108C28000F46FFF749FCFFF71FFF0446FFF7CAFB93
:108C38000022074BFFF740FC02460B4630463946F8
:108C4800FFF782FAFFF710FF2146D0BD0000F03D84
:108C58000000F041704700BF10F8012B11F8013BEC
:108C6800012A28BF9A42F7D0D01A7047034613F852
:108C7800012B002AFBD1181A0138704738B5002299
:108C8800002304460D46FFF789FE28B920462946E9
:108C9800BDE83840FFF7C0BF204605F10041FFF7A7
:108CA800BBFF404261EB410138BD2DE9F0478646E4
:108CB8008C460846089E154674461946002B40F017
:108CC800C1808542B2FA82F245D94AB1C2F1200385
:108CD80000FA02FC954094402EFA03F343EA0C0C88
:108CE8004FEA154EA8B2230CBCFBFEF80EFB18CCBD
:108CF80008FB00F943EA0C43994528D9EB1808F119
:108D0800FF3704D2994502D9A8F102072B44A3EBF7
:108D18000903A4B2B3FBFEFC0EFB1C330CFB00F0F2
:108D280044EA0344A04214D92C190CF1FF3304D2AD
:108D3800A04202D9ACF102032C44241A43EA0740AA
:108D48001EB1D440002334607360BDE8F087474605
:108D5800DDE76346F1E792BB431B01214FEA154E5D
:108D6800AFB2200CB3FBFEFC0EFB1C330CFB07F868
:108D780040EA0343984561D9EB180CF1FF3004D25F
:108D8800984502D9ACF102002B44A3EB0803A4B226
:108D9800B3FBFEFC0EFB1C330CFB07F744EA034451
:108DA800A7424DD92C190CF1FF3304D2A74202D99E
:108DB800ACF102032C44E41B43EA0040C0E7C2F1D3
:108DC80020039540944020FA03F12EFA03F34FEA6A
:108DD800154E9040AFB20343B1FBFEFC0EFB1C10D6
:108DE800190C0CFB07F841EA0041884522D969189B
:108DF8000CF1FF3004D2884502D9ACF102002944B5
:108E0800A1EB08019BB2B1FBFEFC0EFB1C110CFB95
:108E180007F743EA01439F420ED9EB180CF1FF31E3
:108E280004D29F4202D9ACF102012B44DB1B41EA78
:108E3800004193E76046E3E76146F7E76046A4E749
:108E48006346B8E7834206D916B9002108467CE78D
:108E5800C6E900E0F9E7B3FA83F78FB9834201D393
:108E6800724508D8BEEB020460EB030301209C4660
:108E78001EB9002169E73846FAE7C6E9004CF8E769
:108E8800C7F1200CBB400EFA07F522FA0CF42EFAB3
:108E98000CF1BA401C4320FA0CF3B8404FEA1449CD
:108EA80001431FFA84FEB3FBF9F809FB18300B0CD9
:108EB80008FB0EFA43EA00439A4540D9E31808F143
:108EC800FF3004D29A4502D9A8F102002344A3EB4B
:108ED8000A0389B2B3FBF9F809FB183308FB0EFE45
:108EE80041EA03418E452CD9611808F1FF3304D2B9
:108EF8008E4502D9A8F10203214443EA0040A1EBC0
:108F08000E01A0FB02984145CE46434602D306D146
:108F18004D4504D20138B9EB020E68EB0403002E6C
:108F2800A7D0B5EB0E0261EB030101FA0CFC22FAA3
:108F380007F3F9404CEA0303C6E9003199E74046D4
:108F4800C5E74346D9E700002DE9F04F82461746AA
:108F58001C4600259FB00391387810B9284600F0C8
:108F6800A9BD252809D00399D0470028C0F2A285B9
:108F78007B1C01350593059FEEE71822002110A8F8
:108F880029F0AAF97B78252B00F0BC8000239846AD
:108F98009E469C461846791C0E4611F8012B2B2A32
:108FA80000F0E38000F2DA80202A00F0E180232A32
:108FB80000F0E1802BB19DF8483043F040038DF874
:108FC8004830B8F1000F05D09DF8483043F0200331
:108FD8008DF84830BEF1000F05D09DF8483043F0B9
:108FE80010038DF84830BCF1000F05D09DF84830CB
:108FF80043F008038DF8483028B19DF8483043F015
:1090080004038DF848309DF8483003F044014429A2
:1090180003D16FF386138DF848309DF848302A2A1B
:1090280043F080030E968DF8483040F0A9809DF8F3
:10903800493043F001038DF84930731C1A782E2A01
:109048000CBF012100219DF8492061F341028DF8F0
:1090580049200CD15A1C0E925A782A2A40F0A08036
:109068009DF84920023342F004028DF849201A780D
:109078006C2A00F0C18000F2A380682A00F0A98061
:109088006A2A00F0C2804C2A00F0C78013F8012B2E
:10909800782A05938DF84B2000F209816D2A00F299
:1090A800C980692A00F20381572A00F2E280412A26
:1090B80004D0A2F14503022B00F2F98004219DF8A7
:1090C8004A3002F0DF02A2F1410961F30203D9F14B
:1090D80000029DF8491042EB090262F3C7110A0623
:1090E8008DF84A308DF84910CBB200F11F8103F09A
:1090F8007802182A40F009816FF3C6038DF84930C9
:109108000023F8E08DF84B30BB1C05939DF84930DF
:109118009DF84A20DE0702F0070040F1098154F863
:10912800041B0029049108DA9DF8481041F0040155
:109138008DF84810049949420491590740F100817B
:1091480054F8046B002E80F2FF809DF849306FF3CD
:1091580041038DF849304FF0FF36F5E02D2A0DD048
:10916800302A7FF427AF012316E74FF0010C13E7ED
:109178004FF0010E10E74FF001080DE701200BE753
:109188000EA812F037FA0E9BB3423FF457AF9DF882
:1091980048201390C00F60F341028DF848204DE736
:1091A8000EA812F027FA9DF848301490C3F3400235
:1091B80042EAD07262F341038DF848300E9B56E7BD
:1091C800742A26D07A2A7FF461AF06219DF84920B7
:1091D8000CE05A78682A9DF8492006D1012161F3EC
:1091E800C6028DF84920023350E7022161F3C60216
:1091F8008DF84920013349E75A786C2A9DF84920AF
:1092080001D10421EBE70321F0E705219DF849206E
:10921800ECE707219DF84920E8E7BDF8482022F44B
:10922800F04222F0020242F4804242F00202ADF81B
:109238004820DFE76E3AD3B201229A4040F28243D7
:109248001A429DF8493039D112F0240F61D1D10763
:109258002DD503219DF84A2003F07803A3F1400897
:1092680061F30202D8F100038DF84A2043EB0803AA
:1092780041E00120A2F15801C9B200FA01F111F44C
:10928800624F7FF41BAF40F6010319429DF8493045
:109298001AD111F4043F0AD09DF84A2060F3020263
:1092A80003F07803402B8DF84A207FF429AF9DF80E
:1092B800483043F001038DF8483021E702219DF83A
:1092C8004A2061F30202EBE702209DF84A1003F0FE
:1092D800780360F30201402B8DF84A1002BF9DF815
:1092E800481041F001018DF84810632A7FF408AF57
:1092F800003B18BF01239DF84820C2F340010B43EF
:1093080063F341028DF8482000E713F0380FCED1FF
:10931800F6E603219DF84A2013F0780F61F3020264
:1093280014BF012300238DF84A20E4E70123E2E774
:109338009DF948100029ACBF4FF0FF311399FBE6A7
:109348009E077FF508AF149E00230428CDE9133348
:109358009DF8493007D1990705D49DF9491000298E
:10936800ACBF06260D2602F00702012AC3F3C30389
:1093780032D1DA1E042A04D8DFE802F0204545205D
:1093880020002268012B4FEAE271CDE910211BD1A0
:109398009DF94020D117CDE9102104349DF84820CB
:1093A800069292074FD03A465046059B039926F0FD
:1093B8008BFA0028C0F27E830544DCE554F8042BC0
:1093C800D117CDE91021E9E7022BE6D111B242F31A
:1093D800C032CDE91012E0E7022A24D1DA1E042AAD
:1093E80004D8DFE802F0181010181800012B4FF00D
:1093F800000154F8042B14D0022BCDE91021CDD153
:1094080092B21092CAE7073424F00704F4E8020184
:10941800CDE91001C2E754F8042B109200221192F2
:10942800BCE7D2B2CDE7042A08D1073424F00704F8
:10943800D4E900010834CDE91001AFE7032AADD122
:1094480054F8042BDDE79DF84B80B8F1780F3FF610
:1094580092ADB8F1570F5CD8B8F1250F00F0A48091
:10946800B8F1240F7FF687ADB8F1410F04D0A8F109
:109478004503022B3FF67FADDDE91023002BC0F238
:109488004D810699080700F14C81C1F300194FEA94
:109498004919C3F30A51C3F31303002940F0448167
:1094A80052EA030014BF4FF0010C4FF0000CD80231
:1094B80040EA5250D702CDE90C70B8F1460F47EA9E
:1094C800010740EAE17008BF4FF06608384300F032
:1094D800B781BCF1000F10D01B0343EA12531703E6
:1094E8003A4618464FF0000C002880F25681BCF12D
:1094F800000F40F05981CDE90C730D9BA1F2FE3BA2
:1095080043F000430D930021DDE90C230F460520AD
:1095180060E1A8F15802202A3FF62DAD01A151F8CB
:1095280022F000BFF79600007F8F00007F8F0000B9
:109538007F8F00007F8F00007F8F00007F8F0000EB
:109548007F8F00007F8F0000819400007F8F0000D4
:10955800A3960000B7960000819400008194000053
:10956800819400007F8F0000B79600007F8F000075
:109578007F8F00007F8F00007F8F0000FD96000026
:10958800F7960000479600007F8F00007F8F00004D
:10959800C19500007F8F0000F79600007F8F0000C4
:1095A8007F8F0000F796000040460399D0470028B7
:1095B800C0F280820135DEE4002E109F3BDB31468D
:1095C800384629F05BF8002F3FF4D5AC4FF000097E
:1095D8003E18F31B9DF84A2012F01001069100F086
:1095E8005E82023312F04002DDF84C80089218BF08
:1095F800149A434418BF9B18049ACDF81C80002A7B
:1096080040F36882D31A9DF8482004935007C2F3A8
:10961800800B00F15F82510640F14F82B9F1000FD3
:1096280007D048460399D0470028C0F24382D9465C
:109638000135302242E23846FFF718FBC6E710989A
:10964800002800F027820DF175030093002117AB65
:1096580012AA11F0E5FF4FF000090746BDF84A309D
:1096680003F0EF0343F4F04343F01003ADF84A303E
:10967800002E0CDB9DF848200DF17503DB1B6FF302
:1096880086129E428DF8482001D9F31A1393002FB1
:109698003FF471AC0DF175066DE0109B4FF00009B9
:1096A8008DF85C300DF15D06012317AF92E7069B3C
:1096B8001F0754BFC3F300194FF02B09DDE910232E
:1096C80058BF4FEA4919002B06DA4FF02D095242CC
:1096D80063EB4303CDE91023DDE910010DF17503B8
:1096E800009312AA17AB11F09BFF0746C0E74FF093
:1096F8000009F1E7109A072B3FF63DACDFE803F0CD
:109708000C04060C08080C0C157034E4158032E4BF
:10971800EB17C2E900532EE415602CE44FF02D0935
:10972800B7E64FF02B09B4E640F2FF70814231D121
:10973800A34908F101085FFA88F811F808101343E3
:1097480001F003011ED101290BBF492369234E21D2
:109758006E210CBF462266228DF85C309DF8483099
:109768008DF85D106FF386138DF85E208DF8483004
:109778000DF15F0617AFF31BB9F1000F3FF42AAFE5
:10978800013327E7012915BF6E234E2361214121AB
:109798001A46E1E74FF0000C89E692184FF0010CE9
:1097A80001F1FF3140419FE6CDE90C20A5E65208C2
:1097B80042EAC3725B08B3F1333F59460BF1010B20
:1097C800F5D201F1020B012100FB03FCA2FB0023EF
:1097D800013F63441BF1020FE9DB09B1CDE90C231A
:1097E800DDE90C32BBF1000F2DDCCBF10401A1F156
:1097F80020000BF11C0B02FA0BFB22FA00F0CA4006
:10980800CB40079208F0DF0243EA0B03472A43EAFA
:1098180000037BD1F91C01DBBE422ADAA8F1020859
:10982800002E5FFA88F87ADD9DF84820013E9206FE
:1098380075D4B6F1000B18BF4FF0010B721C26E06F
:109848004FF0000B5FE6023342F100020CA80BF167
:10985800FF3B0137CDE90C3226F007F8DDE90C3281
:10986800DB185241002A0BF1FF3BF9DACDE90C3243
:10987800B6E79DF84820F61B90064DD4B6F1000BCC
:1098880018BF4FF0010BF2194FF066084AD4102A9E
:10989800A8BF10229FED487B10208DED0E7B0B900A
:1098A800DDE90E01002A3FD1079A1B1842EB01019E
:1098B800B1F1805F47D2CDE90C31069BB8F1660F54
:1098C80003F0200240F0C680002F47DC30238DF8DB
:1098D8005C30002A76D1002E40F3BD812E238DF80E
:1098E8005D3087B17B42B342A8BF3346002B139348
:1098F800A6EB0306D4BF002301239DF84A2063F397
:1099080045128DF84A200DF15E0340E0B8F1660F6C
:109918004FF0000BB7D091E74FF0000BB3E74FF0D3
:10992800000B8BE70022B5E7400840EAC170490800
:10993800CDE90E010EA8CDE9082325F096FF089A77
:10994800099B013AACE75B0843EAC1730CA84908D4
:10995800CDE90C31013725F088FFAEE717AB0B993D
:1099680000290BDD0BA90CA8CDE9063225F095FFDF
:10997800069B013F079A03F8010BF0D11397AAB988
:10998800002E40F366812E2103F8011B0027002ECC
:1099980021DD0B9A002A1EDD0BA90CA8069325F0E1
:1099A8007CFF069B013E03F8010BF0E72E2203F82B
:1099B800012BEBE7AFF30080000000000000000877
:1099C800FBC604002E238DF85D30002F9BD0002E9F
:1099D80088DC0DF15E03BBF1000F4FD114961E46D3
:1099E80008F0DF03452B24D1002FBABF7F422D2377
:1099F8002B23632FC8BF64227370C4BFB7FBF2F375
:109A080002FB13774FF00A02C8BF03F13001B7FB1E
:109A1800F2F3C8BFB17003F1300102FB137386F88B
:109A2800008003F13003D4BF0236033631707370FF
:109A38000236139B002B2BDC149B002BD4BF002376
:109A480001239DF84A2063F3861200238DF84A20EB
:109A580033708FE60BA90CA8069225F01EFF069A14
:109A680030288DF85C0018BF07F1FF3712B9002EB7
:109A780040F3F1802E238DF85D3044E71E4616F83A
:109A8800012C013B302AF9D02E2A08BF1E46A7E731
:109A98000123D6E7714E81460523771F9AE5110702
:109AA80048BF01339EE5104609920399D047002824
:109AB800099A05DA1FB0BDE8F08F2022DDF810B052
:109AC800594600290BF1FF3BEDDC049BCDF810B0A3
:109AD8002B445D1AB9F1000F05D048460399D047C9
:109AE8000028E7DB0135089B002B77D09DF949302A
:109AF800002B28DB3B46DFF8689118789B4619F85D
:109B08000020013352073FD49DF84A30EF1B9806D6
:109B18005F4407D44246002A08F1FF383BDC079B24
:109B28003B449F1A9BF800002E280AD10399D0477E
:109B38000028BFDBB8F1000F07F1010731DC0BF19A
:109B4800010B5D4638E0B94699F80000C846702810
:109B580009F1010913D1EF1B149D47443D44EB1B48
:109B6800002B33DC334642465046039925F0ACFEC1
:109B780000289FDB3844049E0546064464E00399A8
:109B8800D0470028E0DA95E706930399D0470028E4
:109B9800069BB2DA8EE730200399D0470028B9DA5D
:109BA80088E730200399D04708F1FF38C0E70399C8
:109BB800D0470028FFF67EAF2878A84619F800306D
:109BC80001355907F3D4A7EB0B07C5E730200399F4
:109BD800D0470028FFF66EAF0137C0E79DF84A303E
:109BE800DA0601D41B0706D530200399D047002890
:109BF800FFF660AF0135069B3BB103999DF84B001A
:109C0800D0470028FFF656AF0135A84406E03020BB
:109C18000399D0470028FFF64DAF0135A8EB05039F
:109C2800002BF4DC33463A465046039925F04CFEA7
:109C38000028FFF63FAF28449DE720200399D0472E
:109C48000028FFF637AF0135731B002BF5DCFFF753
:109C580092B91746BFE60DF15D03BCE67A7E0400B3
:109C6800FCC60400000000002DE9F04706460F4638
:109C7800904688B028F0E6F94FF47A73A0FB0345C4
:109C880003FB0155E40B012F44EA45444FEAD5355F
:109C980007D122462B463046274926F0C8FD00202A
:109CA80012E0D8F8047025483946FEF7D5FF70B1A0
:109CB80039462348FEF7D0FF48B130463A46214995
:109CC80026F0D1FD6FF0040008B0BDE8F08720460B
:109CD80017A3D3E900232946FEF736FF05460C46AD
:109CE80010461946184A0023FEF72EFF80460F46F5
:109CF800104619464EF660220023FEF725FF8246DD
:109D08008946104619464FF47A720023FEF71CFF65
:109D1800CDE902A9CDE90623CDE904012A46234667
:109D28003046CDE90087094926F081FDB7E700BF35
:109D3800005C260500000000218404003284040031
:109D4800358404003E84040080EE36005684040006
:109D580001282DE9FF41884608D027F05AFB162331
:109D680003604FF0FF3004B0BDE8F08109B917F087
:109D780013FF8A683E4B9A42EFD828F063F90546EC
:109D88000F4628F05FF93B4CD8F80030D8F804208B
:109D9800A3FB043604FB0266D8F808209B1846EBA0
:109DA800E276EA0B42EA4742A2FB0421FF0B9B1A28
:109DB800C0F30E0204FB0711A2FB04244FEAD232BF
:109DC80042EA444266EB0101981A61F1000126A3B8
:109DD800D3E90023FEF7B8FE6D46CDE90001284619
:109DE800029217F0EDFE18B927F013FB8B23B7E7A3
:109DF8004FF0FF324FF0FF331F4825F0ECFC041EF4
:109E080020DA1E491E4877231E4A25F085FD214683
:109E18001D4811E01D4C95E80F0084E80F00164816
:109E280025F0D4FC0446E0B1194915487723154AB2
:109E380025F072FD2146174825F06EFD772111485F
:109E480025F061FDE6D0012C0BD013499523134A68
:109E58000B4825F061FD124825F05EFD95210F485D
:109E6800EEE700207FE700BF00CA9A3B0000000031
:109E7800FFC99A3B00CA9A3BACEE0020FEA1040041
:109E8800A64B0300A7A1040008A204000831012082
:109E9800DBA10400E5A104004DA2040021A20400F6
:109EA80056A20400000000002DE9F04F1F469DB0A7
:109EB80000230C4682460F9218934FF00008984BE7
:109EC8004FF000091D682846FEF7D0FE224683465B
:109ED800179213782B2B3BD02CD80D2B26D8082B78
:109EE80026D8002B2FD000230D93179E3378302BC4
:109EF80074D1737803F0DF03582B65D10D9B17A934
:109F0800884A5046019318AB0297009319AB23F087
:109F180061F810F00705044635D0062D1AD10F9BBD
:109F28000BB101361E6042464B4637E0202BDAD192
:109F38000132CDE72D2BD6D101230D93531C179356
:109F48005378002BD1D10F9B002BECD01C60EAE793
:109F58000023F2E7189A3AB135211AA828F03CFFF5
:109F68001899504623F008FB013D199A042D06D88C
:109F7800DFE805F0190322251900DDE91A89210710
:109F880001D549F000490F9B13B1179B0F9A136035
:109F98000D9B002BC7D0424609F1004343EC102B20
:109FA8001DB0BDE8F08FDDE91A8302F2334223F4D5
:109FB800801343EA0259E2E7DFF86C91DFE76FF0BC
:109FC80000494FF0FF38DAE7179B5A1C17925B7865
:109FD800302BF9D0002BD6D0012300E00023002736
:109FE80004930A22179BCDE905770A9317980678F8
:109FF800A6F13003D9B2092924D95A46294628F0AE
:10A0080018FB00282DD000203246059D83460346C4
:10A01800652A01D0452A13D11DB9049A024392D06A
:10A028000025179C621C179262782B2A6ED02D2A65
:10A0380072D04FF0000CA2F1300109297AD9179497
:10A04800002699E00599013008291790D7BF06998D
:10A0580002FB073702FB01330693059B0133059387
:10A06800C4E7179B03EB0B02179213F80B20059B11
:10A07800A3B383461D46A2F13003092B12D901234D
:10A08800C6E7179B01305A1C17925A78302AF8D025
:10A09800A2F13103082B00F2EF8483460020179BBE
:10A0A80005460A93303A00F1010311D09B4400EBB6
:10A0B800050C2B460A21634512D12B180135082BB4
:10A0C800054419DC06990A2303FB012306930023A0
:10A0D800179A1846511C17915278CCE70598D5E77E
:10A0E800082B03F1010303DC069E4E430696E2E7C4
:10A0F800102BD8BF4F43DEE70F2BDCBF0A2303FB2F
:10A108000727E4E74FF0000B012386E74FF0000C28
:10A11800A21C1792A2788EE74FF0010CF8E700BF57
:10A12800184A0300A44903000000F07F179A511C45
:10A1380017915278302AF9D0A2F1310108293FF657
:10A148007FAF303A0792179A0C92179A561C1796B7
:10A158005278A2F1300EBEF1090F38D90C99761A4F
:10A16800082E44F61F6603DC07998E42A8BF0E46E8
:10A17800BCF1000F00D07642002D4FD1049908435E
:10A188007FF401AF002B7FF4DEAE692A29D026DCEC
:10A19800492A26D04E2A7FF4D6AE9B4917A828F024
:10A1A80099FC00283FF4CFAE179B1B78282B2FD1A2
:10A1B8001AAA964917A828F0A1FC052828D11B9BA4
:10A1C800DDF8688043F0FF4949F4E009DBE6079EC3
:10A1D8000A2101FB0621A1F130020792B5E76E2A98
:10A1E800D9E78B4917A828F075FC00283FF4ABAED7
:10A1F800179B17A88749013B179328F06BFC10B9E8
:10A20800179B01331793DFF81C924FF00008BAE64A
:10A21800814801F079FA59EC108BB4E6A6EB0B03F0
:10A2280006982C460C93059B002B08BF2B46102D37
:10A238000593A8BF1024FEF7C5F8092D8046894666
:10A2480013DC0C9B002B3FF49EAE0C9B78DD162B89
:10A2580045DC7249424601EBC3014B46D1E9000196
:10A26800FEF72AF9804689468DE66C4B03EBC4035A
:10A2780053E91223FEF720F9804689463846FEF74F
:10A28800A1F802460B4640464946FDF75FFF0F2DF1
:10A2980080468946D5DD2C1B0C9B1C44002C25DCF4
:10A2A80000F0A280644214F00F020AD05B4B4046D3
:10A2B800494603EBC203D3E90023FEF727FA804699
:10A2C8008946241100F090801F2C40F3B18022238E
:10A2D8004FF000084FF00009CAF8003053E6C5F106
:10A2E80025030C9A934219DA2C1B144414F00F031B
:10A2F8000AD04A49424601EBC3014B46D1E9000165
:10A30800FEF7DAF88046894634F00F046CD0B4F5CD
:10A318009A7F41DD2223CAF8003074E7C5F10F05A2
:10A328003E4C42464B4604EBC501D1E90001FEF71D
:10A33800C3F80C9B5D1B04EBC504D4E900238FE72D
:10A348001633A8DBABEB0602344B4046494603EB19
:10A35800C203D3E90023FEF7D9F983E70023069364
:10A368002223DFF8C0904FF00008CAF8003018998F
:10A37800504623F001F90699504623F0FDF8059957
:10A38800504623F0F9F81099504623F0F5F807994C
:10A39800504623F0F1F8F6E50023241140464946DB
:10A3A8001F4F0493012C22DC0BB180468946049B85
:10A3B800A9F154791A49424601EBC3014B46D1E948
:10A3C8000001FEF779F8174B0A4680460B401649FC
:10A3D8008B429FD8A1F580118B4286BFDFF84C9045
:10A3E8004FF0FF3802F15479002304934BE0E20761
:10A3F80004D5D7E90023FEF75FF80123049A641017
:10A40800083701320492CDE7F04C0400904903006C
:10A418003883040043C80400E3BB0400483F03003A
:10A42800203F03000000F07F0000A07CFFFFEF7FCB
:10A4380014F0100340464946AA4F18BF6A230493F4
:10A448000023E20704D5D7E90023FEF735F80123F6
:10A45800641007F10807F4D10BB180468946049BC4
:10A4680043B1C9F30A524946C2F16B03002B4EDCD3
:10A478006A2304930022002340464946FEF784FAE3
:10A4880000287FF424AF069B5046059A00932B467C
:10A498000A9923F0DBF8109000283FF43BAF0C9B9F
:10A4A800ABEB060B002BB4BF5B46002311930C9B50
:10A4B80023EAE3731393002307930593109B5046F5
:10A4C800596823F019F8069000283FF449AF109B0B
:10A4D8000C301A6903F10C010232920027F0D5FE04
:10A4E8001AAA19A9504649EC108BCDE90A8923F01C
:10A4F80089FB189000283FF433AF0121504623F020
:10A50800EFF803460590D0B90023059328E71F2BE1
:10A518000EDD342B4FF00008DBBF4FF0FF33C2F1E4
:10A528004B024FF05C799340D8BF03EA01099FE7DB
:10A538004FF0FF3202FA03F303EA080898E7199C80
:10A548001A9A002CA9BF119B139BE718139EB8BF3A
:10A558001E1B049BB8BF119FE41A634B1444C2F13D
:10A568003602013C9C4280F2B0801B1B01251F2B48
:10A57800A2EB0302CDBFC4F17F449D40002404F543
:10A588007F04C2BF04F57B44E23405FA04F407EB08
:10A59800020B049B16445F451E443B46A8BF5B461E
:10A5A800B342A8BF3346002BC2BFABEB030BF61A6E
:10A5B800FF1A119B002B16DD1A460599504623F009
:10A5C8004FF9059000289FD00146189A504623F06D
:10A5D8009DF80E9000283FF4C3AE1899504622F01B
:10A5E800CBFF0E9B1893BBF1000F71DC0C9B002B6B
:10A5F80008DD139A5046069923F032F90690002890
:10A608003FF4ACAE002E08DD32460699504623F0E2
:10A6180081F9069000283FF4A1AE002F08DD3A46E4
:10A628000599504623F076F9059000283FF498AE36
:10A63800069A5046189923F0D9F9079000283FF454
:10A648008FAEC36805990E930023C36028F077FB8B
:10A6580000284BDA0E9B53EA080340F0BC80C9F38C
:10A668001303002B40F0B78029F000431B0D1B0596
:10A67800B3F1D66F40F2AF80079B5B6923B9079BA4
:10A688001B69012B40F3A78001220799504623F04C
:10A6980041F90599079028F052FB002840F39B8068
:10A6A80029F00043049A1B0D1B05002A79D0B3F149
:10A6B800D66F6DD8B3F15C7F46D84FF000084FF0E5
:10A6C80000092223CAF8003051E6002401255EE77C
:10A6D8005A461899504623F01DF91890002885D13C
:10A6E8003EE600BFF83E030002FCFFFFCB4640F009
:10A6F800A3800E9AC9F31303002A40D09C4A9342C0
:10A7080058D1049B42467BB9B8F1FF3F40F089809D
:10A71800984B99453FF424AE974BDDF8108009EA31
:10A72800030303F5801922E6934B09EA0303B3F107
:10A73800D46F16D918F101011BD18E4A91453FF407
:10A748000FAE03F5801980468C4B404649460022DF
:10A75800FDF7B2FE0B468046894603437FF407AEF9
:10A76800AFE71E0D4FF0FF31C6F16B06B1408845CB
:10A77800E7D0002C5ED014EA0B0FE5D01EE0002BCA
:10A788004AD1B8F1000F8BD064B314EA0B0F2BE059
:10A79800A3F580134FF0FF386FEA13596FEA095990
:10A7A800D2E7A3F580134FF0FF386FEA13596FEA29
:10A7B8000959DCE59CB114EA090F0CD0404649461A
:10A7C800049A27F07DFFDDE90A0153EC102BFDF711
:10A7D800BDFC80468946049B002BB5D1C7E515EA28
:10A7E800080FEAE718EA050FF5D0049A40464946EB
:10A7F80027F066FFDDE90A0153EC102BFDF7A4FCF6
:10A808000022002304460D46FEF7BEF800287FF418
:10A8180054AFA046A946DEE7002CB6D115EA080FCA
:10A82800E2E724B114EA090F3FF4A1ADC6E718EA3C
:10A83800050FF9E72A42A0E70599079828F09AFA40
:10A8480000224FF0804355EC104B20462946FEF776
:10A85800AFF800286DD00E9B002B78D1B8F1000F0F
:10A8680056D1C9F31303002B59D10022444B20467B
:10A878002946FEF793F8002858D120462946002299
:10A88800404BFDF719FE04460D4605F100430894B8
:10A898000993394B0BEA03031293129A3A4B9A42E3
:10A8A800DDE9086740F0A980ABF1547949EC108BD9
:10A8B80023F034F9DDE9082351EC100BFDF7FCFD1A
:10A8C80042464B46FDF742FC0B462B4980462F4A31
:10A8D800194091425CD90B9A264B9A4203D10A9BA4
:10A8E80001333FF43DADDFF88C904FF0FF381899F5
:10A8F800504622F041FE0699504622F03DFE059949
:10A90800504622F039FE0799504622F035FED5E52B
:10A91800B8F1010F03D1B9F1000F3FF4CEAE002416
:10A92800174D9FED0F7B8DED087BB2E70024154D89
:10A93800ABE7144B204629460022FDF7BDFD0E9BD0
:10A9480004460D46002BA0D0CDE90845A1E79FEDB0
:10A95800067B55EC174B8DED087B9AE7AFF300802B
:10A96800000000000000F0BF000000000000F03F01
:10A97800FFFF0F00FFFFEF7F0000F07F000050395E
:10A988000000F03F0000E03F0000E07FFFFF9F7CF9
:10A9980003F15479049B4E46002BA8D129F00043BB
:10A9A800129A1B0D1B059A42A1D120462946FEF793
:10A9B80065F9C9F31306FDF751FD0B460246294612
:10A9C800204646EA0806FDF7BFFB0E9B04460D46E7
:10A9D8001E434BD02EA3D3E90023FDF7DFFF002849
:10A9E8007FF4C5AC204629462BA3D3E90023FDF705
:10A9F800F3FF00283FF47BAFB9E4049B13B3129B29
:10AA0800B3F1D46F1ED82046294625A3D3E90023E5
:10AA1800FDF7CEFF90B129462046FEF725F801281C
:10AA280038BF0120FDF7CEFC0E9B04460D46D3B976
:10AA380001F1004314901593DDE9146707F1D6631B
:10AA4800129A9F1A9DED0A0B23F068F83046394692
:10AA580053EC102BFDF730FDDDE90A23FDF776FBFB
:10AA68008046894696E7CDE91445E5E70EA3D3E984
:10AA78000023FDF793FFBCE7652A3FF443AB452A63
:10AA88003FF440AB0123FFF779BB00BFAFF3008071
:10AA98009535A094FFFFDF3F35E5AF350000E03F77
:10AAA8000000C0FFFFFFDF419535A094FFFFCF3FB7
:10AAB8002DE9F04F476A97B08346209E08910C9283
:10AAC800129355EC104B8DED000B7FB9102020F040
:10AAD80023FF0246CBF8240020B9A74BEA21A74858
:10AAE80023F0C6FCC0E901770760C760DBF82430B3
:10AAF800196859B15A680123584693404A608B60D7
:10AB080022F03AFDDBF8243000221A602B1EB7BF72
:10AB180023F00043002301220193A8BF3360019F63
:10AB2800974BB8BF3260BB4319D142F20F73129AE8
:10AB38001360C7F31303234300F0DB85219B53B94C
:10AB4800904B21E0904B03930833219A13600398AC
:10AB580017B0BDE8F08F8B4B03930333F5E79DEDFA
:10AB6800007B0022002351EC170B8DED0A7BFDF7CB
:10AB78000BFF804650B10123129A1360219B13B139
:10AB8800824B219A1360824B0393E0E7C7F30A567E
:10AB980014AA15A958469DED0A0B23F033F8029024
:10ABA800002E76D00B9BA6F2FF36CDF84C80C3F36F
:10ABB800130343F07F53DDE90A0143F440131946B8
:10ABC8000022744BFDF7C0FA65A3D3E90023FDF713
:10ABD80073FC65A3D3E90023FDF7B8FA04460D46D4
:10ABE8003046FDF7FFFB62A3D3E90023FDF764FCC1
:10ABF80002460B4620462946FDF7A8FA04460D46AC
:10AC0800FDF70AFF00220746002320462946FDF7E4
:10AC1800C5FE40B13846FDF7E5FB22462B46FDF759
:10AC2800B3FE00B9013F162F52D85B4B03EBC703A5
:10AC3800DDE90A01D3E90023FDF7B0FE002849D079
:10AC4800013F00231193149B9B1B5A1E4CBFC3F159
:10AC580001030023079245BF069300230693079339
:10AC6800002F39DB079B10973B4407930023099378
:10AC7800089B092B66D8052BC5BF043B002401247B
:10AC88000893089B023B032B67D8DFE803F02D3AB3
:10AC98003859DDE914631E4406F23243202BC9BF3C
:10ACA800C3F14003C3F120039F4006F21243D8BF0B
:10ACB80004FA03F006F1FF36C4BF24FA03F347EAA7
:10ACC8000300FDF77FFB0122A1F1F873139276E7E9
:10ACD8000123B7E71190B6E7069BDB1B06937B427F
:10ACE800099300231093C3E700230D930C9B002BBB
:10ACF80056DC012399461A4604930C920CE0012372
:10AD0800F3E700230D930C9BFB1803F1010904934F
:10AD18004B46012BB8BF0123DBF824000021042295
:10AD280002F114059D423FD94160584622F0E4FBE8
:10AD3800039000283BD1194B02464FF4D571CEE65B
:10AD48000123DFE7012400230D9408934FF0FF331C
:10AD58000022994604931223CFE701230D93F5E7C8
:10AD680061436F63A787D23FB3C8608B288AC63F09
:10AD7800FB799F501344D33F4DC8040064C80400B6
:10AD88000000F07F49C8040040C8040012AF040066
:10AD980011AF04000000F83F483F0300C0C804009A
:10ADA8000C9B99460493B7E701315200B8E7DBF8EA
:10ADB8002430B9F10E0F039A1A606FD8002C6DD0A9
:10ADC800002F36DD07F00F02A04BF8054FEA2714D5
:10ADD80003EBC20393ED007B8DED0E7B17D59C4BE7
:10ADE80004F00F044FF00308D3E90823DDE90A0152
:10ADF800FDF78CFCCDE90001954D5CB9DDE90E232A
:10AE0800DDE90001FDF782FCCDE900012BE04FF000
:10AE18000208F1E7E10709D508F10108DDE90E01AB
:10AE2800D5E90023FDF748FBCDE90E01641008358C
:10AE3800E3E700F007817C42844B854D4FF0020820
:10AE480004F00F02241103EBC203DDE90A01D3E980
:10AE58000023FDF731FB0023CDE90001002C40F071
:10AE6800E580002BD0D1119BDDE90045002B00F0D7
:10AE78004C810022774B20462946FDF78FFD00289C
:10AE880000F04381B9F1000F00F03F81049B002BD3
:10AE980000F3E480DDE90A34CDE90034159B002B8A
:10AEA80002DB0E2F40F342820D9A002A40F067829F
:10AEB800099C0025DDF81880B8F1000F0DD0079B1C
:10AEC800002B0ADD4345069AA8BF4346D21AA8EBD1
:10AED80003080692079AD31A0793099B0BB30D9B95
:10AEE800002B00F0A682002C00F0A1822946224601
:10AEF800584622F0B5FC029A01460546584622F00B
:10AF080005FC02990646584622F036FB099B1B1B96
:10AF1800099300F09182099A3146584622F0A0FC24
:10AF280002900121584622F0DBFB109B0446002BBF
:10AF380000F084821A460146584622F091FC089B8C
:10AF48000446012B03DC009B002B00F07C820026CA
:10AF5800236904EB8303186927F0A2FEC0F12000DF
:10AF68001096079B184410F01F0000F09182C0F162
:10AF78002003042B40F38182C0F11C00069B03448C
:10AF880080440693079B03440793069B002B05DD2B
:10AF98001A460299584622F0BDFC0290079B002BE6
:10AFA80005DD21461A46584622F0B4FC0446119B9A
:10AFB800002B00F076822146029827F0C0FE002878
:10AFC80080F26F8200230A220299584622F0F6FA8C
:10AFD8000D9B7E1E0290002B00F05C820023294608
:10AFE8000A22584622F0EAFA049B0546002B03DCA5
:10AFF800089B022B00F35E82B8F1000F05DD29469D
:10B008004246584622F086FC0546109B002B00F06D
:10B01800D0826968584622F06FFA0746002840F047
:10B028007F820D4B024640F2EA2158E5E20706D539
:10B0380008F10108D5E90023FDF73EFA0123641061
:10B0480008350BE74FF002080DE700BF483F030043
:10B05800203F03000000F03FC0C804002046002243
:10B06800AC4B2946FDF728FA7E1E08F10108049C1E
:10B07800CDE900014046FDF7B5F9DDE90023FDF70C
:10B088001BFAA54B0022FDF761F8A1F15073CDE939
:10B098000E010F93002C3BD10022A04BDDE90001EB
:10B0A800FDF752F802460B46CDE90023DDE90E23F1
:10B0B800FDF792FC002840F05781DDE90E2101F1EF
:10B0C8000043DDE90001FDF769FC00283FF4E2AE2A
:10B0D800002425460C9BDDF80CA0DE434FF0000849
:10B0E8002146584622F048FA002D00F0A980B8F110
:10B0F800000F05D0A84503D04146584622F03CFA37
:10B108002946584622F038FA9AE03E464C46B1E7BE
:10B11800834B03EBC40353E90201039B1C440D9BBF
:10B12800002B4AD002460B4600207E49FDF7EEFA76
:10B13800DDE90E23FDF708F8DDF80CA0CDE90E01D6
:10B14800DDE90001FDF768FC0546FDF74BF902460D
:10B1580030350B46DDE90001FCF7F6FF0AF8015B24
:10B1680002460B46CDE90001DDE90E01FDF734FC8E
:10B17800002865D100206C49DDE90023FCF7E4FFD5
:10B1880002460B46DDE90E01FDF726FC002840F0DB
:10B198000D81A24500F0EA8000225E4BDDE90E0138
:10B1A800FDF78AF900225B4BCDE90E01DDE90001CC
:10B1B800FDF782F9CDE90001C2E7DDE90E23FDF7CD
:10B1C8007BF9A046DDF80CA0CDE90E01DDE9000110
:10B1D800FDF722FC0546FDF705F9024630350B461A
:10B1E800DDE90001FCF7B0FF0AF8015B02460B46F7
:10B1F800A245CDE900234FF0000223D1494BDDE9F8
:10B208000E01FCF7A3FF02460B46DDE90001FDF73E
:10B21800E3FB002840F0CA8000204249DDE90E2304
:10B22800FCF792FF02460B46DDE90001FDF7B6FB8D
:10B2380070B1C24608F1FF381AF8013C302BF8D03B
:10B24800374655E0334BFDF737F9CDE90001BDE747
:10B25800DDE90A34CDE90034159B002BFFF628AE52
:10B268000E2F3FF725AE2E4B03EBC70393ED007B64
:10B278000C9B002B8DED047B02DAB9F1000F64D032
:10B28800DDF80CA0DDE90045DDE904232046294668
:10B29800FDF73CFAFDF7C0FB0646FDF7A3F8DDE92C
:10B2A8000423FDF709F90246204606F130040B464F
:10B2B8002946FCF749FF0AF8014B039C02460B4656
:10B2C800AAEB0404A14540F08280FCF73FFF044646
:10B2D8000D46DDE90423FDF77FFB002865D12046F4
:10B2E8002946DDE90423FDF74FFB08B1F3075CD4D9
:10B2F8000299584622F040F9002301378AF80030B5
:10B30800129B1F60219B002B3FF421ACC3F800A0C7
:10B318001DE400BF0000244000001C400000144051
:10B32800483F03000000E03F0000F03FA24B03EB62
:10B33800C70393ED007B0C9B002B8DED047B9FDAFC
:10B34800B9F1000F9CDC7FF4C3AE00229B4BDDE912
:10B358000401FDF7B1F8DDE90023FDF733FB0446EE
:10B3680000287FF4B5AE3E462546B4E0DDE90A3450
:10B37800CDE90034159B002B01DB0E2FD6DD089A92
:10B38800012A36DC139A82B303F23343099CDDF8B1
:10B398001880069A012158461A440692079A1A44B8
:10B3A800079222F09DF9054686E53E4653469A46A1
:10B3B80013F8012D392A06D1039A9A42F7D130227F
:10B3C800039901360A701A7801321A7038E7002298
:10B3D8007B4BFDF771F80022002304460D46FDF76C
:10B3E800D3FA00283FF450AF82E7149BC3F1360329
:10B3F800CCE709F1FF34099BA34208DBB9F1000F40
:10B40800A3EB04040EDBDDF818804B46C1E7099B6B
:10B41800109AE31A0994DDF8188000241A444B4660
:10B428001092B6E7069BA3EB09080023B1E7029E3A
:10B4380071E5099A029970E5029672E5089B012B5D
:10B4480017DC009BABB9019BC3F313039BB9019BAA
:10B4580023F00046360D360536B1069B012601332A
:10B468000693079B01330793109B002B7FF470AD65
:10B478001096012075E50026F6E73FF486AD1C33EB
:10B48800069A1A4498440692079A1A4407927CE549
:10B498000346F4E7049B002B2BDC089B022B09DCFA
:10B4A80027E0B9F1000F1DDC089B022B1ADD3E4690
:10B4B800CDF81090049B002B7FF40CAE214605229A
:10B4C800584622F07BF801460446029827F037FCDC
:10B4D80000287FF7FFADDDF80CA0312301360AF80C
:10B4E800013BFBE50D9B3E46CDF81090002B7FF409
:10B4F80083AD039F2146029827F02FF9039B00F1A3
:10B508003009049A07F8019BFB1A9A4240F3CB8052
:10B5180000230A220299584622F050F80290E9E7DF
:10B528002A6905F10C010C300232920026F0ADFEBA
:10B5380001223946584622F0EDF9039BA8460546F4
:10B5480003F1010ADDE9032313440793009B03F089
:10B55800010309930AF1FF3321460298049327F067
:10B56800FCF84146069000F13009029827F0E7FB05
:10B578002A4621460746584622F038FAC26801464C
:10B5880002B3584621F0F8FF002F3ADA0122029957
:10B59800584622F0BFF92146029027F0D0FB002838
:10B5A80003DC29D119F0010F26D0B9F1390F1DD1CB
:10B5B80032E02846C1E700BF483F030000001440BE
:10B5C800000024400A90029827F0B9FB0A990C90D1
:10B5D800584621F0D1FF0C9A5ABB089B53B9099BD6
:10B5E80043B9B9F1390F17D0002F05DD069B03F1D8
:10B5F800310901E0002F2ADADDF810A00AF8019BD2
:10B608006EE5089B3B4304D1009B03F00103002B2C
:10B61800BCD0B9F1390F36D1049F392307F8013B63
:10B62800BA46013F1AF8013C392B5AD001333B7016
:10B6380056E5002F06DB089B3B4306D1009B03F031
:10B64800010313B9002AA1DCD6E7002AE1DC079B35
:10B6580057460AF8019C53452ED000230A22029926
:10B66800584621F0ABFFA84502904FF000034FF079
:10B678000A02414658460BD121F0A0FF80460546F4
:10B688000AF1010A66E7DDF810A009F10109B5E73A
:10B6980021F094FF2946804600230A22584621F0CB
:10B6A8008DFF0546ECE7049B4FF00008002BCCBF4C
:10B6B8001F460127039B1F4401220299584622F086
:10B6C80029F92146029027F03AFB0028A8DC02D18C
:10B6D80019F0010FA4D1BA4617F8013D302BFAD062
:10B6E800FEE4039BBB429BD13123039A01361370BE
:10B6F800F6E4219B002B7FF425AA014BFFF744BAFF
:10B7080040C80400000000009FED010B704700BF17
:10B71800000000000000F87F08B501684B1E142BDC
:10B7280096BF0A4A0A4A52F823204368094824F077
:10B7380033F809497023094A094824F0EDF8094803
:10B7480024F0EAF87021054824F0DDF810400300E1
:10B75800524B0300614B030011AF04008A4B0300F6
:10B76800A64B0300C34B030070B5A2B013F022F838
:10B77800404E306060B94049AB23404A404824F00D
:10B78800CBF8404824F0C8F8AB213C4824F0BBF87B
:10B798003D4B02ACD3F80054C3F80054002315F015
:10B7A800010F8DF8083003D02046384926F01DFFD8
:10B7B800AA0703D52046364926F017FF6B0703D59D
:10B7C8002046344926F011FFE80603D520463249C1
:10B7D80026F00BFFE90303D52046304926F005FF84
:10B7E800AA0303D520462E4926F0FFFE6B0303D596
:10B7F80020462C4926F0F9FE2046FDF737FA00BB13
:10B808002046294926F00DFF2146284823F0C4FF89
:10B8180000230393264B27494FF48052264802936E
:10B82800009405231DF0B8F817F09EFF014680B17B
:10B83800224823F0B1FF224823F0AEFF002022B0B7
:10B8480070BD00F188030DEB0300002300F8833C72
:10B85800DAE70EF0EFFF18F099FB014610B119482E
:10B8680023F09AFF1849306814F00EF800F084F9B4
:10B87800E4E700BF483B0120F94B03008A4B030073
:10B88800A64B0300134C030000500040314C03004A
:10B898003E4C03004A4C0300634C03007D4C0300FC
:10B8A800894C0300974C0300AE4C0300BD4C0300C9
:10B8B800D04C0300E0670120E0EE0020E24C0300DA
:10B8C8000E4D03001B4D03003D4D030010B58EB017
:10B8D8001E4801A923F0E6FE044630B302460220C2
:10B8E8001B4922F00BFE04A820F01EF8002019497D
:10B8F80022F004FE184A0020C2F10052174902F54E
:10B90800802222F0FBFD049A0020154922F0F6FD62
:10B918000C9A0020134922F0F1FD00200B9A1249DD
:10B9280022F0ECFD00200EB010BD104922F0E6FD1B
:10B938002046019A0B4922F0E1FD2046029A0A4965
:10B9480022F0DCFD2046039A0949CAE700EC0020F2
:10B95800384E0300C44E030050080320DC4E030099
:10B96800F04E0300874E03009B4E03006F4E03000A
:10B97800AF4E0300134670B50A220021586821F023
:10B988008BF8002814DD4FF47A73002503FB00F4CC
:10B998004FF40046294640F2E7304FF47A7200230C
:10B9A800E4FB0601FDF720F91EF08AFA284670BD6F
:10B9B8000020034922F0A2FD6FF01500F7E700BF51
:10B9C800044F030010B50024034B204603491C70A4
:10B9D80022F094FD204610BD285601209A4F0300FE
:10B9E800012208B5034B002003491A7022F086FD96
:10B9F800002008BD28560120AE4F030030B595B091
:10BA0800242204460D460BA8002126F065FC06A951
:10BA1800012025F00EFD0BA906A81FF0D9FE089BF2
:10BA28000D4A294693FBF2F305930B9B204604939A
:10BA38000C9B0A4A03930D9B02930E9B01930F9B49
:10BA480001330093109B03F26C7320F001FFC04395
:10BA5800C00F15B030BD00BF40420F006A50030050
:10BA6800F8B505460E4617464FF0FF334FF0FF3244
:10BA780021481CF097F8214B1C785CB11E21204806
:10BA8800FFF7BCFF4FF480611D4B1E4A1E4820F093
:10BA9800DFFE04461C48C4F5806120443B4632461C
:10BAA8000FF00CFE0444B4F5806F184C03D318490A
:10BAB800206824F0D8FE012D206807D0022D0ED072
:10BAC80095B9114A134924F0B2FE03E00E4A114910
:10BAD80024F0BBFEBDE8F84007481CF033B90A4A19
:10BAE8000C4924F0C0FEF5E70B4924F0BCFE064AD9
:10BAF80008492068E7E700BF80EC002028560120AD
:10BB08000A560120BCE703000A520120483B0120E5
:10BB1800905003007DB20400BB500300024B024664
:10BB28000249186824F083BE483B01207DB2040016
:10BB3800012938B5054616D954680C492046FDF741
:10BB48008BF880B120460A49FDF786F858B122469D
:10BB58000220084922F0D2FC6FF01504284624F090
:10BB680090FE204638BD0124F8E700BF8A62030032
:10BB7800ED500300F450030008B50020074B084AB5
:10BB8800084922F0BBFC0020074922F0B7FCBDE8B9
:10BB980008400020054922F0B1BC00BF0D51030048
:10BBA8001A510300205103003B5103005651030072
:10BBB800012938B504460AD95268064924F053FECB
:10BBC8004FF0FF35204624F05CFE284638BD01259D
:10BBD800F8E700BF6E51030008B502F05FF90246AE
:10BBE80028B1BDE808400220014922F087BC08BD01
:10BBF8008851030001232DE9F04F00259146DFF815
:10BC080058B3B14ADBB0994206460F46CDE907550D
:10BC18001360CBF8003040F26D82A846AA460AA805
:10BC280005F002FA60220AA922A826F02EFBCDE927
:10BC3800045508AB00934946A44B3846A44A25F05E
:10BC4800C9FE431C04460BD1DBF80030BB4280F030
:10BC5800458307F18047013F59F827209D490BE0AC
:10BC68000C2C1FDC002C0BDADBF800309A4903F1AE
:10BC78008043013B59F82320022022F03FFC39E29F
:10BC8800013C0B2C00F25E82DFE814F062026C02C9
:10BC9800740225023B024E024702550212021802A4
:10BCA8001E027F02742C2DDC612CDDDD623C122C1F
:10BCB800DAD801A353F824F05DC0000071BC00007D
:10BCC800A9C0000071BC000071BC000071BC00007C
:10BCD800FDC0000071BC000071BC000071BC000018
:10BCE80071BC000001C00000D1BF000071BC0000A1
:10BCF80071BC000071BC00005DBD000071BC00009B
:10BD08003FC000006FF47A7023180E2BACD80E2BAE
:10BD1800AAD801A252F823F09FC10000CFC10000A9
:10BD2800EFC100006DC2000071BC000071BC0000D2
:10BD380071BC000071BC000071BC000083C200002F
:10BD480083C2000083C2000083C2000083C20000D7
:10BD580083C2000000240AA805F066F97C22214667
:10BD68003BA83A9426F0B8FA20465C4922F0C6FB74
:10BD78000A9B20461A465A49049322F0BFFB0B9BA4
:10BD880020461A465749049322F0B8FBBDF83430D0
:10BD980020461A46544922F0B1FB2046BDF830200F
:10BDA800524922F0ABFB9DF83200002800F0878052
:10BDB8003AA99DF8330004F049F84D490246204657
:10BDC80022F09CFB00204B4922F098FB149A00209B
:10BDD800494922F093FB0020484922F08FFB0020BC
:10BDE800129A474922F08AFB9DF84C2000204549C9
:10BDF80022F084FB0020444922F080FB00200F9AA7
:10BE0800424922F07BFB0020119A414922F076FB3F
:10BE1800DDE9103200203F4922F070FB0020109A23
:10BE28003D4922F06BFB9DF8392000203B4922F068
:10BE380065FB00203A4922F061FBDDE91823002068
:10BE4800384922F05BFB0020374922F057FB0020DD
:10BE58009DF85820354922F051FB0020159A3449A5
:10BE680022F04CFB00209DF85920324922F046FB75
:10BE780000209DF85A20304922F040FB9DF85B20B5
:10BE880000202E4922F03AFB00202D4922F036FBF3
:10BE98009DF868102B4B2C4A0020012908BF1A4630
:10BEA8002A4922F02BFB9DF86830012B56D0002040
:10BEB800274922F023FB00205BB0BDE8F08F25491D
:10BEC80022F01CFB7EE700BF144E0120A0DB0020FF
:10BED8009F5A0300AC5A03007F5A0300C051030065
:10BEE800D15103000E5203004B5203008852030045
:10BEF800BC5203002A5303003E530300725303004D
:10BF080086530300BA530300EE5303000D54030095
:10BF18004154030084540300CD5403001155030019
:10BF28004855030063550300A1550300B7550300A6
:10BF3800F55503003356030071560300AF5603004E
:10BF4800ED560300A8510300AE5103000E5703003D
:10BF580042570300F0520300F4E700209DF86930CF
:10BF6800012B2FD0A54AA649022B18BF0A4600204C
:10BF7800A44922F0C3FA9DF86930022B05D10020AC
:10BF88009DF86B20A04922F0B9FA00209DF86A209C
:10BF98009E4922F0B3FA00249D4E0AAD9DF86A30FE
:10BFA8009C4288DA042C05F1040584D0B5F84430A5
:10BFB80001340093224631460020B5F8423022F081
:10BFC8009DFAEBE7934AD2E7934B0A21186807AA30
:10BFD80024F023FD079B044643B123462246022052
:10BFE8008E4922F08BFA6FF0150065E722F099FB75
:10BFF8000028F2D022941CE6874B186826F023F913
:10C008000123984202468DF8923003D100238DF81F
:10C0180093300EE60228FAD0032801D10223F6E76E
:10C02800042803D100238DF8923002E67C490220CF
:10C0380022F064FAD7E7784B0A21186807AA24F097
:10C04800ECFC079B23B17749022022F057FACAE794
:10C058002390EEE5704B186826F0F5F8431E012B87
:10C0680002460BD8BDF83030ADF89000042B7FF4B1
:10C07800E0AD01206C4922F041FADAE5011F1229EE
:10C088000CD86A4BCB40D90708D50428BDF8303006
:10C09800ADF89000EAD1042BEBD1CAE56449C6E7B4
:10C0A8005D4B186826F0CFF8C317CDE93003C0E51B
:10C0B800594B186826F0C7F82C90BAE5564B186803
:10C0C80026F0C1F82A90B4E5534B186826F0BBF85F
:10C0D8008DF8AC00ADE5504B186826F0B4F8082888
:10C0E80004D86FF48B730341DA0707D5514902204E
:10C0F80022F004FA5048FFF711FDDCE68DF8B8008D
:10C1080097E5454B186826F09EF84C4B421E9A421C
:10C1180001D94B49EBE72D908BE53F4B186826F08A
:10C1280092F88DF8B90084E53B4B186826F08BF837
:10C138008DF8BA007DE5384B186826F084F88DF83C
:10C14800BB0076E5344B186826F07DF8279070E53B
:10C15800314B186826F077F8002801DB394973E776
:10C16800289066E52C4B186826F06DF80028F5DA5B
:10C1780029905EE5284B186826F065F8642801D9EF
:10C18800314961E78DF8990053E504F027FF06204F
:10C1980001F0FEF98FE6204B2C491C682046FCF77D
:10C1A8005BFD18B901238DF8C83042E520462849BF
:10C1B800FCF752FD10B98DF8C8003AE5254930461C
:10C1C80024F051FB0FE7144B23491C682046FCF769
:10C1D80043FD002879D020462049FCF73DFD002882
:10C1E8007AD01F49EBE70C4B4FF00108186826F08E
:10C1F8002AF8CDF814808DF8CB001AE5B551030064
:10C20800B851030075570300AE570300E257030007
:10C218001658030098510400104E01204E58030090
:10C22800E45803000C5903002459030021000400BA
:10C23800635903007E590300806803003F4B4C009C
:10C248009C590300CC590300EA590300A851030084
:10C25800AE510300045A0300225A0300F18C040073
:10C26800255A03007E4B4FF00108186825F0EBFFB4
:10C27800CDF810808DF8CA00DBE4794B186808B94E
:10C2880078499CE778493AAB09AA20F035FB02289F
:10C29800F6D1099A172A04D83A9B172B01D89A4243
:10C2A80005D917227149304624F0DDFA9BE60021B2
:10C2B80001250791A4F2E2345AA901EB8404A846A7
:10C2C80024F8DA2C24F8D83CB3E401234FF0010811
:10C2D8008DF8C930C246ACE40223F7E79DF8C830B0
:10C2E800BBB9B8F1000F00D11DB10120604922F09F
:10C2F80005F900238DF8C930ADF8CA30CDE93433DB
:10C30800ADF8CE303693ADF8DC3022A804F040FE0C
:10C318003DE7012B0FD19DF86830012B04D0BAF10D
:10C32800000F08D153494AE7BAF1000F03D19DF82D
:10C3380069308DF8C9309DF8C930022B1ED1049B95
:10C3480003B90DB14C493AE7059B43B99DF86930EB
:10C35800022B0CD19DF86B304BB18DF8CB309DF88A
:10C36800CB30013B032B05D9042244499BE7012329
:10C378008DF8CB3000238DF8CA30BFE7012BD1D11F
:10C38800059B0BB13E491AE7049B63B940F20113C0
:10C39800BDF868209A420ED19DF86A305A1E032AC9
:10C3A80009D88DF8CA309DF8CA104B1E032B04D942
:10C3B8000422344977E70423F3E79DB1002222AC35
:10C3C800B4F84630B4F84850172B02F1010203D8EC
:10C3D800172D01D8AB4240D9172330462A4924F0FB
:10C3E80042FA00E61822B2FBF1F22C4622AB571EA5
:10C3F800A8B20134A3F84600A1423844A3F8480083
:10C40800154403F10403F3DC0A46002022AB03EBD6
:10C418008103042A03F10403D0D0A3F84200A3F84F
:10C4280044000132F5E7B7F84AC0013065450CD33E
:10C43800B7F84CE0734508D8CDE90050CDE902CEF5
:10C448003046124924F00FFACDE504378142EADC80
:10C45800914204F10404B3DC57E727461046F5E798
:10C46800104E0120365A0300485803004F5A030063
:10C47800D45A0300075B03003F5B0300765B0300AD
:10C488008B5B0300AF5B0300C65B0300F55B030037
:10C498002DE9FF47012300250C461646244F254A5F
:10C4A800DFF8A4A0DFF8A480039513603B600DF1CA
:10C4B8000C095346424631462046CDF8009025F0F7
:10C4C80089FA431C09D13B68A34224D204F1804471
:10C4D800013C56F8242018490DE0332815D00EDC0D
:10C4E800312814D0322814D03B68144903F1804312
:10C4F800013B56F82320022022F000F801E06828CA
:10C50800F2D10F48FFF70AFB0EE00225D1E700251C
:10C51800CFE70125CDE7284602F028FB024618B1EF
:10C528000220084921F0EAFF04B0BDE8F08700BF07
:10C53800F4E70020144E0120AC5A03007F5A030090
:10C54800E6960300315C030070DE00202C5C0300DB
:10C558002DE9FF47012300250C461646244F254A9E
:10C56800DFF8A4A0DFF8A480039513603B600DF109
:10C578000C095346424631462046CDF8009025F036
:10C5880029FA431C09D13B68A34224D204F1804410
:10C59800013C56F8242018490DE0332815D00EDC4C
:10C5A800312814D0322814D03B68144903F1804351
:10C5B800013B56F82320022021F0A0FF01E0682863
:10C5C800F2D10F48FFF7AAFA0EE00225D1E70025BD
:10C5D800CFE70125CDE7284602F0FEFA024618B15A
:10C5E8000220084921F08AFF04B0BDE8F08700BFA7
:10C5F800F4E70020144E0120AC5A03007F5A0300D0
:10C60800C5920300315C030070DE00202C5C03003F
:10C618002DE9F0478AB00C46164604F00FFD0023BA
:10C6280005460393002C61D001236C4A6C4FD6F861
:10C63800048013603B60B8F1000F12D0404669498E
:10C64800FCF70AFB28B902F0A3FE00200AB0BDE8F7
:10C65800F08740466449FCF7FFFA10B901F0ACFED8
:10C66800F3E740F28163059301238DF81E306B696F
:10C67800DFF894910693B5F81130DFF89081ADF8A2
:10C688001F30EB690DF10C0A8DF81230AB698DF88B
:10C6980013300023ADF81C30ADF820308DF824306D
:10C6A8008DF811304B46424631462046CDF800A061
:10C6B80025F090F9431C09D13B68A3426FD204F1DD
:10C6C8008044013C56F8242048490CE0742843D0A3
:10C6D80028DC613808280DD93B68454903F18043B7
:10C6E800013B56F82320022021F008FF4148FFF7BC
:10C6F80015FAAAE70828EFD801A353F820F000BFDD
:10C7080075C70000E1C6000047C70000E1C6000089
:10C71800E1C600006DC70000E1C60000F5C60000D4
:10C7280053C700006FF47A728318032BD4D8A0F291
:10C73800EA30022821D8DFE800F01D242B002E4B18
:10C74800186825F080FD0590ACE72B4B186825F09C
:10C758007AFDADF81C00A5E7274B186825F073FD96
:10C7680006909FE701238DF810309BE701238DF891
:10C77800113097E701238DF8203002238DF81E3001
:10C7880090E71D4B186825F05EFD8DF8130089E7CA
:10C79800194B186825F057FD8DF8120082E70599A6
:10C7A80069B19DF81120288989B221F05BFF30B961
:10C7B80002202B89059A114921F0A0FE96E7002155
:10C7C80004A801F0BBFD024620B102200C4921F06B
:10C7D80095FE3AE70B4921F091FE36E7144E012009
:10C7E800F4E70020585C0300D22F0400AC5A030081
:10C7F8007F5A030067880300104E0120675C03001E
:10C80800955C0300B45C030000DE00205D5C03005F
:10C818002DE9F0478AB00C46164604F00FFC0023B9
:10C8280005460293002C75D04FF00109614B624F09
:10C83800C3F800900223D6F804803B60B8F1000FDB
:10C8480068D040465D49FCF707FA28B901F092FB29
:10C8580000200AB0BDE8F08740465949FCF7FCF9CA
:10C86800002857D1EB6932228DF81F30AB69ADF83B
:10C8780022908DF8203040F28163CDE903230A230A
:10C88800DFF85891DFF8588105900693ADF81C0041
:10C898008DF81E0009900DF1080A4B4642463146B4
:10C8A8002046CDF800A025F095F8431C09D13B6837
:10C8B800A3426FD204F18044013C56F82420414938
:10C8C80025E0742810DC60281ADD6138132817D891
:10C8D800DFE800F024162816382E162059161616EA
:10C8E800161616161616163240F2EA33984237D044
:10C8F80040F2EB3398423AD040F2E933984228D0DC
:10C908003B68314903F18043013B56F8232002205C
:10C9180021F0F4FD2D48FFF701F999E701238DF87F
:10C928001E30BAE72A4B186825F08DFC0490B4E74E
:10C9380001238DF81D30B0E7254B186825F083FCDE
:10C948000690AAE7224B186825F07DFC8DF81C009C
:10C95800A3E71F4B186825F076FC8DF820009CE7AC
:10C968001B4B186825F06FFC8DF81F0095E72B68A6
:10C97800059301238DF825306B68ADF826302B68B8
:10C988008DF8243089E7124B186825F05CFCADF867
:10C99800220082E7002103A801F0FCFA024620B138
:10C9A80002200C4921F0AAFD52E70B4921F0A6FD0F
:10C9B8004EE700BF144E0120F4E70020D22F0400F8
:10C9C8008D2F0400AC5A03007F5A0300317F030007
:10C9D800104E0120D35C0300EB5C030080DD0020D7
:10C9E800C75C03002DE9F0430D4691B0164604F0EC
:10C9F80025FB0023012D0446039340F2CA8001233E
:10CA08009C4A9D4F706813603B6060B19B49FCF77E
:10CA180023F940B99A4921F071FD21F0A7FD0020C2
:10CA280011B0BDE8F083236A26208DF81C3094F8F5
:10CA38002430DFF884928DF81D300223ADF81E30C3
:10CA48008DF820308F4BDFF87482CDE90503A36A97
:10CA58008DF830300023ADF810308DF8313094F86F
:10CA680030308DF83830E36A0D9394F832308DF811
:10CA78003A3094F831308DF83B3003238DF8393053
:10CA880094F83330804C8DF83C3004238DF83D30D9
:10CA980003AB009342464B463146284624F09AFFA2
:10CAA800431C0AD13B68AB4280F0C28005F1804547
:10CAB800013D56F8252075492BE074281DDC6028B7
:10CAC80020DD613813281DD8DFE800F0311C2B2742
:10CAD8003C1C1C631C1C1C1C1C1C1C1C1C1C2F35FB
:10CAE800A0F2D2700C2845D8DFE800F04A666C72D4
:10CAF800785A60383E337E978D006FF4FA61431898
:10CB08000D2BEDD93B68624903F18043013B56F890
:10CB18002320022021F0F2FC3BE001238DF81130A4
:10CB2800B6E701238DF81030B2E70223FAE70123B4
:10CB38008DF83130ACE7544B186825F084FBADF81C
:10CB48001A00A5E7504B186825F07DFB8DF83000DA
:10CB58009EE7206825F077FB059099E7206825F087
:10CB680072FB8DF81C0093E7206825F06CFB8DF8AC
:10CB78001D008DE7206825F066FBADF8180087E7F3
:10CB8800206825F060FB002807DC4249022021F0DC
:10CB9800B5FC4148FEF7C2FF41E78DF81E0077E774
:10CBA800206825F050FB8DF8200071E7206825F0FB
:10CBB8004AFB8DF81F006BE7206825F044FB8DF8D1
:10CBC8003A0065E7206825F03EFB8DF83B005FE7FB
:10CBD800206825F038FB8DF83C0059E7206825F0DF
:10CBE80032FB8DF83D0053E7206825F02CFB082820
:10CBF80004D86FF48B730341DA0701D52749C5E7D9
:10CC08008DF8380044E7206825F01DFB072801D976
:10CC18002349BBE78DF839003AE7206825F013FB74
:10CC2800204B421E9A4201D91F49AFE70D902FE7CA
:10CC38009DF810300BB91D49A8E79DF81F307BB14E
:10CC48004FF46152A3FB023204A8CDE90A3201F085
:10CC5800C3FE024648B10220154921F04FFCDEE62A
:10CC68004FF4E1429DF82030ECE7124921F046FCF0
:10CC7800D5E600BF144E0120F4E70020D22F0400AF
:10CC8800F75C030081060500104E0120AC5A030032
:10CC98007F5A03000E5D0300F8BB03007E590300B2
:10CCA800395D03003F4B4C009C590300635D030052
:10CCB8008E5D0300B15D0300F0E00020595D0300C4
:10CCC80000232DE9F04F8DB016460C46039300293A
:10CCD80000F0A28001239C4ADFF8BC8270681360D0
:10CCE800C8F8003058B19949FBF7B6FF054630B986
:10CCF80021F04CFC2846964921F000FC79E104F02B
:10CD08009DF92622934B0F21CDE90423036A0025C0
:10CD18008DF8183090F82430A9468DF81930836AB8
:10CD2800DFF878A28DF81A300523CDE908138A4B6D
:10CD38008DF81B500A9340F204638DF81C50ADF82F
:10CD48002C300DF10C0B534631462046834ACDF862
:10CD580000B024F03FFE431C0BD1D8F80030A342AA
:10CD680080F01E8104F18044013C56F824207C495F
:10CD78004FE074281ADC62281CDD6338112819D8A2
:10CD8800DFE800F064186B18184A181818182518E6
:10CD9800187818182172A0F6BA3009287FD8DFE869
:10CDA80000F091703F7799A4ADB6C1CAA0F6B93327
:10CDB8000A2BF0D9D8F800306A4903F18043013BC7
:10CDC80056F8232025E001238DF81B30BBE7664B7E
:10CDD80066491F683846FBF73FFF18B901238DF8ED
:10CDE8001630B0E738466249FBF736FF08B9022328
:10CDF800F5E738465F49FBF72FFF08B90323EEE74D
:10CE080038465D49FBF728FF08B90423E7E73A46A7
:10CE18005A49022021F072FB5948FEF77FFEE8E0EC
:10CE2800514B54491D682846FBF716FF20B90323C8
:10CE380001258DF8173086E728464F49FBF70CFF88
:10CE480008B90423F4E72A464E49E2E7464B186836
:10CE580025F0F9F9ADF8140075E7434B186825F08B
:10CE6800F2F98DF81A006EE73F4B186825F0EBF9D8
:10CE7800049068E73C4B186825F0E5F98DF8180030
:10CE880061E7414822F088FC01238DF81C305AE7FD
:10CE9800354B186825F0D7F98DF8190053E7324B50
:10CEA800186825F0D0F9071E04DC3849022021F063
:10CEB80025FBB1E7322F03DD0120354921F01EFBA8
:10CEC800089740E7284B186825F0BDF90028ECDDE5
:10CED800099038E7244B186825F0B5F9002801DADD
:10CEE8002C49E3E78DF828002DE71F4B186825F03B
:10CEF800AAF90028D9DD8DF8290024E71A4B18680B
:10CF080025F0A1F90028EBDB8DF82A001BE7164B6A
:10CF1800186825F098F90028E2DB4FF001098DF830
:10CF28002B0010E7104B186825F08DF90028D7DB87
:10CF38008DF82C0007E70C4B186825F084F90028B9
:10CF4800CEDB8DF82D00FEE6144E0120D22F040012
:10CF5800C75D0300810602000005050A985E03000C
:10CF6800AC5A03007F5A0300104E0120E15D030014
:10CF7800E45D0300EE450400EC5D0300F25D030090
:10CF880050A70300035E03001D5E0300375E030025
:10CF98004F5E03007F5E0300F4E70020D0DF00202F
:10CFA80004F04CF801220446BDF81410008921F061
:10CFB80059FB38B902202389BDF814201B4921F0F8
:10CFC8009DFA29E7B9F1000F06D19DF81630032B19
:10CFD80013D100238DF82B3015B101238DF81B30A8
:10CFE80004A801F041FD0246E8B10220104921F0F1
:10CFF80085FA00200DB0BDE8F08F042B08D19DF80C
:10D0080029209DF8283013449DF82A201344E1E78D
:10D01800022BE1D19DF81730002BDDD0032BD8D09F
:10D02800042BD9D1EBE7034966E600BFA55E0300F0
:10D03800CD5E0300F35E030000232DE9F0430129D0
:10D048008BB00C461546029340F208810123AE4A84
:10D05800AE4E68681360336060B1AD49FBF7FCFD04
:10D0680040B9AC4921F04AFA21F088FA00200BB007
:10D07800BDE8F08303F0E2FFC26901238DF81F20A9
:10D088002622A5498DF82030CDE9031202F1C062AD
:10D09800A2F1241205920522836A06928DF82130A6
:10D0A800036A4FF444428DF81C3090F82430DFF8BE
:10D0B800A0828DF81D300023984F8DF81E30ADF8F2
:10D0C8002220ADF824300DF1080943463A46294696
:10D0D8002046CDF8009024F07DFC431C0AD133682B
:10D0E800A34280F0F18004F18044013C55F82420EB
:10D0F8008B490AE074283BDC60280ADC33688949DC
:10D1080003F18043013B55F82320022021F0F6F972
:10D11800A4E061381328F1D801A353F820F000BF28
:10D1280017D2000005D10000BDD10000B5D1000024
:10D13800EDD1000005D1000005D1000065D2000046
:10D14800DFD1000005D1000005D10000FBD10000AF
:10D15800C5D1000005D1000005D1000005D10000AF
:10D1680005D1000005D10000CDD10000D1D10000CB
:10D178006FF4FA6210440928C0D80928BED801A360
:10D1880053F820F099D20000A7D2000005D1000082
:10D198002BD2000039D2000047D2000073D2000021
:10D1A8001FD20000C9D20000BBD2000001238DF8B5
:10D1B8000D308AE701238DF80C3086E701238DF8BE
:10D1C800243082E70223F6E7574B186825F03BF82E
:10D1D800ADF8160079E7544B186825F034F8ADF827
:10D1E800140072E7504B186825F02DF88DF82100CF
:10D1F8006BE74D4B186825F026F8002804DC4B49EE
:10D20800022021F07BF929E08DF820005DE7012359
:10D218008DF8253059E7444B186825F014F8049028
:10D2280053E7414B186825F00EF88DF81C004CE7C1
:10D238003D4B186825F007F88DF81D0045E73A4B77
:10D24800186825F000F8831E6C2B02460AD96E2355
:10D25800009302233649184621F050F93548FEF765
:10D268005DFC03E78DF81E002FE72F4B186824F0AC
:10D27800EAFF00F180037F2B024606D96FF07F0397
:10D2880002202D4921F03AF9E8E78DF81F001CE744
:10D29800254B186824F0D7FFADF80E0015E7224B90
:10D2A800186824F0D0FF002801DC2449A8E706907C
:10D2B8000BE71D4B186824F0C6FF8DF8230004E720
:10D2C80001238DF8223000E79DF80C300BB91C497A
:10D2D80096E74FF47A71BDF81430BDF9162013FBA8
:10D2E80001F39A4201DB17498AE703A801F098FB8A
:10D2F800024620B10220144921F000F9B6E613498C
:10D3080021F0FCF8B2E600BF144E0120F4E700203B
:10D31800D22F04000C5F030000018106A95F0300FF
:10D32800AC5A03007F5A0300104E01200E5D030023
:10D33800235F0300209B03004A5F03007E5F030016
:10D34800635D0300B85F0300E05F03000360030050
:10D35800B0DE002008B501F021FC024628B1BDE886
:10D3680008400220034921F0C9B80349BDE8084034
:10D3780021F0C4B8196003004260030008B50F4BE0
:10D3880093F8F0202AB10E49012021F0B7F80120C6
:10D3980008BD93F8AE200AB10A49F5E793F8AF2023
:10D3A8000AB10949F0E793F8B0200AB10749EBE759
:10D3B80093F8B1000028EBD00549E5E7F0F000202C
:10D3C800A7CC0300BACC0300D4CC0300E2CC030002
:10D3D800F9CC030010B503F031FE0446C36A1348C4
:10D3E800C0F8A43094F8303080F8A13023891A1F8F
:10D3F8005342534100F8A03F19F0D0FA034620B138
:10D4080002200B4A0B4921F079F84FF4203200230F
:10D4180009481AF061FF30B10220054A0749BDE802
:10D42800104021F06BB822890549F8E7F0F0002098
:10D438002CE1030013CD03001CEE002041CD0300B6
:10D448006FCD0300104B37B54FF49C72002118467E
:10D4580024F042FF40F2E7320024A0F8EC20012239
:10D468000A4D80F8D5206FF006034FF48052284605
:10D47800074900941BF090FA064928461BF008FC5F
:10D48800204603B030BD00BFF0F0002028F2002095
:10D49800E087012092CD0300014608B520B1BDE820
:10D4A8000840134822F078B9124B1B78FBB9124890
:10D4B8001AF08CFF114819F04DF8014680B1104858
:10D4C80022F06AF94FF4803200230B481AF004FF67
:10D4D80068B1BDE8084002200A4A0B4921F00EB89D
:10D4E80019F042F801460028ECD00848E8E708BDE2
:10D4F800AACD0300F0F000201CEE002049DB00005C
:10D50800D0CD030074E0030029CE030003CE03004E
:10D5180070B5A0B0064619F047F8002104467C22F1
:10D5280001A8009124F0D8FE3CB123460220124AFB
:10D53800124920F0E3FF20B070BD00234FF42032E1
:10D548000F481AF0C9FE0F4B054638B102200A4AA7
:10D558000D4983F8A84020F0D1FFECE70122694685
:10D56800304683F8A82083F8A96002F06FFC0749C9
:10D5780002462846EFE700BF0FE1030052CE030042
:10D588001CEE0020F0F0002081CE0300AECE030098
:10D59800002307B58DF80000019300220023694697
:10D5A80005481AF03FF920B1019824F034FE6FF0D5
:10D5B800680003B05DF804FB18ED002073B505465C
:10D5C80010460E4614461EF0C3F8019098B1224644
:10D5D800314624F05AFE8DF8005000220023694697
:10D5E80006481AF01FF920B1019824F014FE6FF0D4
:10D5F800680002B070BD6FF00B00FAE718ED00206C
:10D60800F0B50746ADF2CC5DB6ADB0F9046004469E
:10D618000FCF0FC53B6806EBD6762B60314DC09314
:10D62800D5E93823CDE9BE23B5F8D6307610ADF864
:10D63800063395F8D8300DF106018DF8083300232C
:10D64800ADF80463ADF8EC3202F016FC18B9BDF879
:10D658000630ADF8EC3295F8E83021698DF8EE32F5
:10D66800B5F8EA30B1F52F7FADF8F032B5F8EE3005
:10D67800ADF8F2322AD80A460DF20930E16824F0F2
:10D6880004FED5F818310BB1B6A898474FF43C7290
:10D698000920B6A9FFF792FFD5E938232169CDE91A
:10D6A8000223B5F8D630B1F52F7F0591ADF81230C9
:10D6B800ADF8106010D80A4606A8E16824F0E5FD28
:10D6C80002A821F008F90DF2CC5DF0BD4FF42F72DD
:10D6D800054822F061F8DFE74FF42F72034822F083
:10D6E8005BF8F0E7F0F00020D6CE03002DCF030062
:10D6F8002DE9F04F0025A1B04C4C7C22294601A809
:10D70800009524F0E9FD94F8313033B902204849F6
:10D7180020F0F4FE21B0BDE8F08F2846454920F0FE
:10D72800EDFE2846444920F0E9FE2646DFF84891F8
:10D73800DFF848A16946284602F088FBB046024651
:10D748004946002020F0DAFE51460020726B20F096
:10D75800D5FE002058F8382F384920F0CFFE002792
:10D76800DFF81CB16946384602F070FB0137024603
:10D778005946002058F8043F20F0C0FE032FF1D18D
:10D788000135032D06F11406D4D100202C4920F0D0
:10D79800B5FE00202B4920F0B1FE226F00202A4957
:10D7A80020F0ACFE626F0020284920F0A7FEA26F8F
:10D7B8000020274920F0A2FED4F880200020254927
:10D7C80020F09CFE0020244920F098FED4F8842004
:10D7D80000201D4920F092FED4F8882000201F491F
:10D7E80020F08CFE00201E4920F088FED4F88C2002
:10D7F80000201C4920F082FED4F8902000201A490D
:10D8080020F07CFED4F894200020184920F076FE01
:10D81800D4F898200020164920F070FE0020D4F893
:10D828009C20144920F06AFE74E700BFF0F0002045
:10D8380089CF0300ACCF0300C5CF03001DD0030080
:10D848006BD0030081D0030087D003009DD0030074
:10D85800B8D00300D1D00300E7D00300EDD0030017
:10D8680003D1030029D1030050D1030079D103006B
:10D878009FD10300C2D10300E5CF0300F6CF030018
:10D8880041D003000C4B0022194630B45C68944226
:10D8980002DC0A2030BC70479D890132854208D8D5
:10D8A800DD89854205D301EBC201C87830BC20F080
:10D8B80051BF0833EBE700BFF0F000202DE9F84333
:10D8C8001D4C00201D4920F019FE002526461C4F3E
:10D8D800DFF88080DFF880907368AB4201DCBDE838
:10D8E800F883627A3946002020F008FE227A414601
:10D8F800002020F003FEA2894946002020F0FEFD0A
:10D90800E28900200F4920F0F9FDE27A0E49002053
:10D9180020F0F4FDE07A20F01DFF0C4902460020BB
:10D9280020F0ECFD94F90A200020094920F0E6FDDA
:10D9380001350834D0E700BFF0F00020E7D103003C
:10D94800FDD1030042D2030059D2030070D2030074
:10D958008AD2030014D203002BD2030010B5044668
:10D96800044820F0E4FD2146BDE8104006221420BA
:10D97800FFF724BE1CEE002008B5018811B1044849
:10D9880021F00AFFBDE80840024820F0D0BD00BFE2
:10D99800A2D203001CEE002010B50446044820F073
:10D9A800C6FD2146BDE8104008221620FFF706BE36
:10D9B8004CEE0020014820F0BABD00BF34EE002034
:10D9C80070B5124D0C4695F8D43086B0CBB10188AD
:10D9D80029B10F4806B0BDE8704021F0DDBE02F065
:10D9E8002DF9D4E90023161A63EB0104002CCDE9C4
:10D9F8000464ACBF074C084C8DE81300074821F0BD
:10DA0800CBFE002385F8D43006B070BDF0F00020BE
:10DA1800BCD2030010D3030017D30300DBD20300EA
:10DA28002DE9F047018821B1BDE8F047324821F0DF
:10DA3800B3BE324F97F8AC4054B94668304866B91F
:10DA480021F0AAFE2F4821F0A7FE012387F8AC3069
:10DA58002D48BDE8F04720F06ABD21F09DFE3178E1
:10DA68002A4821F099FE7178294821F095FE35461B
:10DA7800DFF8C080DFF8C090DFF8C0A07378A34259
:10DA8800E3DD2A792146404621F086FE6A7921465F
:10DA9800484621F081FEAA792146504621F07CFEB5
:10DAA800AA6821461B4821F077FE2A7B21461A489E
:10DAB80021F072FE6A7B2146184821F06DFE0C3574
:10DAC800AA782146164821F067FEAB78012B0BD0C7
:10DAD8001449154840F2DF33144A21F01DFF40F283
